{
	"decentralized_finance.sol": {
		"DecentralizedFinance": {
			"abi": [
				{
					"inputs": [],
					"stateMutability": "nonpayable",
					"type": "constructor"
				},
				{
					"anonymous": false,
					"inputs": [
						{
							"indexed": true,
							"internalType": "address",
							"name": "owner",
							"type": "address"
						},
						{
							"indexed": true,
							"internalType": "address",
							"name": "spender",
							"type": "address"
						},
						{
							"indexed": false,
							"internalType": "uint256",
							"name": "value",
							"type": "uint256"
						}
					],
					"name": "Approval",
					"type": "event"
				},
				{
					"anonymous": false,
					"inputs": [
						{
							"indexed": true,
							"internalType": "address",
							"name": "from",
							"type": "address"
						},
						{
							"indexed": true,
							"internalType": "address",
							"name": "to",
							"type": "address"
						},
						{
							"indexed": false,
							"internalType": "uint256",
							"name": "value",
							"type": "uint256"
						}
					],
					"name": "Transfer",
					"type": "event"
				},
				{
					"anonymous": false,
					"inputs": [
						{
							"indexed": true,
							"internalType": "address",
							"name": "borrower",
							"type": "address"
						},
						{
							"indexed": false,
							"internalType": "uint256",
							"name": "amount",
							"type": "uint256"
						},
						{
							"indexed": false,
							"internalType": "uint256",
							"name": "deadline",
							"type": "uint256"
						}
					],
					"name": "loanCreated",
					"type": "event"
				},
				{
					"inputs": [
						{
							"internalType": "address",
							"name": "owner",
							"type": "address"
						},
						{
							"internalType": "address",
							"name": "spender",
							"type": "address"
						}
					],
					"name": "allowance",
					"outputs": [
						{
							"internalType": "uint256",
							"name": "",
							"type": "uint256"
						}
					],
					"stateMutability": "view",
					"type": "function"
				},
				{
					"inputs": [
						{
							"internalType": "address",
							"name": "spender",
							"type": "address"
						},
						{
							"internalType": "uint256",
							"name": "amount",
							"type": "uint256"
						}
					],
					"name": "approve",
					"outputs": [
						{
							"internalType": "bool",
							"name": "",
							"type": "bool"
						}
					],
					"stateMutability": "nonpayable",
					"type": "function"
				},
				{
					"inputs": [
						{
							"internalType": "address",
							"name": "account",
							"type": "address"
						}
					],
					"name": "balanceOf",
					"outputs": [
						{
							"internalType": "uint256",
							"name": "",
							"type": "uint256"
						}
					],
					"stateMutability": "view",
					"type": "function"
				},
				{
					"inputs": [],
					"name": "buyDex",
					"outputs": [],
					"stateMutability": "payable",
					"type": "function"
				},
				{
					"inputs": [
						{
							"internalType": "contract IERC721",
							"name": "nftContract",
							"type": "address"
						},
						{
							"internalType": "uint256",
							"name": "nftId",
							"type": "uint256"
						}
					],
					"name": "cancelLoanRequestByNft",
					"outputs": [],
					"stateMutability": "nonpayable",
					"type": "function"
				},
				{
					"inputs": [
						{
							"internalType": "uint256",
							"name": "loanId",
							"type": "uint256"
						}
					],
					"name": "checkLoan",
					"outputs": [],
					"stateMutability": "nonpayable",
					"type": "function"
				},
				{
					"inputs": [],
					"name": "decimals",
					"outputs": [
						{
							"internalType": "uint8",
							"name": "",
							"type": "uint8"
						}
					],
					"stateMutability": "view",
					"type": "function"
				},
				{
					"inputs": [
						{
							"internalType": "address",
							"name": "spender",
							"type": "address"
						},
						{
							"internalType": "uint256",
							"name": "subtractedValue",
							"type": "uint256"
						}
					],
					"name": "decreaseAllowance",
					"outputs": [
						{
							"internalType": "bool",
							"name": "",
							"type": "bool"
						}
					],
					"stateMutability": "nonpayable",
					"type": "function"
				},
				{
					"inputs": [],
					"name": "getDex",
					"outputs": [
						{
							"internalType": "uint256",
							"name": "",
							"type": "uint256"
						}
					],
					"stateMutability": "view",
					"type": "function"
				},
				{
					"inputs": [],
					"name": "getEthTotalBalance",
					"outputs": [
						{
							"internalType": "uint256",
							"name": "",
							"type": "uint256"
						}
					],
					"stateMutability": "view",
					"type": "function"
				},
				{
					"inputs": [
						{
							"internalType": "address",
							"name": "spender",
							"type": "address"
						},
						{
							"internalType": "uint256",
							"name": "addedValue",
							"type": "uint256"
						}
					],
					"name": "increaseAllowance",
					"outputs": [
						{
							"internalType": "bool",
							"name": "",
							"type": "bool"
						}
					],
					"stateMutability": "nonpayable",
					"type": "function"
				},
				{
					"inputs": [
						{
							"internalType": "uint256",
							"name": "dexAmount",
							"type": "uint256"
						},
						{
							"internalType": "uint256",
							"name": "deadline",
							"type": "uint256"
						}
					],
					"name": "loan",
					"outputs": [],
					"stateMutability": "nonpayable",
					"type": "function"
				},
				{
					"inputs": [
						{
							"internalType": "contract IERC721",
							"name": "nftContract",
							"type": "address"
						},
						{
							"internalType": "uint256",
							"name": "nftId",
							"type": "uint256"
						}
					],
					"name": "loanByNft",
					"outputs": [],
					"stateMutability": "nonpayable",
					"type": "function"
				},
				{
					"inputs": [
						{
							"internalType": "uint256",
							"name": "",
							"type": "uint256"
						}
					],
					"name": "loans",
					"outputs": [
						{
							"internalType": "uint256",
							"name": "dateCreated",
							"type": "uint256"
						},
						{
							"internalType": "uint256",
							"name": "deadline",
							"type": "uint256"
						},
						{
							"internalType": "uint256",
							"name": "amountEth",
							"type": "uint256"
						},
						{
							"internalType": "address",
							"name": "lender",
							"type": "address"
						},
						{
							"internalType": "address",
							"name": "borrower",
							"type": "address"
						},
						{
							"internalType": "bool",
							"name": "isBaseNft",
							"type": "bool"
						},
						{
							"internalType": "contract IERC721",
							"name": "nftContract",
							"type": "address"
						},
						{
							"internalType": "uint256",
							"name": "nftId",
							"type": "uint256"
						}
					],
					"stateMutability": "view",
					"type": "function"
				},
				{
					"inputs": [
						{
							"internalType": "contract IERC721",
							"name": "nftContract",
							"type": "address"
						},
						{
							"internalType": "uint256",
							"name": "nftId",
							"type": "uint256"
						},
						{
							"internalType": "uint256",
							"name": "loanAmount",
							"type": "uint256"
						},
						{
							"internalType": "uint256",
							"name": "deadline",
							"type": "uint256"
						}
					],
					"name": "makeLoanRequestByNft",
					"outputs": [],
					"stateMutability": "nonpayable",
					"type": "function"
				},
				{
					"inputs": [],
					"name": "name",
					"outputs": [
						{
							"internalType": "string",
							"name": "",
							"type": "string"
						}
					],
					"stateMutability": "view",
					"type": "function"
				},
				{
					"inputs": [
						{
							"internalType": "address",
							"name": "",
							"type": "address"
						}
					],
					"name": "numTokensPerWallet",
					"outputs": [
						{
							"internalType": "uint256",
							"name": "",
							"type": "uint256"
						}
					],
					"stateMutability": "view",
					"type": "function"
				},
				{
					"inputs": [
						{
							"internalType": "uint256",
							"name": "loanId",
							"type": "uint256"
						}
					],
					"name": "returnLoan",
					"outputs": [],
					"stateMutability": "payable",
					"type": "function"
				},
				{
					"inputs": [
						{
							"internalType": "uint256",
							"name": "dexAmount",
							"type": "uint256"
						}
					],
					"name": "sellDex",
					"outputs": [],
					"stateMutability": "nonpayable",
					"type": "function"
				},
				{
					"inputs": [
						{
							"internalType": "uint256",
							"name": "rate",
							"type": "uint256"
						}
					],
					"name": "setRateEthToDex",
					"outputs": [],
					"stateMutability": "nonpayable",
					"type": "function"
				},
				{
					"inputs": [],
					"name": "symbol",
					"outputs": [
						{
							"internalType": "string",
							"name": "",
							"type": "string"
						}
					],
					"stateMutability": "view",
					"type": "function"
				},
				{
					"inputs": [],
					"name": "totalSupply",
					"outputs": [
						{
							"internalType": "uint256",
							"name": "",
							"type": "uint256"
						}
					],
					"stateMutability": "view",
					"type": "function"
				},
				{
					"inputs": [
						{
							"internalType": "address",
							"name": "to",
							"type": "address"
						},
						{
							"internalType": "uint256",
							"name": "amount",
							"type": "uint256"
						}
					],
					"name": "transfer",
					"outputs": [
						{
							"internalType": "bool",
							"name": "",
							"type": "bool"
						}
					],
					"stateMutability": "nonpayable",
					"type": "function"
				},
				{
					"inputs": [
						{
							"internalType": "address",
							"name": "from",
							"type": "address"
						},
						{
							"internalType": "address",
							"name": "to",
							"type": "address"
						},
						{
							"internalType": "uint256",
							"name": "amount",
							"type": "uint256"
						}
					],
					"name": "transferFrom",
					"outputs": [
						{
							"internalType": "bool",
							"name": "",
							"type": "bool"
						}
					],
					"stateMutability": "nonpayable",
					"type": "function"
				}
			],
			"devdoc": {
				"events": {
					"Approval(address,address,uint256)": {
						"details": "Emitted when the allowance of a `spender` for an `owner` is set by a call to {approve}. `value` is the new allowance."
					},
					"Transfer(address,address,uint256)": {
						"details": "Emitted when `value` tokens are moved from one account (`from`) to another (`to`). Note that `value` may be zero."
					}
				},
				"kind": "dev",
				"methods": {
					"allowance(address,address)": {
						"details": "See {IERC20-allowance}."
					},
					"approve(address,uint256)": {
						"details": "See {IERC20-approve}. NOTE: If `amount` is the maximum `uint256`, the allowance is not updated on `transferFrom`. This is semantically equivalent to an infinite approval. Requirements: - `spender` cannot be the zero address."
					},
					"balanceOf(address)": {
						"details": "See {IERC20-balanceOf}."
					},
					"decimals()": {
						"details": "Returns the number of decimals used to get its user representation. For example, if `decimals` equals `2`, a balance of `505` tokens should be displayed to a user as `5.05` (`505 / 10 ** 2`). Tokens usually opt for a value of 18, imitating the relationship between Ether and Wei. This is the value {ERC20} uses, unless this function is overridden; NOTE: This information is only used for _display_ purposes: it in no way affects any of the arithmetic of the contract, including {IERC20-balanceOf} and {IERC20-transfer}."
					},
					"decreaseAllowance(address,uint256)": {
						"details": "Atomically decreases the allowance granted to `spender` by the caller. This is an alternative to {approve} that can be used as a mitigation for problems described in {IERC20-approve}. Emits an {Approval} event indicating the updated allowance. Requirements: - `spender` cannot be the zero address. - `spender` must have allowance for the caller of at least `subtractedValue`."
					},
					"increaseAllowance(address,uint256)": {
						"details": "Atomically increases the allowance granted to `spender` by the caller. This is an alternative to {approve} that can be used as a mitigation for problems described in {IERC20-approve}. Emits an {Approval} event indicating the updated allowance. Requirements: - `spender` cannot be the zero address."
					},
					"name()": {
						"details": "Returns the name of the token."
					},
					"symbol()": {
						"details": "Returns the symbol of the token, usually a shorter version of the name."
					},
					"totalSupply()": {
						"details": "See {IERC20-totalSupply}."
					},
					"transfer(address,uint256)": {
						"details": "See {IERC20-transfer}. Requirements: - `to` cannot be the zero address. - the caller must have a balance of at least `amount`."
					},
					"transferFrom(address,address,uint256)": {
						"details": "See {IERC20-transferFrom}. Emits an {Approval} event indicating the updated allowance. This is not required by the EIP. See the note at the beginning of {ERC20}. NOTE: Does not update the allowance if the current allowance is the maximum `uint256`. Requirements: - `from` and `to` cannot be the zero address. - `from` must have a balance of at least `amount`. - the caller must have allowance for ``from``'s tokens of at least `amount`."
					}
				},
				"version": 1
			},
			"evm": {
				"assembly": "    /* \"decentralized_finance.sol\":176:4865  contract DecentralizedFinance is ERC20{... */\n  mstore(0x40, 0x80)\n    /* \"decentralized_finance.sol\":794:1025  constructor() ERC20(\"DEX\", \"DEX\") {... */\n  callvalue\n  dup1\n  iszero\n  tag_1\n  jumpi\n  0x00\n  dup1\n  revert\ntag_1:\n  pop\n    /* \"@openzeppelin/contracts/token/ERC20/ERC20.sol\":1976:2089  constructor(string memory name_, string memory symbol_) {... */\n  mload(0x40)\n  dup1\n  0x40\n  add\n  0x40\n  mstore\n  dup1\n  0x03\n  dup2\n  mstore\n  0x20\n  add\n  0x4445580000000000000000000000000000000000000000000000000000000000\n  dup2\n  mstore\n  pop\n  mload(0x40)\n  dup1\n  0x40\n  add\n  0x40\n  mstore\n  dup1\n  0x03\n  dup2\n  mstore\n  0x20\n  add\n  0x4445580000000000000000000000000000000000000000000000000000000000\n  dup2\n  mstore\n  pop\n    /* \"@openzeppelin/contracts/token/ERC20/ERC20.sol\":2050:2055  name_ */\n  dup2\n    /* \"@openzeppelin/contracts/token/ERC20/ERC20.sol\":2042:2047  _name */\n  0x03\n    /* \"@openzeppelin/contracts/token/ERC20/ERC20.sol\":2042:2055  _name = name_ */\n  swap1\n  dup2\n  tag_5\n  swap2\n  swap1\n  tag_6\n  jump\t// in\ntag_5:\n  pop\n    /* \"@openzeppelin/contracts/token/ERC20/ERC20.sol\":2075:2082  symbol_ */\n  dup1\n    /* \"@openzeppelin/contracts/token/ERC20/ERC20.sol\":2065:2072  _symbol */\n  0x04\n    /* \"@openzeppelin/contracts/token/ERC20/ERC20.sol\":2065:2082  _symbol = symbol_ */\n  swap1\n  dup2\n  tag_7\n  swap2\n  swap1\n  tag_6\n  jump\t// in\ntag_7:\n  pop\n    /* \"@openzeppelin/contracts/token/ERC20/ERC20.sol\":1976:2089  constructor(string memory name_, string memory symbol_) {... */\n  pop\n  pop\n    /* \"decentralized_finance.sol\":838:866  _mint(address(this), 10**30) */\n  tag_9\n    /* \"decentralized_finance.sol\":852:856  this */\n  address\n    /* \"decentralized_finance.sol\":859:865  10**30 */\n  0x0c9f2c9cd04674edea40000000\n    /* \"decentralized_finance.sol\":838:843  _mint */\n  shl(0x20, tag_10)\n    /* \"decentralized_finance.sol\":838:866  _mint(address(this), 10**30) */\n  0x20\n  shr\n  jump\t// in\ntag_9:\n    /* \"decentralized_finance.sol\":891:893  50 */\n  0x32\n    /* \"decentralized_finance.sol\":876:888  rateWEItoDEX */\n  0x06\n    /* \"decentralized_finance.sol\":876:893  rateWEItoDEX = 50 */\n  dup2\n  swap1\n  sstore\n  pop\n    /* \"decentralized_finance.sol\":917:932  2592000 seconds */\n  0x278d00\n    /* \"decentralized_finance.sol\":903:914  maxLoanDate */\n  0x07\n    /* \"decentralized_finance.sol\":903:932  maxLoanDate = 2592000 seconds */\n  dup2\n  swap1\n  sstore\n  pop\n    /* \"decentralized_finance.sol\":959:969  msg.sender */\n  caller\n    /* \"decentralized_finance.sol\":953:958  owner */\n  0x05\n  0x00\n    /* \"decentralized_finance.sol\":953:969  owner=msg.sender */\n  0x0100\n  exp\n  dup2\n  sload\n  dup2\n  0xffffffffffffffffffffffffffffffffffffffff\n  mul\n  not\n  and\n  swap1\n  dup4\n  0xffffffffffffffffffffffffffffffffffffffff\n  and\n  mul\n  or\n  swap1\n  sstore\n  pop\n    /* \"decentralized_finance.sol\":989:990  0 */\n  0x00\n    /* \"decentralized_finance.sol\":979:986  counter */\n  0x08\n    /* \"decentralized_finance.sol\":979:990  counter = 0 */\n  dup2\n  swap1\n  sstore\n  pop\n    /* \"decentralized_finance.sol\":176:4865  contract DecentralizedFinance is ERC20{... */\n  jump(tag_11)\n    /* \"@openzeppelin/contracts/token/ERC20/ERC20.sol\":8567:9102  function _mint(address account, uint256 amount) internal virtual {... */\ntag_10:\n    /* \"@openzeppelin/contracts/token/ERC20/ERC20.sol\":8669:8670  0 */\n  0x00\n    /* \"@openzeppelin/contracts/token/ERC20/ERC20.sol\":8650:8671  account != address(0) */\n  0xffffffffffffffffffffffffffffffffffffffff\n  and\n    /* \"@openzeppelin/contracts/token/ERC20/ERC20.sol\":8650:8657  account */\n  dup3\n    /* \"@openzeppelin/contracts/token/ERC20/ERC20.sol\":8650:8671  account != address(0) */\n  0xffffffffffffffffffffffffffffffffffffffff\n  and\n  sub\n    /* \"@openzeppelin/contracts/token/ERC20/ERC20.sol\":8642:8707  require(account != address(0), \"ERC20: mint to the zero address\") */\n  tag_13\n  jumpi\n  mload(0x40)\n  0x08c379a000000000000000000000000000000000000000000000000000000000\n  dup2\n  mstore\n  0x04\n  add\n  tag_14\n  swap1\n  tag_15\n  jump\t// in\ntag_14:\n  mload(0x40)\n  dup1\n  swap2\n  sub\n  swap1\n  revert\ntag_13:\n    /* \"@openzeppelin/contracts/token/ERC20/ERC20.sol\":8718:8767  _beforeTokenTransfer(address(0), account, amount) */\n  tag_16\n    /* \"@openzeppelin/contracts/token/ERC20/ERC20.sol\":8747:8748  0 */\n  0x00\n    /* \"@openzeppelin/contracts/token/ERC20/ERC20.sol\":8751:8758  account */\n  dup4\n    /* \"@openzeppelin/contracts/token/ERC20/ERC20.sol\":8760:8766  amount */\n  dup4\n    /* \"@openzeppelin/contracts/token/ERC20/ERC20.sol\":8718:8738  _beforeTokenTransfer */\n  shl(0x20, tag_17)\n    /* \"@openzeppelin/contracts/token/ERC20/ERC20.sol\":8718:8767  _beforeTokenTransfer(address(0), account, amount) */\n  0x20\n  shr\n  jump\t// in\ntag_16:\n    /* \"@openzeppelin/contracts/token/ERC20/ERC20.sol\":8794:8800  amount */\n  dup1\n    /* \"@openzeppelin/contracts/token/ERC20/ERC20.sol\":8778:8790  _totalSupply */\n  0x02\n  0x00\n    /* \"@openzeppelin/contracts/token/ERC20/ERC20.sol\":8778:8800  _totalSupply += amount */\n  dup3\n  dup3\n  sload\n  tag_18\n  swap2\n  swap1\n  tag_19\n  jump\t// in\ntag_18:\n  swap3\n  pop\n  pop\n  dup2\n  swap1\n  sstore\n  pop\n    /* \"@openzeppelin/contracts/token/ERC20/ERC20.sol\":8968:8974  amount */\n  dup1\n    /* \"@openzeppelin/contracts/token/ERC20/ERC20.sol\":8946:8955  _balances */\n  0x00\n    /* \"@openzeppelin/contracts/token/ERC20/ERC20.sol\":8946:8964  _balances[account] */\n  dup1\n    /* \"@openzeppelin/contracts/token/ERC20/ERC20.sol\":8956:8963  account */\n  dup5\n    /* \"@openzeppelin/contracts/token/ERC20/ERC20.sol\":8946:8964  _balances[account] */\n  0xffffffffffffffffffffffffffffffffffffffff\n  and\n  0xffffffffffffffffffffffffffffffffffffffff\n  and\n  dup2\n  mstore\n  0x20\n  add\n  swap1\n  dup2\n  mstore\n  0x20\n  add\n  0x00\n  keccak256\n  0x00\n    /* \"@openzeppelin/contracts/token/ERC20/ERC20.sol\":8946:8974  _balances[account] += amount */\n  dup3\n  dup3\n  sload\n  add\n  swap3\n  pop\n  pop\n  dup2\n  swap1\n  sstore\n  pop\n    /* \"@openzeppelin/contracts/token/ERC20/ERC20.sol\":9020:9027  account */\n  dup2\n    /* \"@openzeppelin/contracts/token/ERC20/ERC20.sol\":8999:9036  Transfer(address(0), account, amount) */\n  0xffffffffffffffffffffffffffffffffffffffff\n  and\n    /* \"@openzeppelin/contracts/token/ERC20/ERC20.sol\":9016:9017  0 */\n  0x00\n    /* \"@openzeppelin/contracts/token/ERC20/ERC20.sol\":8999:9036  Transfer(address(0), account, amount) */\n  0xffffffffffffffffffffffffffffffffffffffff\n  and\n  0xddf252ad1be2c89b69c2b068fc378daa952ba7f163c4a11628f55a4df523b3ef\n    /* \"@openzeppelin/contracts/token/ERC20/ERC20.sol\":9029:9035  amount */\n  dup4\n    /* \"@openzeppelin/contracts/token/ERC20/ERC20.sol\":8999:9036  Transfer(address(0), account, amount) */\n  mload(0x40)\n  tag_20\n  swap2\n  swap1\n  tag_21\n  jump\t// in\ntag_20:\n  mload(0x40)\n  dup1\n  swap2\n  sub\n  swap1\n  log3\n    /* \"@openzeppelin/contracts/token/ERC20/ERC20.sol\":9047:9095  _afterTokenTransfer(address(0), account, amount) */\n  tag_22\n    /* \"@openzeppelin/contracts/token/ERC20/ERC20.sol\":9075:9076  0 */\n  0x00\n    /* \"@openzeppelin/contracts/token/ERC20/ERC20.sol\":9079:9086  account */\n  dup4\n    /* \"@openzeppelin/contracts/token/ERC20/ERC20.sol\":9088:9094  amount */\n  dup4\n    /* \"@openzeppelin/contracts/token/ERC20/ERC20.sol\":9047:9066  _afterTokenTransfer */\n  shl(0x20, tag_23)\n    /* \"@openzeppelin/contracts/token/ERC20/ERC20.sol\":9047:9095  _afterTokenTransfer(address(0), account, amount) */\n  0x20\n  shr\n  jump\t// in\ntag_22:\n    /* \"@openzeppelin/contracts/token/ERC20/ERC20.sol\":8567:9102  function _mint(address account, uint256 amount) internal virtual {... */\n  pop\n  pop\n  jump\t// out\n    /* \"@openzeppelin/contracts/token/ERC20/ERC20.sol\":12180:12301  function _beforeTokenTransfer(... */\ntag_17:\n  pop\n  pop\n  pop\n  jump\t// out\n    /* \"@openzeppelin/contracts/token/ERC20/ERC20.sol\":12889:13009  function _afterTokenTransfer(... */\ntag_23:\n  pop\n  pop\n  pop\n  jump\t// out\n    /* \"#utility.yul\":7:106   */\ntag_26:\n    /* \"#utility.yul\":59:65   */\n  0x00\n    /* \"#utility.yul\":93:98   */\n  dup2\n    /* \"#utility.yul\":87:99   */\n  mload\n    /* \"#utility.yul\":77:99   */\n  swap1\n  pop\n    /* \"#utility.yul\":7:106   */\n  swap2\n  swap1\n  pop\n  jump\t// out\n    /* \"#utility.yul\":112:292   */\ntag_27:\n    /* \"#utility.yul\":160:237   */\n  0x4e487b7100000000000000000000000000000000000000000000000000000000\n    /* \"#utility.yul\":157:158   */\n  0x00\n    /* \"#utility.yul\":150:238   */\n  mstore\n    /* \"#utility.yul\":257:261   */\n  0x41\n    /* \"#utility.yul\":254:255   */\n  0x04\n    /* \"#utility.yul\":247:262   */\n  mstore\n    /* \"#utility.yul\":281:285   */\n  0x24\n    /* \"#utility.yul\":278:279   */\n  0x00\n    /* \"#utility.yul\":271:286   */\n  revert\n    /* \"#utility.yul\":298:478   */\ntag_28:\n    /* \"#utility.yul\":346:423   */\n  0x4e487b7100000000000000000000000000000000000000000000000000000000\n    /* \"#utility.yul\":343:344   */\n  0x00\n    /* \"#utility.yul\":336:424   */\n  mstore\n    /* \"#utility.yul\":443:447   */\n  0x22\n    /* \"#utility.yul\":440:441   */\n  0x04\n    /* \"#utility.yul\":433:448   */\n  mstore\n    /* \"#utility.yul\":467:471   */\n  0x24\n    /* \"#utility.yul\":464:465   */\n  0x00\n    /* \"#utility.yul\":457:472   */\n  revert\n    /* \"#utility.yul\":484:804   */\ntag_29:\n    /* \"#utility.yul\":528:534   */\n  0x00\n    /* \"#utility.yul\":565:566   */\n  0x02\n    /* \"#utility.yul\":559:563   */\n  dup3\n    /* \"#utility.yul\":555:567   */\n  div\n    /* \"#utility.yul\":545:567   */\n  swap1\n  pop\n    /* \"#utility.yul\":612:613   */\n  0x01\n    /* \"#utility.yul\":606:610   */\n  dup3\n    /* \"#utility.yul\":602:614   */\n  and\n    /* \"#utility.yul\":633:651   */\n  dup1\n    /* \"#utility.yul\":623:704   */\n  tag_56\n  jumpi\n    /* \"#utility.yul\":689:693   */\n  0x7f\n    /* \"#utility.yul\":681:687   */\n  dup3\n    /* \"#utility.yul\":677:694   */\n  and\n    /* \"#utility.yul\":667:694   */\n  swap2\n  pop\n    /* \"#utility.yul\":623:704   */\ntag_56:\n    /* \"#utility.yul\":751:753   */\n  0x20\n    /* \"#utility.yul\":743:749   */\n  dup3\n    /* \"#utility.yul\":740:754   */\n  lt\n    /* \"#utility.yul\":720:738   */\n  dup2\n    /* \"#utility.yul\":717:755   */\n  sub\n    /* \"#utility.yul\":714:798   */\n  tag_57\n  jumpi\n    /* \"#utility.yul\":770:788   */\n  tag_58\n  tag_28\n  jump\t// in\ntag_58:\n    /* \"#utility.yul\":714:798   */\ntag_57:\n    /* \"#utility.yul\":535:804   */\n  pop\n    /* \"#utility.yul\":484:804   */\n  swap2\n  swap1\n  pop\n  jump\t// out\n    /* \"#utility.yul\":810:951   */\ntag_30:\n    /* \"#utility.yul\":859:863   */\n  0x00\n    /* \"#utility.yul\":882:885   */\n  dup2\n    /* \"#utility.yul\":874:885   */\n  swap1\n  pop\n    /* \"#utility.yul\":905:908   */\n  dup2\n    /* \"#utility.yul\":902:903   */\n  0x00\n    /* \"#utility.yul\":895:909   */\n  mstore\n    /* \"#utility.yul\":939:943   */\n  0x20\n    /* \"#utility.yul\":936:937   */\n  0x00\n    /* \"#utility.yul\":926:944   */\n  keccak256\n    /* \"#utility.yul\":918:944   */\n  swap1\n  pop\n    /* \"#utility.yul\":810:951   */\n  swap2\n  swap1\n  pop\n  jump\t// out\n    /* \"#utility.yul\":957:1050   */\ntag_31:\n    /* \"#utility.yul\":994:1000   */\n  0x00\n    /* \"#utility.yul\":1041:1043   */\n  0x20\n    /* \"#utility.yul\":1036:1038   */\n  0x1f\n    /* \"#utility.yul\":1029:1034   */\n  dup4\n    /* \"#utility.yul\":1025:1039   */\n  add\n    /* \"#utility.yul\":1021:1044   */\n  div\n    /* \"#utility.yul\":1011:1044   */\n  swap1\n  pop\n    /* \"#utility.yul\":957:1050   */\n  swap2\n  swap1\n  pop\n  jump\t// out\n    /* \"#utility.yul\":1056:1163   */\ntag_32:\n    /* \"#utility.yul\":1100:1108   */\n  0x00\n    /* \"#utility.yul\":1150:1155   */\n  dup3\n    /* \"#utility.yul\":1144:1148   */\n  dup3\n    /* \"#utility.yul\":1140:1156   */\n  shl\n    /* \"#utility.yul\":1119:1156   */\n  swap1\n  pop\n    /* \"#utility.yul\":1056:1163   */\n  swap3\n  swap2\n  pop\n  pop\n  jump\t// out\n    /* \"#utility.yul\":1169:1562   */\ntag_33:\n    /* \"#utility.yul\":1238:1244   */\n  0x00\n    /* \"#utility.yul\":1288:1289   */\n  0x08\n    /* \"#utility.yul\":1276:1286   */\n  dup4\n    /* \"#utility.yul\":1272:1290   */\n  mul\n    /* \"#utility.yul\":1311:1408   */\n  tag_63\n    /* \"#utility.yul\":1341:1407   */\n  0xffffffffffffffffffffffffffffffffffffffffffffffffffffffffffffffff\n    /* \"#utility.yul\":1330:1339   */\n  dup3\n    /* \"#utility.yul\":1311:1408   */\n  tag_32\n  jump\t// in\ntag_63:\n    /* \"#utility.yul\":1429:1468   */\n  tag_64\n    /* \"#utility.yul\":1459:1467   */\n  dup7\n    /* \"#utility.yul\":1448:1457   */\n  dup4\n    /* \"#utility.yul\":1429:1468   */\n  tag_32\n  jump\t// in\ntag_64:\n    /* \"#utility.yul\":1417:1468   */\n  swap6\n  pop\n    /* \"#utility.yul\":1501:1505   */\n  dup1\n    /* \"#utility.yul\":1497:1506   */\n  not\n    /* \"#utility.yul\":1490:1495   */\n  dup5\n    /* \"#utility.yul\":1486:1507   */\n  and\n    /* \"#utility.yul\":1477:1507   */\n  swap4\n  pop\n    /* \"#utility.yul\":1550:1554   */\n  dup1\n    /* \"#utility.yul\":1540:1548   */\n  dup7\n    /* \"#utility.yul\":1536:1555   */\n  and\n    /* \"#utility.yul\":1529:1534   */\n  dup5\n    /* \"#utility.yul\":1526:1556   */\n  or\n    /* \"#utility.yul\":1516:1556   */\n  swap3\n  pop\n    /* \"#utility.yul\":1245:1562   */\n  pop\n  pop\n    /* \"#utility.yul\":1169:1562   */\n  swap4\n  swap3\n  pop\n  pop\n  pop\n  jump\t// out\n    /* \"#utility.yul\":1568:1645   */\ntag_34:\n    /* \"#utility.yul\":1605:1612   */\n  0x00\n    /* \"#utility.yul\":1634:1639   */\n  dup2\n    /* \"#utility.yul\":1623:1639   */\n  swap1\n  pop\n    /* \"#utility.yul\":1568:1645   */\n  swap2\n  swap1\n  pop\n  jump\t// out\n    /* \"#utility.yul\":1651:1711   */\ntag_35:\n    /* \"#utility.yul\":1679:1682   */\n  0x00\n    /* \"#utility.yul\":1700:1705   */\n  dup2\n    /* \"#utility.yul\":1693:1705   */\n  swap1\n  pop\n    /* \"#utility.yul\":1651:1711   */\n  swap2\n  swap1\n  pop\n  jump\t// out\n    /* \"#utility.yul\":1717:1859   */\ntag_36:\n    /* \"#utility.yul\":1767:1776   */\n  0x00\n    /* \"#utility.yul\":1800:1853   */\n  tag_68\n    /* \"#utility.yul\":1818:1852   */\n  tag_69\n    /* \"#utility.yul\":1827:1851   */\n  tag_70\n    /* \"#utility.yul\":1845:1850   */\n  dup5\n    /* \"#utility.yul\":1827:1851   */\n  tag_34\n  jump\t// in\ntag_70:\n    /* \"#utility.yul\":1818:1852   */\n  tag_35\n  jump\t// in\ntag_69:\n    /* \"#utility.yul\":1800:1853   */\n  tag_34\n  jump\t// in\ntag_68:\n    /* \"#utility.yul\":1787:1853   */\n  swap1\n  pop\n    /* \"#utility.yul\":1717:1859   */\n  swap2\n  swap1\n  pop\n  jump\t// out\n    /* \"#utility.yul\":1865:1940   */\ntag_37:\n    /* \"#utility.yul\":1908:1911   */\n  0x00\n    /* \"#utility.yul\":1929:1934   */\n  dup2\n    /* \"#utility.yul\":1922:1934   */\n  swap1\n  pop\n    /* \"#utility.yul\":1865:1940   */\n  swap2\n  swap1\n  pop\n  jump\t// out\n    /* \"#utility.yul\":1946:2215   */\ntag_38:\n    /* \"#utility.yul\":2056:2095   */\n  tag_73\n    /* \"#utility.yul\":2087:2094   */\n  dup4\n    /* \"#utility.yul\":2056:2095   */\n  tag_36\n  jump\t// in\ntag_73:\n    /* \"#utility.yul\":2117:2208   */\n  tag_74\n    /* \"#utility.yul\":2166:2207   */\n  tag_75\n    /* \"#utility.yul\":2190:2206   */\n  dup3\n    /* \"#utility.yul\":2166:2207   */\n  tag_37\n  jump\t// in\ntag_75:\n    /* \"#utility.yul\":2158:2164   */\n  dup5\n    /* \"#utility.yul\":2151:2155   */\n  dup5\n    /* \"#utility.yul\":2145:2156   */\n  sload\n    /* \"#utility.yul\":2117:2208   */\n  tag_33\n  jump\t// in\ntag_74:\n    /* \"#utility.yul\":2111:2115   */\n  dup3\n    /* \"#utility.yul\":2104:2209   */\n  sstore\n    /* \"#utility.yul\":2022:2215   */\n  pop\n    /* \"#utility.yul\":1946:2215   */\n  pop\n  pop\n  pop\n  jump\t// out\n    /* \"#utility.yul\":2221:2294   */\ntag_39:\n    /* \"#utility.yul\":2266:2269   */\n  0x00\n    /* \"#utility.yul\":2221:2294   */\n  swap1\n  jump\t// out\n    /* \"#utility.yul\":2300:2489   */\ntag_40:\n    /* \"#utility.yul\":2377:2409   */\n  tag_78\n  tag_39\n  jump\t// in\ntag_78:\n    /* \"#utility.yul\":2418:2483   */\n  tag_79\n    /* \"#utility.yul\":2476:2482   */\n  dup2\n    /* \"#utility.yul\":2468:2474   */\n  dup5\n    /* \"#utility.yul\":2462:2466   */\n  dup5\n    /* \"#utility.yul\":2418:2483   */\n  tag_38\n  jump\t// in\ntag_79:\n    /* \"#utility.yul\":2353:2489   */\n  pop\n    /* \"#utility.yul\":2300:2489   */\n  pop\n  pop\n  jump\t// out\n    /* \"#utility.yul\":2495:2681   */\ntag_41:\n    /* \"#utility.yul\":2555:2675   */\ntag_81:\n    /* \"#utility.yul\":2572:2575   */\n  dup2\n    /* \"#utility.yul\":2565:2570   */\n  dup2\n    /* \"#utility.yul\":2562:2576   */\n  lt\n    /* \"#utility.yul\":2555:2675   */\n  iszero\n  tag_83\n  jumpi\n    /* \"#utility.yul\":2626:2665   */\n  tag_84\n    /* \"#utility.yul\":2663:2664   */\n  0x00\n    /* \"#utility.yul\":2656:2661   */\n  dup3\n    /* \"#utility.yul\":2626:2665   */\n  tag_40\n  jump\t// in\ntag_84:\n    /* \"#utility.yul\":2599:2600   */\n  0x01\n    /* \"#utility.yul\":2592:2597   */\n  dup2\n    /* \"#utility.yul\":2588:2601   */\n  add\n    /* \"#utility.yul\":2579:2601   */\n  swap1\n  pop\n    /* \"#utility.yul\":2555:2675   */\n  jump(tag_81)\ntag_83:\n    /* \"#utility.yul\":2495:2681   */\n  pop\n  pop\n  jump\t// out\n    /* \"#utility.yul\":2687:3230   */\ntag_42:\n    /* \"#utility.yul\":2788:2790   */\n  0x1f\n    /* \"#utility.yul\":2783:2786   */\n  dup3\n    /* \"#utility.yul\":2780:2791   */\n  gt\n    /* \"#utility.yul\":2777:3223   */\n  iszero\n  tag_86\n  jumpi\n    /* \"#utility.yul\":2822:2860   */\n  tag_87\n    /* \"#utility.yul\":2854:2859   */\n  dup2\n    /* \"#utility.yul\":2822:2860   */\n  tag_30\n  jump\t// in\ntag_87:\n    /* \"#utility.yul\":2906:2935   */\n  tag_88\n    /* \"#utility.yul\":2924:2934   */\n  dup5\n    /* \"#utility.yul\":2906:2935   */\n  tag_31\n  jump\t// in\ntag_88:\n    /* \"#utility.yul\":2896:2904   */\n  dup2\n    /* \"#utility.yul\":2892:2936   */\n  add\n    /* \"#utility.yul\":3089:3091   */\n  0x20\n    /* \"#utility.yul\":3077:3087   */\n  dup6\n    /* \"#utility.yul\":3074:3092   */\n  lt\n    /* \"#utility.yul\":3071:3120   */\n  iszero\n  tag_89\n  jumpi\n    /* \"#utility.yul\":3110:3118   */\n  dup2\n    /* \"#utility.yul\":3095:3118   */\n  swap1\n  pop\n    /* \"#utility.yul\":3071:3120   */\ntag_89:\n    /* \"#utility.yul\":3133:3213   */\n  tag_90\n    /* \"#utility.yul\":3189:3211   */\n  tag_91\n    /* \"#utility.yul\":3207:3210   */\n  dup6\n    /* \"#utility.yul\":3189:3211   */\n  tag_31\n  jump\t// in\ntag_91:\n    /* \"#utility.yul\":3179:3187   */\n  dup4\n    /* \"#utility.yul\":3175:3212   */\n  add\n    /* \"#utility.yul\":3162:3173   */\n  dup3\n    /* \"#utility.yul\":3133:3213   */\n  tag_41\n  jump\t// in\ntag_90:\n    /* \"#utility.yul\":2792:3223   */\n  pop\n  pop\n    /* \"#utility.yul\":2777:3223   */\ntag_86:\n    /* \"#utility.yul\":2687:3230   */\n  pop\n  pop\n  pop\n  jump\t// out\n    /* \"#utility.yul\":3236:3353   */\ntag_43:\n    /* \"#utility.yul\":3290:3298   */\n  0x00\n    /* \"#utility.yul\":3340:3345   */\n  dup3\n    /* \"#utility.yul\":3334:3338   */\n  dup3\n    /* \"#utility.yul\":3330:3346   */\n  shr\n    /* \"#utility.yul\":3309:3346   */\n  swap1\n  pop\n    /* \"#utility.yul\":3236:3353   */\n  swap3\n  swap2\n  pop\n  pop\n  jump\t// out\n    /* \"#utility.yul\":3359:3528   */\ntag_44:\n    /* \"#utility.yul\":3403:3409   */\n  0x00\n    /* \"#utility.yul\":3436:3487   */\n  tag_94\n    /* \"#utility.yul\":3484:3485   */\n  0x00\n    /* \"#utility.yul\":3480:3486   */\n  not\n    /* \"#utility.yul\":3472:3477   */\n  dup5\n    /* \"#utility.yul\":3469:3470   */\n  0x08\n    /* \"#utility.yul\":3465:3478   */\n  mul\n    /* \"#utility.yul\":3436:3487   */\n  tag_43\n  jump\t// in\ntag_94:\n    /* \"#utility.yul\":3432:3488   */\n  not\n    /* \"#utility.yul\":3517:3521   */\n  dup1\n    /* \"#utility.yul\":3511:3515   */\n  dup4\n    /* \"#utility.yul\":3507:3522   */\n  and\n    /* \"#utility.yul\":3497:3522   */\n  swap2\n  pop\n    /* \"#utility.yul\":3410:3528   */\n  pop\n    /* \"#utility.yul\":3359:3528   */\n  swap3\n  swap2\n  pop\n  pop\n  jump\t// out\n    /* \"#utility.yul\":3533:3828   */\ntag_45:\n    /* \"#utility.yul\":3609:3613   */\n  0x00\n    /* \"#utility.yul\":3755:3784   */\n  tag_96\n    /* \"#utility.yul\":3780:3783   */\n  dup4\n    /* \"#utility.yul\":3774:3778   */\n  dup4\n    /* \"#utility.yul\":3755:3784   */\n  tag_44\n  jump\t// in\ntag_96:\n    /* \"#utility.yul\":3747:3784   */\n  swap2\n  pop\n    /* \"#utility.yul\":3817:3820   */\n  dup3\n    /* \"#utility.yul\":3814:3815   */\n  0x02\n    /* \"#utility.yul\":3810:3821   */\n  mul\n    /* \"#utility.yul\":3804:3808   */\n  dup3\n    /* \"#utility.yul\":3801:3822   */\n  or\n    /* \"#utility.yul\":3793:3822   */\n  swap1\n  pop\n    /* \"#utility.yul\":3533:3828   */\n  swap3\n  swap2\n  pop\n  pop\n  jump\t// out\n    /* \"#utility.yul\":3833:5228   */\ntag_6:\n    /* \"#utility.yul\":3950:3987   */\n  tag_98\n    /* \"#utility.yul\":3983:3986   */\n  dup3\n    /* \"#utility.yul\":3950:3987   */\n  tag_26\n  jump\t// in\ntag_98:\n    /* \"#utility.yul\":4052:4070   */\n  0xffffffffffffffff\n    /* \"#utility.yul\":4044:4050   */\n  dup2\n    /* \"#utility.yul\":4041:4071   */\n  gt\n    /* \"#utility.yul\":4038:4094   */\n  iszero\n  tag_99\n  jumpi\n    /* \"#utility.yul\":4074:4092   */\n  tag_100\n  tag_27\n  jump\t// in\ntag_100:\n    /* \"#utility.yul\":4038:4094   */\ntag_99:\n    /* \"#utility.yul\":4118:4156   */\n  tag_101\n    /* \"#utility.yul\":4150:4154   */\n  dup3\n    /* \"#utility.yul\":4144:4155   */\n  sload\n    /* \"#utility.yul\":4118:4156   */\n  tag_29\n  jump\t// in\ntag_101:\n    /* \"#utility.yul\":4203:4270   */\n  tag_102\n    /* \"#utility.yul\":4263:4269   */\n  dup3\n    /* \"#utility.yul\":4255:4261   */\n  dup3\n    /* \"#utility.yul\":4249:4253   */\n  dup6\n    /* \"#utility.yul\":4203:4270   */\n  tag_42\n  jump\t// in\ntag_102:\n    /* \"#utility.yul\":4297:4298   */\n  0x00\n    /* \"#utility.yul\":4321:4325   */\n  0x20\n    /* \"#utility.yul\":4308:4325   */\n  swap1\n  pop\n    /* \"#utility.yul\":4353:4355   */\n  0x1f\n    /* \"#utility.yul\":4345:4351   */\n  dup4\n    /* \"#utility.yul\":4342:4356   */\n  gt\n    /* \"#utility.yul\":4370:4371   */\n  0x01\n    /* \"#utility.yul\":4365:4983   */\n  dup2\n  eq\n  tag_104\n  jumpi\n    /* \"#utility.yul\":5027:5028   */\n  0x00\n    /* \"#utility.yul\":5044:5050   */\n  dup5\n    /* \"#utility.yul\":5041:5118   */\n  iszero\n  tag_105\n  jumpi\n    /* \"#utility.yul\":5093:5102   */\n  dup3\n    /* \"#utility.yul\":5088:5091   */\n  dup8\n    /* \"#utility.yul\":5084:5103   */\n  add\n    /* \"#utility.yul\":5078:5104   */\n  mload\n    /* \"#utility.yul\":5069:5104   */\n  swap1\n  pop\n    /* \"#utility.yul\":5041:5118   */\ntag_105:\n    /* \"#utility.yul\":5144:5211   */\n  tag_106\n    /* \"#utility.yul\":5204:5210   */\n  dup6\n    /* \"#utility.yul\":5197:5202   */\n  dup3\n    /* \"#utility.yul\":5144:5211   */\n  tag_45\n  jump\t// in\ntag_106:\n    /* \"#utility.yul\":5138:5142   */\n  dup7\n    /* \"#utility.yul\":5131:5212   */\n  sstore\n    /* \"#utility.yul\":5000:5222   */\n  pop\n    /* \"#utility.yul\":4335:5222   */\n  jump(tag_103)\n    /* \"#utility.yul\":4365:4983   */\ntag_104:\n    /* \"#utility.yul\":4417:4421   */\n  0x1f\n    /* \"#utility.yul\":4413:4422   */\n  not\n    /* \"#utility.yul\":4405:4411   */\n  dup5\n    /* \"#utility.yul\":4401:4423   */\n  and\n    /* \"#utility.yul\":4451:4488   */\n  tag_107\n    /* \"#utility.yul\":4483:4487   */\n  dup7\n    /* \"#utility.yul\":4451:4488   */\n  tag_30\n  jump\t// in\ntag_107:\n    /* \"#utility.yul\":4510:4511   */\n  0x00\n    /* \"#utility.yul\":4524:4732   */\ntag_108:\n    /* \"#utility.yul\":4538:4545   */\n  dup3\n    /* \"#utility.yul\":4535:4536   */\n  dup2\n    /* \"#utility.yul\":4532:4546   */\n  lt\n    /* \"#utility.yul\":4524:4732   */\n  iszero\n  tag_110\n  jumpi\n    /* \"#utility.yul\":4617:4626   */\n  dup5\n    /* \"#utility.yul\":4612:4615   */\n  dup10\n    /* \"#utility.yul\":4608:4627   */\n  add\n    /* \"#utility.yul\":4602:4628   */\n  mload\n    /* \"#utility.yul\":4594:4600   */\n  dup3\n    /* \"#utility.yul\":4587:4629   */\n  sstore\n    /* \"#utility.yul\":4668:4669   */\n  0x01\n    /* \"#utility.yul\":4660:4666   */\n  dup3\n    /* \"#utility.yul\":4656:4670   */\n  add\n    /* \"#utility.yul\":4646:4670   */\n  swap2\n  pop\n    /* \"#utility.yul\":4715:4717   */\n  0x20\n    /* \"#utility.yul\":4704:4713   */\n  dup6\n    /* \"#utility.yul\":4700:4718   */\n  add\n    /* \"#utility.yul\":4687:4718   */\n  swap5\n  pop\n    /* \"#utility.yul\":4561:4565   */\n  0x20\n    /* \"#utility.yul\":4558:4559   */\n  dup2\n    /* \"#utility.yul\":4554:4566   */\n  add\n    /* \"#utility.yul\":4549:4566   */\n  swap1\n  pop\n    /* \"#utility.yul\":4524:4732   */\n  jump(tag_108)\ntag_110:\n    /* \"#utility.yul\":4760:4766   */\n  dup7\n    /* \"#utility.yul\":4751:4758   */\n  dup4\n    /* \"#utility.yul\":4748:4767   */\n  lt\n    /* \"#utility.yul\":4745:4924   */\n  iszero\n  tag_111\n  jumpi\n    /* \"#utility.yul\":4818:4827   */\n  dup5\n    /* \"#utility.yul\":4813:4816   */\n  dup10\n    /* \"#utility.yul\":4809:4828   */\n  add\n    /* \"#utility.yul\":4803:4829   */\n  mload\n    /* \"#utility.yul\":4861:4909   */\n  tag_112\n    /* \"#utility.yul\":4903:4907   */\n  0x1f\n    /* \"#utility.yul\":4895:4901   */\n  dup10\n    /* \"#utility.yul\":4891:4908   */\n  and\n    /* \"#utility.yul\":4880:4889   */\n  dup3\n    /* \"#utility.yul\":4861:4909   */\n  tag_44\n  jump\t// in\ntag_112:\n    /* \"#utility.yul\":4853:4859   */\n  dup4\n    /* \"#utility.yul\":4846:4910   */\n  sstore\n    /* \"#utility.yul\":4768:4924   */\n  pop\n    /* \"#utility.yul\":4745:4924   */\ntag_111:\n    /* \"#utility.yul\":4970:4971   */\n  0x01\n    /* \"#utility.yul\":4966:4967   */\n  0x02\n    /* \"#utility.yul\":4958:4964   */\n  dup9\n    /* \"#utility.yul\":4954:4968   */\n  mul\n    /* \"#utility.yul\":4950:4972   */\n  add\n    /* \"#utility.yul\":4944:4948   */\n  dup9\n    /* \"#utility.yul\":4937:4973   */\n  sstore\n    /* \"#utility.yul\":4372:4983   */\n  pop\n  pop\n  pop\n    /* \"#utility.yul\":4335:5222   */\ntag_103:\n  pop\n    /* \"#utility.yul\":3925:5228   */\n  pop\n  pop\n  pop\n    /* \"#utility.yul\":3833:5228   */\n  pop\n  pop\n  jump\t// out\n    /* \"#utility.yul\":5234:5403   */\ntag_46:\n    /* \"#utility.yul\":5318:5329   */\n  0x00\n    /* \"#utility.yul\":5352:5358   */\n  dup3\n    /* \"#utility.yul\":5347:5350   */\n  dup3\n    /* \"#utility.yul\":5340:5359   */\n  mstore\n    /* \"#utility.yul\":5392:5396   */\n  0x20\n    /* \"#utility.yul\":5387:5390   */\n  dup3\n    /* \"#utility.yul\":5383:5397   */\n  add\n    /* \"#utility.yul\":5368:5397   */\n  swap1\n  pop\n    /* \"#utility.yul\":5234:5403   */\n  swap3\n  swap2\n  pop\n  pop\n  jump\t// out\n    /* \"#utility.yul\":5409:5590   */\ntag_47:\n    /* \"#utility.yul\":5549:5582   */\n  0x45524332303a206d696e7420746f20746865207a65726f206164647265737300\n    /* \"#utility.yul\":5545:5546   */\n  0x00\n    /* \"#utility.yul\":5537:5543   */\n  dup3\n    /* \"#utility.yul\":5533:5547   */\n  add\n    /* \"#utility.yul\":5526:5583   */\n  mstore\n    /* \"#utility.yul\":5409:5590   */\n  pop\n  jump\t// out\n    /* \"#utility.yul\":5596:5962   */\ntag_48:\n    /* \"#utility.yul\":5738:5741   */\n  0x00\n    /* \"#utility.yul\":5759:5826   */\n  tag_116\n    /* \"#utility.yul\":5823:5825   */\n  0x1f\n    /* \"#utility.yul\":5818:5821   */\n  dup4\n    /* \"#utility.yul\":5759:5826   */\n  tag_46\n  jump\t// in\ntag_116:\n    /* \"#utility.yul\":5752:5826   */\n  swap2\n  pop\n    /* \"#utility.yul\":5835:5928   */\n  tag_117\n    /* \"#utility.yul\":5924:5927   */\n  dup3\n    /* \"#utility.yul\":5835:5928   */\n  tag_47\n  jump\t// in\ntag_117:\n    /* \"#utility.yul\":5953:5955   */\n  0x20\n    /* \"#utility.yul\":5948:5951   */\n  dup3\n    /* \"#utility.yul\":5944:5956   */\n  add\n    /* \"#utility.yul\":5937:5956   */\n  swap1\n  pop\n    /* \"#utility.yul\":5596:5962   */\n  swap2\n  swap1\n  pop\n  jump\t// out\n    /* \"#utility.yul\":5968:6387   */\ntag_15:\n    /* \"#utility.yul\":6134:6138   */\n  0x00\n    /* \"#utility.yul\":6172:6174   */\n  0x20\n    /* \"#utility.yul\":6161:6170   */\n  dup3\n    /* \"#utility.yul\":6157:6175   */\n  add\n    /* \"#utility.yul\":6149:6175   */\n  swap1\n  pop\n    /* \"#utility.yul\":6221:6230   */\n  dup2\n    /* \"#utility.yul\":6215:6219   */\n  dup2\n    /* \"#utility.yul\":6211:6231   */\n  sub\n    /* \"#utility.yul\":6207:6208   */\n  0x00\n    /* \"#utility.yul\":6196:6205   */\n  dup4\n    /* \"#utility.yul\":6192:6209   */\n  add\n    /* \"#utility.yul\":6185:6232   */\n  mstore\n    /* \"#utility.yul\":6249:6380   */\n  tag_119\n    /* \"#utility.yul\":6375:6379   */\n  dup2\n    /* \"#utility.yul\":6249:6380   */\n  tag_48\n  jump\t// in\ntag_119:\n    /* \"#utility.yul\":6241:6380   */\n  swap1\n  pop\n    /* \"#utility.yul\":5968:6387   */\n  swap2\n  swap1\n  pop\n  jump\t// out\n    /* \"#utility.yul\":6393:6573   */\ntag_49:\n    /* \"#utility.yul\":6441:6518   */\n  0x4e487b7100000000000000000000000000000000000000000000000000000000\n    /* \"#utility.yul\":6438:6439   */\n  0x00\n    /* \"#utility.yul\":6431:6519   */\n  mstore\n    /* \"#utility.yul\":6538:6542   */\n  0x11\n    /* \"#utility.yul\":6535:6536   */\n  0x04\n    /* \"#utility.yul\":6528:6543   */\n  mstore\n    /* \"#utility.yul\":6562:6566   */\n  0x24\n    /* \"#utility.yul\":6559:6560   */\n  0x00\n    /* \"#utility.yul\":6552:6567   */\n  revert\n    /* \"#utility.yul\":6579:6770   */\ntag_19:\n    /* \"#utility.yul\":6619:6622   */\n  0x00\n    /* \"#utility.yul\":6638:6658   */\n  tag_122\n    /* \"#utility.yul\":6656:6657   */\n  dup3\n    /* \"#utility.yul\":6638:6658   */\n  tag_34\n  jump\t// in\ntag_122:\n    /* \"#utility.yul\":6633:6658   */\n  swap2\n  pop\n    /* \"#utility.yul\":6672:6692   */\n  tag_123\n    /* \"#utility.yul\":6690:6691   */\n  dup4\n    /* \"#utility.yul\":6672:6692   */\n  tag_34\n  jump\t// in\ntag_123:\n    /* \"#utility.yul\":6667:6692   */\n  swap3\n  pop\n    /* \"#utility.yul\":6715:6716   */\n  dup3\n    /* \"#utility.yul\":6712:6713   */\n  dup3\n    /* \"#utility.yul\":6708:6717   */\n  add\n    /* \"#utility.yul\":6701:6717   */\n  swap1\n  pop\n    /* \"#utility.yul\":6736:6739   */\n  dup1\n    /* \"#utility.yul\":6733:6734   */\n  dup3\n    /* \"#utility.yul\":6730:6740   */\n  gt\n    /* \"#utility.yul\":6727:6763   */\n  iszero\n  tag_124\n  jumpi\n    /* \"#utility.yul\":6743:6761   */\n  tag_125\n  tag_49\n  jump\t// in\ntag_125:\n    /* \"#utility.yul\":6727:6763   */\ntag_124:\n    /* \"#utility.yul\":6579:6770   */\n  swap3\n  swap2\n  pop\n  pop\n  jump\t// out\n    /* \"#utility.yul\":6776:6894   */\ntag_50:\n    /* \"#utility.yul\":6863:6887   */\n  tag_127\n    /* \"#utility.yul\":6881:6886   */\n  dup2\n    /* \"#utility.yul\":6863:6887   */\n  tag_34\n  jump\t// in\ntag_127:\n    /* \"#utility.yul\":6858:6861   */\n  dup3\n    /* \"#utility.yul\":6851:6888   */\n  mstore\n    /* \"#utility.yul\":6776:6894   */\n  pop\n  pop\n  jump\t// out\n    /* \"#utility.yul\":6900:7122   */\ntag_21:\n    /* \"#utility.yul\":6993:6997   */\n  0x00\n    /* \"#utility.yul\":7031:7033   */\n  0x20\n    /* \"#utility.yul\":7020:7029   */\n  dup3\n    /* \"#utility.yul\":7016:7034   */\n  add\n    /* \"#utility.yul\":7008:7034   */\n  swap1\n  pop\n    /* \"#utility.yul\":7044:7115   */\n  tag_129\n    /* \"#utility.yul\":7112:7113   */\n  0x00\n    /* \"#utility.yul\":7101:7110   */\n  dup4\n    /* \"#utility.yul\":7097:7114   */\n  add\n    /* \"#utility.yul\":7088:7094   */\n  dup5\n    /* \"#utility.yul\":7044:7115   */\n  tag_50\n  jump\t// in\ntag_129:\n    /* \"#utility.yul\":6900:7122   */\n  swap3\n  swap2\n  pop\n  pop\n  jump\t// out\n    /* \"decentralized_finance.sol\":176:4865  contract DecentralizedFinance is ERC20{... */\ntag_11:\n  dataSize(sub_0)\n  dup1\n  dataOffset(sub_0)\n  0x00\n  codecopy\n  0x00\n  return\nstop\n\nsub_0: assembly {\n        /* \"decentralized_finance.sol\":176:4865  contract DecentralizedFinance is ERC20{... */\n      mstore(0x40, 0x80)\n      jumpi(tag_1, lt(calldatasize, 0x04))\n      shr(0xe0, calldataload(0x00))\n      dup1\n      0x918f7afe\n      gt\n      tag_26\n      jumpi\n      dup1\n      0xe1ec3c68\n      gt\n      tag_27\n      jumpi\n      dup1\n      0xe1ec3c68\n      eq\n      tag_20\n      jumpi\n      dup1\n      0xe9126154\n      eq\n      tag_21\n      jumpi\n      dup1\n      0xed344f02\n      eq\n      tag_22\n      jumpi\n      dup1\n      0xef71c26a\n      eq\n      tag_23\n      jumpi\n      dup1\n      0xf3c3c580\n      eq\n      tag_24\n      jumpi\n      dup1\n      0xf83e48cb\n      eq\n      tag_25\n      jumpi\n      jump(tag_1)\n    tag_27:\n      dup1\n      0x918f7afe\n      eq\n      tag_14\n      jumpi\n      dup1\n      0x95d89b41\n      eq\n      tag_15\n      jumpi\n      dup1\n      0xa457c2d7\n      eq\n      tag_16\n      jumpi\n      dup1\n      0xa9059cbb\n      eq\n      tag_17\n      jumpi\n      dup1\n      0xaa7db8c8\n      eq\n      tag_18\n      jumpi\n      dup1\n      0xdd62ed3e\n      eq\n      tag_19\n      jumpi\n      jump(tag_1)\n    tag_26:\n      dup1\n      0x2941c500\n      gt\n      tag_28\n      jumpi\n      dup1\n      0x2941c500\n      eq\n      tag_8\n      jumpi\n      dup1\n      0x2e413662\n      eq\n      tag_9\n      jumpi\n      dup1\n      0x313ce567\n      eq\n      tag_10\n      jumpi\n      dup1\n      0x39509351\n      eq\n      tag_11\n      jumpi\n      dup1\n      0x70a08231\n      eq\n      tag_12\n      jumpi\n      dup1\n      0x756c1741\n      eq\n      tag_13\n      jumpi\n      jump(tag_1)\n    tag_28:\n      dup1\n      0x05fec2ed\n      eq\n      tag_2\n      jumpi\n      dup1\n      0x06fdde03\n      eq\n      tag_3\n      jumpi\n      dup1\n      0x095ea7b3\n      eq\n      tag_4\n      jumpi\n      dup1\n      0x18160ddd\n      eq\n      tag_5\n      jumpi\n      dup1\n      0x191622ff\n      eq\n      tag_6\n      jumpi\n      dup1\n      0x23b872dd\n      eq\n      tag_7\n      jumpi\n    tag_1:\n      0x00\n      dup1\n      revert\n        /* \"decentralized_finance.sol\":3251:3371  function setRateEthToDex(uint256 rate) external {... */\n    tag_2:\n      callvalue\n      dup1\n      iszero\n      tag_29\n      jumpi\n      0x00\n      dup1\n      revert\n    tag_29:\n      pop\n      tag_30\n      0x04\n      dup1\n      calldatasize\n      sub\n      dup2\n      add\n      swap1\n      tag_31\n      swap2\n      swap1\n      tag_32\n      jump\t// in\n    tag_31:\n      tag_33\n      jump\t// in\n    tag_30:\n      stop\n        /* \"@openzeppelin/contracts/token/ERC20/ERC20.sol\":2154:2252  function name() public view virtual override returns (string memory) {... */\n    tag_3:\n      callvalue\n      dup1\n      iszero\n      tag_34\n      jumpi\n      0x00\n      dup1\n      revert\n    tag_34:\n      pop\n      tag_35\n      tag_36\n      jump\t// in\n    tag_35:\n      mload(0x40)\n      tag_37\n      swap2\n      swap1\n      tag_38\n      jump\t// in\n    tag_37:\n      mload(0x40)\n      dup1\n      swap2\n      sub\n      swap1\n      return\n        /* \"@openzeppelin/contracts/token/ERC20/ERC20.sol\":4431:4628  function approve(address spender, uint256 amount) public virtual override returns (bool) {... */\n    tag_4:\n      callvalue\n      dup1\n      iszero\n      tag_39\n      jumpi\n      0x00\n      dup1\n      revert\n    tag_39:\n      pop\n      tag_40\n      0x04\n      dup1\n      calldatasize\n      sub\n      dup2\n      add\n      swap1\n      tag_41\n      swap2\n      swap1\n      tag_42\n      jump\t// in\n    tag_41:\n      tag_43\n      jump\t// in\n    tag_40:\n      mload(0x40)\n      tag_44\n      swap2\n      swap1\n      tag_45\n      jump\t// in\n    tag_44:\n      mload(0x40)\n      dup1\n      swap2\n      sub\n      swap1\n      return\n        /* \"@openzeppelin/contracts/token/ERC20/ERC20.sol\":3242:3348  function totalSupply() public view virtual override returns (uint256) {... */\n    tag_5:\n      callvalue\n      dup1\n      iszero\n      tag_46\n      jumpi\n      0x00\n      dup1\n      revert\n    tag_46:\n      pop\n      tag_47\n      tag_48\n      jump\t// in\n    tag_47:\n      mload(0x40)\n      tag_49\n      swap2\n      swap1\n      tag_50\n      jump\t// in\n    tag_49:\n      mload(0x40)\n      dup1\n      swap2\n      sub\n      swap1\n      return\n        /* \"decentralized_finance.sol\":3377:3470  function getDex() public view returns (uint256) {... */\n    tag_6:\n      callvalue\n      dup1\n      iszero\n      tag_51\n      jumpi\n      0x00\n      dup1\n      revert\n    tag_51:\n      pop\n      tag_52\n      tag_53\n      jump\t// in\n    tag_52:\n      mload(0x40)\n      tag_54\n      swap2\n      swap1\n      tag_50\n      jump\t// in\n    tag_54:\n      mload(0x40)\n      dup1\n      swap2\n      sub\n      swap1\n      return\n        /* \"@openzeppelin/contracts/token/ERC20/ERC20.sol\":5190:5476  function transferFrom(... */\n    tag_7:\n      callvalue\n      dup1\n      iszero\n      tag_55\n      jumpi\n      0x00\n      dup1\n      revert\n    tag_55:\n      pop\n      tag_56\n      0x04\n      dup1\n      calldatasize\n      sub\n      dup2\n      add\n      swap1\n      tag_57\n      swap2\n      swap1\n      tag_58\n      jump\t// in\n    tag_57:\n      tag_59\n      jump\t// in\n    tag_56:\n      mload(0x40)\n      tag_60\n      swap2\n      swap1\n      tag_45\n      jump\t// in\n    tag_60:\n      mload(0x40)\n      dup1\n      swap2\n      sub\n      swap1\n      return\n        /* \"decentralized_finance.sol\":3476:3628  function makeLoanRequestByNft(IERC721 nftContract, uint256 nftId, uint256 loanAmount, uint256 deadline) external {... */\n    tag_8:\n      callvalue\n      dup1\n      iszero\n      tag_61\n      jumpi\n      0x00\n      dup1\n      revert\n    tag_61:\n      pop\n      tag_62\n      0x04\n      dup1\n      calldatasize\n      sub\n      dup2\n      add\n      swap1\n      tag_63\n      swap2\n      swap1\n      tag_64\n      jump\t// in\n    tag_63:\n      tag_65\n      jump\t// in\n    tag_62:\n      stop\n        /* \"decentralized_finance.sol\":3756:3922  function loanByNft(IERC721 nftContract, uint256 nftId) external {... */\n    tag_9:\n      callvalue\n      dup1\n      iszero\n      tag_66\n      jumpi\n      0x00\n      dup1\n      revert\n    tag_66:\n      pop\n      tag_67\n      0x04\n      dup1\n      calldatasize\n      sub\n      dup2\n      add\n      swap1\n      tag_68\n      swap2\n      swap1\n      tag_69\n      jump\t// in\n    tag_68:\n      tag_70\n      jump\t// in\n    tag_67:\n      stop\n        /* \"@openzeppelin/contracts/token/ERC20/ERC20.sol\":3091:3182  function decimals() public view virtual override returns (uint8) {... */\n    tag_10:\n      callvalue\n      dup1\n      iszero\n      tag_71\n      jumpi\n      0x00\n      dup1\n      revert\n    tag_71:\n      pop\n      tag_72\n      tag_73\n      jump\t// in\n    tag_72:\n      mload(0x40)\n      tag_74\n      swap2\n      swap1\n      tag_75\n      jump\t// in\n    tag_74:\n      mload(0x40)\n      dup1\n      swap2\n      sub\n      swap1\n      return\n        /* \"@openzeppelin/contracts/token/ERC20/ERC20.sol\":5871:6105  function increaseAllowance(address spender, uint256 addedValue) public virtual returns (bool) {... */\n    tag_11:\n      callvalue\n      dup1\n      iszero\n      tag_76\n      jumpi\n      0x00\n      dup1\n      revert\n    tag_76:\n      pop\n      tag_77\n      0x04\n      dup1\n      calldatasize\n      sub\n      dup2\n      add\n      swap1\n      tag_78\n      swap2\n      swap1\n      tag_42\n      jump\t// in\n    tag_78:\n      tag_79\n      jump\t// in\n    tag_77:\n      mload(0x40)\n      tag_80\n      swap2\n      swap1\n      tag_45\n      jump\t// in\n    tag_80:\n      mload(0x40)\n      dup1\n      swap2\n      sub\n      swap1\n      return\n        /* \"@openzeppelin/contracts/token/ERC20/ERC20.sol\":3406:3531  function balanceOf(address account) public view virtual override returns (uint256) {... */\n    tag_12:\n      callvalue\n      dup1\n      iszero\n      tag_81\n      jumpi\n      0x00\n      dup1\n      revert\n    tag_81:\n      pop\n      tag_82\n      0x04\n      dup1\n      calldatasize\n      sub\n      dup2\n      add\n      swap1\n      tag_83\n      swap2\n      swap1\n      tag_84\n      jump\t// in\n    tag_83:\n      tag_85\n      jump\t// in\n    tag_82:\n      mload(0x40)\n      tag_86\n      swap2\n      swap1\n      tag_50\n      jump\t// in\n    tag_86:\n      mload(0x40)\n      dup1\n      swap2\n      sub\n      swap1\n      return\n        /* \"decentralized_finance.sol\":1263:1572  function sellDex(uint256 dexAmount) external {... */\n    tag_13:\n      callvalue\n      dup1\n      iszero\n      tag_87\n      jumpi\n      0x00\n      dup1\n      revert\n    tag_87:\n      pop\n      tag_88\n      0x04\n      dup1\n      calldatasize\n      sub\n      dup2\n      add\n      swap1\n      tag_89\n      swap2\n      swap1\n      tag_32\n      jump\t// in\n    tag_89:\n      tag_90\n      jump\t// in\n    tag_88:\n      stop\n        /* \"decentralized_finance.sol\":650:703  mapping(address => uint256) public numTokensPerWallet */\n    tag_14:\n      callvalue\n      dup1\n      iszero\n      tag_91\n      jumpi\n      0x00\n      dup1\n      revert\n    tag_91:\n      pop\n      tag_92\n      0x04\n      dup1\n      calldatasize\n      sub\n      dup2\n      add\n      swap1\n      tag_93\n      swap2\n      swap1\n      tag_84\n      jump\t// in\n    tag_93:\n      tag_94\n      jump\t// in\n    tag_92:\n      mload(0x40)\n      tag_95\n      swap2\n      swap1\n      tag_50\n      jump\t// in\n    tag_95:\n      mload(0x40)\n      dup1\n      swap2\n      sub\n      swap1\n      return\n        /* \"@openzeppelin/contracts/token/ERC20/ERC20.sol\":2365:2467  function symbol() public view virtual override returns (string memory) {... */\n    tag_15:\n      callvalue\n      dup1\n      iszero\n      tag_96\n      jumpi\n      0x00\n      dup1\n      revert\n    tag_96:\n      pop\n      tag_97\n      tag_98\n      jump\t// in\n    tag_97:\n      mload(0x40)\n      tag_99\n      swap2\n      swap1\n      tag_38\n      jump\t// in\n    tag_99:\n      mload(0x40)\n      dup1\n      swap2\n      sub\n      swap1\n      return\n        /* \"@openzeppelin/contracts/token/ERC20/ERC20.sol\":6592:7019  function decreaseAllowance(address spender, uint256 subtractedValue) public virtual returns (bool) {... */\n    tag_16:\n      callvalue\n      dup1\n      iszero\n      tag_100\n      jumpi\n      0x00\n      dup1\n      revert\n    tag_100:\n      pop\n      tag_101\n      0x04\n      dup1\n      calldatasize\n      sub\n      dup2\n      add\n      swap1\n      tag_102\n      swap2\n      swap1\n      tag_42\n      jump\t// in\n    tag_102:\n      tag_103\n      jump\t// in\n    tag_101:\n      mload(0x40)\n      tag_104\n      swap2\n      swap1\n      tag_45\n      jump\t// in\n    tag_104:\n      mload(0x40)\n      dup1\n      swap2\n      sub\n      swap1\n      return\n        /* \"@openzeppelin/contracts/token/ERC20/ERC20.sol\":3727:3916  function transfer(address to, uint256 amount) public virtual override returns (bool) {... */\n    tag_17:\n      callvalue\n      dup1\n      iszero\n      tag_105\n      jumpi\n      0x00\n      dup1\n      revert\n    tag_105:\n      pop\n      tag_106\n      0x04\n      dup1\n      calldatasize\n      sub\n      dup2\n      add\n      swap1\n      tag_107\n      swap2\n      swap1\n      tag_42\n      jump\t// in\n    tag_107:\n      tag_108\n      jump\t// in\n    tag_106:\n      mload(0x40)\n      tag_109\n      swap2\n      swap1\n      tag_45\n      jump\t// in\n    tag_109:\n      mload(0x40)\n      dup1\n      swap2\n      sub\n      swap1\n      return\n        /* \"decentralized_finance.sol\":3634:3750  function cancelLoanRequestByNft(IERC721 nftContract, uint256 nftId) external {... */\n    tag_18:\n      callvalue\n      dup1\n      iszero\n      tag_110\n      jumpi\n      0x00\n      dup1\n      revert\n    tag_110:\n      pop\n      tag_111\n      0x04\n      dup1\n      calldatasize\n      sub\n      dup2\n      add\n      swap1\n      tag_112\n      swap2\n      swap1\n      tag_69\n      jump\t// in\n    tag_112:\n      tag_113\n      jump\t// in\n    tag_111:\n      stop\n        /* \"@openzeppelin/contracts/token/ERC20/ERC20.sol\":3974:4123  function allowance(address owner, address spender) public view virtual override returns (uint256) {... */\n    tag_19:\n      callvalue\n      dup1\n      iszero\n      tag_114\n      jumpi\n      0x00\n      dup1\n      revert\n    tag_114:\n      pop\n      tag_115\n      0x04\n      dup1\n      calldatasize\n      sub\n      dup2\n      add\n      swap1\n      tag_116\n      swap2\n      swap1\n      tag_117\n      jump\t// in\n    tag_116:\n      tag_118\n      jump\t// in\n    tag_115:\n      mload(0x40)\n      tag_119\n      swap2\n      swap1\n      tag_50\n      jump\t// in\n    tag_119:\n      mload(0x40)\n      dup1\n      swap2\n      sub\n      swap1\n      return\n        /* \"decentralized_finance.sol\":607:644  mapping(uint256 => Loan) public loans */\n    tag_20:\n      callvalue\n      dup1\n      iszero\n      tag_120\n      jumpi\n      0x00\n      dup1\n      revert\n    tag_120:\n      pop\n      tag_121\n      0x04\n      dup1\n      calldatasize\n      sub\n      dup2\n      add\n      swap1\n      tag_122\n      swap2\n      swap1\n      tag_32\n      jump\t// in\n    tag_122:\n      tag_123\n      jump\t// in\n    tag_121:\n      mload(0x40)\n      tag_124\n      swap9\n      swap8\n      swap7\n      swap6\n      swap5\n      swap4\n      swap3\n      swap2\n      swap1\n      tag_125\n      jump\t// in\n    tag_124:\n      mload(0x40)\n      dup1\n      swap2\n      sub\n      swap1\n      return\n        /* \"decentralized_finance.sol\":2428:3135  function returnLoan(uint256 loanId) external payable {... */\n    tag_21:\n      tag_126\n      0x04\n      dup1\n      calldatasize\n      sub\n      dup2\n      add\n      swap1\n      tag_127\n      swap2\n      swap1\n      tag_32\n      jump\t// in\n    tag_127:\n      tag_128\n      jump\t// in\n    tag_126:\n      stop\n        /* \"decentralized_finance.sol\":3928:4863  function checkLoan(uint256 loanId) external {... */\n    tag_22:\n      callvalue\n      dup1\n      iszero\n      tag_129\n      jumpi\n      0x00\n      dup1\n      revert\n    tag_129:\n      pop\n      tag_130\n      0x04\n      dup1\n      calldatasize\n      sub\n      dup2\n      add\n      swap1\n      tag_131\n      swap2\n      swap1\n      tag_32\n      jump\t// in\n    tag_131:\n      tag_132\n      jump\t// in\n    tag_130:\n      stop\n        /* \"decentralized_finance.sol\":3141:3245  function getEthTotalBalance() public view returns (uint256) {... */\n    tag_23:\n      callvalue\n      dup1\n      iszero\n      tag_133\n      jumpi\n      0x00\n      dup1\n      revert\n    tag_133:\n      pop\n      tag_134\n      tag_135\n      jump\t// in\n    tag_134:\n      mload(0x40)\n      tag_136\n      swap2\n      swap1\n      tag_50\n      jump\t// in\n    tag_136:\n      mload(0x40)\n      dup1\n      swap2\n      sub\n      swap1\n      return\n        /* \"decentralized_finance.sol\":1031:1257  function buyDex() external payable {... */\n    tag_24:\n      tag_137\n      tag_138\n      jump\t// in\n    tag_137:\n      stop\n        /* \"decentralized_finance.sol\":1578:2422  function loan(uint256 dexAmount, uint256 deadline) external {... */\n    tag_25:\n      callvalue\n      dup1\n      iszero\n      tag_139\n      jumpi\n      0x00\n      dup1\n      revert\n    tag_139:\n      pop\n      tag_140\n      0x04\n      dup1\n      calldatasize\n      sub\n      dup2\n      add\n      swap1\n      tag_141\n      swap2\n      swap1\n      tag_142\n      jump\t// in\n    tag_141:\n      tag_143\n      jump\t// in\n    tag_140:\n      stop\n        /* \"decentralized_finance.sol\":3251:3371  function setRateEthToDex(uint256 rate) external {... */\n    tag_33:\n        /* \"decentralized_finance.sol\":3329:3334  owner */\n      0x05\n      0x00\n      swap1\n      sload\n      swap1\n      0x0100\n      exp\n      swap1\n      div\n      0xffffffffffffffffffffffffffffffffffffffff\n      and\n        /* \"decentralized_finance.sol\":3317:3334  msg.sender==owner */\n      0xffffffffffffffffffffffffffffffffffffffff\n      and\n        /* \"decentralized_finance.sol\":3317:3327  msg.sender */\n      caller\n        /* \"decentralized_finance.sol\":3317:3334  msg.sender==owner */\n      0xffffffffffffffffffffffffffffffffffffffff\n      and\n      eq\n        /* \"decentralized_finance.sol\":3309:3335  require(msg.sender==owner) */\n      tag_145\n      jumpi\n      0x00\n      dup1\n      revert\n    tag_145:\n        /* \"decentralized_finance.sol\":3360:3364  rate */\n      dup1\n        /* \"decentralized_finance.sol\":3345:3357  rateWEItoDEX */\n      0x06\n        /* \"decentralized_finance.sol\":3345:3364  rateWEItoDEX = rate */\n      dup2\n      swap1\n      sstore\n      pop\n        /* \"decentralized_finance.sol\":3251:3371  function setRateEthToDex(uint256 rate) external {... */\n      pop\n      jump\t// out\n        /* \"@openzeppelin/contracts/token/ERC20/ERC20.sol\":2154:2252  function name() public view virtual override returns (string memory) {... */\n    tag_36:\n        /* \"@openzeppelin/contracts/token/ERC20/ERC20.sol\":2208:2221  string memory */\n      0x60\n        /* \"@openzeppelin/contracts/token/ERC20/ERC20.sol\":2240:2245  _name */\n      0x03\n        /* \"@openzeppelin/contracts/token/ERC20/ERC20.sol\":2233:2245  return _name */\n      dup1\n      sload\n      tag_147\n      swap1\n      tag_148\n      jump\t// in\n    tag_147:\n      dup1\n      0x1f\n      add\n      0x20\n      dup1\n      swap2\n      div\n      mul\n      0x20\n      add\n      mload(0x40)\n      swap1\n      dup2\n      add\n      0x40\n      mstore\n      dup1\n      swap3\n      swap2\n      swap1\n      dup2\n      dup2\n      mstore\n      0x20\n      add\n      dup3\n      dup1\n      sload\n      tag_149\n      swap1\n      tag_148\n      jump\t// in\n    tag_149:\n      dup1\n      iszero\n      tag_150\n      jumpi\n      dup1\n      0x1f\n      lt\n      tag_151\n      jumpi\n      0x0100\n      dup1\n      dup4\n      sload\n      div\n      mul\n      dup4\n      mstore\n      swap2\n      0x20\n      add\n      swap2\n      jump(tag_150)\n    tag_151:\n      dup3\n      add\n      swap2\n      swap1\n      0x00\n      mstore\n      keccak256(0x00, 0x20)\n      swap1\n    tag_152:\n      dup2\n      sload\n      dup2\n      mstore\n      swap1\n      0x01\n      add\n      swap1\n      0x20\n      add\n      dup1\n      dup4\n      gt\n      tag_152\n      jumpi\n      dup3\n      swap1\n      sub\n      0x1f\n      and\n      dup3\n      add\n      swap2\n    tag_150:\n      pop\n      pop\n      pop\n      pop\n      pop\n      swap1\n      pop\n        /* \"@openzeppelin/contracts/token/ERC20/ERC20.sol\":2154:2252  function name() public view virtual override returns (string memory) {... */\n      swap1\n      jump\t// out\n        /* \"@openzeppelin/contracts/token/ERC20/ERC20.sol\":4431:4628  function approve(address spender, uint256 amount) public virtual override returns (bool) {... */\n    tag_43:\n        /* \"@openzeppelin/contracts/token/ERC20/ERC20.sol\":4514:4518  bool */\n      0x00\n        /* \"@openzeppelin/contracts/token/ERC20/ERC20.sol\":4530:4543  address owner */\n      dup1\n        /* \"@openzeppelin/contracts/token/ERC20/ERC20.sol\":4546:4558  _msgSender() */\n      tag_154\n        /* \"@openzeppelin/contracts/token/ERC20/ERC20.sol\":4546:4556  _msgSender */\n      tag_155\n        /* \"@openzeppelin/contracts/token/ERC20/ERC20.sol\":4546:4558  _msgSender() */\n      jump\t// in\n    tag_154:\n        /* \"@openzeppelin/contracts/token/ERC20/ERC20.sol\":4530:4558  address owner = _msgSender() */\n      swap1\n      pop\n        /* \"@openzeppelin/contracts/token/ERC20/ERC20.sol\":4568:4600  _approve(owner, spender, amount) */\n      tag_156\n        /* \"@openzeppelin/contracts/token/ERC20/ERC20.sol\":4577:4582  owner */\n      dup2\n        /* \"@openzeppelin/contracts/token/ERC20/ERC20.sol\":4584:4591  spender */\n      dup6\n        /* \"@openzeppelin/contracts/token/ERC20/ERC20.sol\":4593:4599  amount */\n      dup6\n        /* \"@openzeppelin/contracts/token/ERC20/ERC20.sol\":4568:4576  _approve */\n      tag_157\n        /* \"@openzeppelin/contracts/token/ERC20/ERC20.sol\":4568:4600  _approve(owner, spender, amount) */\n      jump\t// in\n    tag_156:\n        /* \"@openzeppelin/contracts/token/ERC20/ERC20.sol\":4617:4621  true */\n      0x01\n        /* \"@openzeppelin/contracts/token/ERC20/ERC20.sol\":4610:4621  return true */\n      swap2\n      pop\n      pop\n        /* \"@openzeppelin/contracts/token/ERC20/ERC20.sol\":4431:4628  function approve(address spender, uint256 amount) public virtual override returns (bool) {... */\n      swap3\n      swap2\n      pop\n      pop\n      jump\t// out\n        /* \"@openzeppelin/contracts/token/ERC20/ERC20.sol\":3242:3348  function totalSupply() public view virtual override returns (uint256) {... */\n    tag_48:\n        /* \"@openzeppelin/contracts/token/ERC20/ERC20.sol\":3303:3310  uint256 */\n      0x00\n        /* \"@openzeppelin/contracts/token/ERC20/ERC20.sol\":3329:3341  _totalSupply */\n      sload(0x02)\n        /* \"@openzeppelin/contracts/token/ERC20/ERC20.sol\":3322:3341  return _totalSupply */\n      swap1\n      pop\n        /* \"@openzeppelin/contracts/token/ERC20/ERC20.sol\":3242:3348  function totalSupply() public view virtual override returns (uint256) {... */\n      swap1\n      jump\t// out\n        /* \"decentralized_finance.sol\":3377:3470  function getDex() public view returns (uint256) {... */\n    tag_53:\n        /* \"decentralized_finance.sol\":3416:3423  uint256 */\n      0x00\n        /* \"decentralized_finance.sol\":3442:3463  balanceOf(msg.sender) */\n      tag_160\n        /* \"decentralized_finance.sol\":3452:3462  msg.sender */\n      caller\n        /* \"decentralized_finance.sol\":3442:3451  balanceOf */\n      tag_85\n        /* \"decentralized_finance.sol\":3442:3463  balanceOf(msg.sender) */\n      jump\t// in\n    tag_160:\n        /* \"decentralized_finance.sol\":3435:3463  return balanceOf(msg.sender) */\n      swap1\n      pop\n        /* \"decentralized_finance.sol\":3377:3470  function getDex() public view returns (uint256) {... */\n      swap1\n      jump\t// out\n        /* \"@openzeppelin/contracts/token/ERC20/ERC20.sol\":5190:5476  function transferFrom(... */\n    tag_59:\n        /* \"@openzeppelin/contracts/token/ERC20/ERC20.sol\":5317:5321  bool */\n      0x00\n        /* \"@openzeppelin/contracts/token/ERC20/ERC20.sol\":5333:5348  address spender */\n      dup1\n        /* \"@openzeppelin/contracts/token/ERC20/ERC20.sol\":5351:5363  _msgSender() */\n      tag_162\n        /* \"@openzeppelin/contracts/token/ERC20/ERC20.sol\":5351:5361  _msgSender */\n      tag_155\n        /* \"@openzeppelin/contracts/token/ERC20/ERC20.sol\":5351:5363  _msgSender() */\n      jump\t// in\n    tag_162:\n        /* \"@openzeppelin/contracts/token/ERC20/ERC20.sol\":5333:5363  address spender = _msgSender() */\n      swap1\n      pop\n        /* \"@openzeppelin/contracts/token/ERC20/ERC20.sol\":5373:5411  _spendAllowance(from, spender, amount) */\n      tag_163\n        /* \"@openzeppelin/contracts/token/ERC20/ERC20.sol\":5389:5393  from */\n      dup6\n        /* \"@openzeppelin/contracts/token/ERC20/ERC20.sol\":5395:5402  spender */\n      dup3\n        /* \"@openzeppelin/contracts/token/ERC20/ERC20.sol\":5404:5410  amount */\n      dup6\n        /* \"@openzeppelin/contracts/token/ERC20/ERC20.sol\":5373:5388  _spendAllowance */\n      tag_164\n        /* \"@openzeppelin/contracts/token/ERC20/ERC20.sol\":5373:5411  _spendAllowance(from, spender, amount) */\n      jump\t// in\n    tag_163:\n        /* \"@openzeppelin/contracts/token/ERC20/ERC20.sol\":5421:5448  _transfer(from, to, amount) */\n      tag_165\n        /* \"@openzeppelin/contracts/token/ERC20/ERC20.sol\":5431:5435  from */\n      dup6\n        /* \"@openzeppelin/contracts/token/ERC20/ERC20.sol\":5437:5439  to */\n      dup6\n        /* \"@openzeppelin/contracts/token/ERC20/ERC20.sol\":5441:5447  amount */\n      dup6\n        /* \"@openzeppelin/contracts/token/ERC20/ERC20.sol\":5421:5430  _transfer */\n      tag_166\n        /* \"@openzeppelin/contracts/token/ERC20/ERC20.sol\":5421:5448  _transfer(from, to, amount) */\n      jump\t// in\n    tag_165:\n        /* \"@openzeppelin/contracts/token/ERC20/ERC20.sol\":5465:5469  true */\n      0x01\n        /* \"@openzeppelin/contracts/token/ERC20/ERC20.sol\":5458:5469  return true */\n      swap2\n      pop\n      pop\n        /* \"@openzeppelin/contracts/token/ERC20/ERC20.sol\":5190:5476  function transferFrom(... */\n      swap4\n      swap3\n      pop\n      pop\n      pop\n      jump\t// out\n        /* \"decentralized_finance.sol\":3476:3628  function makeLoanRequestByNft(IERC721 nftContract, uint256 nftId, uint256 loanAmount, uint256 deadline) external {... */\n    tag_65:\n      pop\n      pop\n      pop\n      pop\n      jump\t// out\n        /* \"decentralized_finance.sol\":3756:3922  function loanByNft(IERC721 nftContract, uint256 nftId) external {... */\n    tag_70:\n      pop\n      pop\n      jump\t// out\n        /* \"@openzeppelin/contracts/token/ERC20/ERC20.sol\":3091:3182  function decimals() public view virtual override returns (uint8) {... */\n    tag_73:\n        /* \"@openzeppelin/contracts/token/ERC20/ERC20.sol\":3149:3154  uint8 */\n      0x00\n        /* \"@openzeppelin/contracts/token/ERC20/ERC20.sol\":3173:3175  18 */\n      0x12\n        /* \"@openzeppelin/contracts/token/ERC20/ERC20.sol\":3166:3175  return 18 */\n      swap1\n      pop\n        /* \"@openzeppelin/contracts/token/ERC20/ERC20.sol\":3091:3182  function decimals() public view virtual override returns (uint8) {... */\n      swap1\n      jump\t// out\n        /* \"@openzeppelin/contracts/token/ERC20/ERC20.sol\":5871:6105  function increaseAllowance(address spender, uint256 addedValue) public virtual returns (bool) {... */\n    tag_79:\n        /* \"@openzeppelin/contracts/token/ERC20/ERC20.sol\":5959:5963  bool */\n      0x00\n        /* \"@openzeppelin/contracts/token/ERC20/ERC20.sol\":5975:5988  address owner */\n      dup1\n        /* \"@openzeppelin/contracts/token/ERC20/ERC20.sol\":5991:6003  _msgSender() */\n      tag_171\n        /* \"@openzeppelin/contracts/token/ERC20/ERC20.sol\":5991:6001  _msgSender */\n      tag_155\n        /* \"@openzeppelin/contracts/token/ERC20/ERC20.sol\":5991:6003  _msgSender() */\n      jump\t// in\n    tag_171:\n        /* \"@openzeppelin/contracts/token/ERC20/ERC20.sol\":5975:6003  address owner = _msgSender() */\n      swap1\n      pop\n        /* \"@openzeppelin/contracts/token/ERC20/ERC20.sol\":6013:6077  _approve(owner, spender, allowance(owner, spender) + addedValue) */\n      tag_172\n        /* \"@openzeppelin/contracts/token/ERC20/ERC20.sol\":6022:6027  owner */\n      dup2\n        /* \"@openzeppelin/contracts/token/ERC20/ERC20.sol\":6029:6036  spender */\n      dup6\n        /* \"@openzeppelin/contracts/token/ERC20/ERC20.sol\":6066:6076  addedValue */\n      dup6\n        /* \"@openzeppelin/contracts/token/ERC20/ERC20.sol\":6038:6063  allowance(owner, spender) */\n      tag_173\n        /* \"@openzeppelin/contracts/token/ERC20/ERC20.sol\":6048:6053  owner */\n      dup6\n        /* \"@openzeppelin/contracts/token/ERC20/ERC20.sol\":6055:6062  spender */\n      dup10\n        /* \"@openzeppelin/contracts/token/ERC20/ERC20.sol\":6038:6047  allowance */\n      tag_118\n        /* \"@openzeppelin/contracts/token/ERC20/ERC20.sol\":6038:6063  allowance(owner, spender) */\n      jump\t// in\n    tag_173:\n        /* \"@openzeppelin/contracts/token/ERC20/ERC20.sol\":6038:6076  allowance(owner, spender) + addedValue */\n      tag_174\n      swap2\n      swap1\n      tag_175\n      jump\t// in\n    tag_174:\n        /* \"@openzeppelin/contracts/token/ERC20/ERC20.sol\":6013:6021  _approve */\n      tag_157\n        /* \"@openzeppelin/contracts/token/ERC20/ERC20.sol\":6013:6077  _approve(owner, spender, allowance(owner, spender) + addedValue) */\n      jump\t// in\n    tag_172:\n        /* \"@openzeppelin/contracts/token/ERC20/ERC20.sol\":6094:6098  true */\n      0x01\n        /* \"@openzeppelin/contracts/token/ERC20/ERC20.sol\":6087:6098  return true */\n      swap2\n      pop\n      pop\n        /* \"@openzeppelin/contracts/token/ERC20/ERC20.sol\":5871:6105  function increaseAllowance(address spender, uint256 addedValue) public virtual returns (bool) {... */\n      swap3\n      swap2\n      pop\n      pop\n      jump\t// out\n        /* \"@openzeppelin/contracts/token/ERC20/ERC20.sol\":3406:3531  function balanceOf(address account) public view virtual override returns (uint256) {... */\n    tag_85:\n        /* \"@openzeppelin/contracts/token/ERC20/ERC20.sol\":3480:3487  uint256 */\n      0x00\n        /* \"@openzeppelin/contracts/token/ERC20/ERC20.sol\":3506:3515  _balances */\n      dup1\n        /* \"@openzeppelin/contracts/token/ERC20/ERC20.sol\":3506:3524  _balances[account] */\n      0x00\n        /* \"@openzeppelin/contracts/token/ERC20/ERC20.sol\":3516:3523  account */\n      dup4\n        /* \"@openzeppelin/contracts/token/ERC20/ERC20.sol\":3506:3524  _balances[account] */\n      0xffffffffffffffffffffffffffffffffffffffff\n      and\n      0xffffffffffffffffffffffffffffffffffffffff\n      and\n      dup2\n      mstore\n      0x20\n      add\n      swap1\n      dup2\n      mstore\n      0x20\n      add\n      0x00\n      keccak256\n      sload\n        /* \"@openzeppelin/contracts/token/ERC20/ERC20.sol\":3499:3524  return _balances[account] */\n      swap1\n      pop\n        /* \"@openzeppelin/contracts/token/ERC20/ERC20.sol\":3406:3531  function balanceOf(address account) public view virtual override returns (uint256) {... */\n      swap2\n      swap1\n      pop\n      jump\t// out\n        /* \"decentralized_finance.sol\":1263:1572  function sellDex(uint256 dexAmount) external {... */\n    tag_90:\n        /* \"decentralized_finance.sol\":1318:1335  uint256 weiAmount */\n      0x00\n        /* \"decentralized_finance.sol\":1350:1362  rateWEItoDEX */\n      sload(0x06)\n        /* \"decentralized_finance.sol\":1338:1347  dexAmount */\n      dup3\n        /* \"decentralized_finance.sol\":1338:1362  dexAmount / rateWEItoDEX */\n      tag_178\n      swap2\n      swap1\n      tag_179\n      jump\t// in\n    tag_178:\n        /* \"decentralized_finance.sol\":1318:1362  uint256 weiAmount = dexAmount / rateWEItoDEX */\n      swap1\n      pop\n        /* \"decentralized_finance.sol\":1405:1414  weiAmount */\n      dup1\n        /* \"decentralized_finance.sol\":1380:1401  address(this).balance */\n      selfbalance\n        /* \"decentralized_finance.sol\":1380:1414  address(this).balance >= weiAmount */\n      lt\n      iszero\n        /* \"decentralized_finance.sol\":1372:1459  require(address(this).balance >= weiAmount, \"Insufficient ETH balance in the contract\") */\n      tag_180\n      jumpi\n      mload(0x40)\n      0x08c379a000000000000000000000000000000000000000000000000000000000\n      dup2\n      mstore\n      0x04\n      add\n      tag_181\n      swap1\n      tag_182\n      jump\t// in\n    tag_181:\n      mload(0x40)\n      dup1\n      swap2\n      sub\n      swap1\n      revert\n    tag_180:\n        /* \"decentralized_finance.sol\":1469:1516  _transfer(msg.sender, address(this), dexAmount) */\n      tag_183\n        /* \"decentralized_finance.sol\":1479:1489  msg.sender */\n      caller\n        /* \"decentralized_finance.sol\":1499:1503  this */\n      address\n        /* \"decentralized_finance.sol\":1506:1515  dexAmount */\n      dup5\n        /* \"decentralized_finance.sol\":1469:1478  _transfer */\n      tag_166\n        /* \"decentralized_finance.sol\":1469:1516  _transfer(msg.sender, address(this), dexAmount) */\n      jump\t// in\n    tag_183:\n        /* \"decentralized_finance.sol\":1534:1544  msg.sender */\n      caller\n        /* \"decentralized_finance.sol\":1526:1554  payable(msg.sender).transfer */\n      0xffffffffffffffffffffffffffffffffffffffff\n      and\n        /* \"decentralized_finance.sol\":1526:1565  payable(msg.sender).transfer(weiAmount) */\n      0x08fc\n        /* \"decentralized_finance.sol\":1555:1564  weiAmount */\n      dup3\n        /* \"decentralized_finance.sol\":1526:1565  payable(msg.sender).transfer(weiAmount) */\n      swap1\n      dup2\n      iszero\n      mul\n      swap1\n      mload(0x40)\n      0x00\n      mload(0x40)\n      dup1\n      dup4\n      sub\n      dup2\n      dup6\n      dup9\n      dup9\n      call\n      swap4\n      pop\n      pop\n      pop\n      pop\n      iszero\n      dup1\n      iszero\n      tag_185\n      jumpi\n      returndatasize\n      0x00\n      dup1\n      returndatacopy\n      revert(0x00, returndatasize)\n    tag_185:\n      pop\n        /* \"decentralized_finance.sol\":1308:1572  {... */\n      pop\n        /* \"decentralized_finance.sol\":1263:1572  function sellDex(uint256 dexAmount) external {... */\n      pop\n      jump\t// out\n        /* \"decentralized_finance.sol\":650:703  mapping(address => uint256) public numTokensPerWallet */\n    tag_94:\n      mstore(0x20, 0x0a)\n      dup1\n      0x00\n      mstore\n      keccak256(0x00, 0x40)\n      0x00\n      swap2\n      pop\n      swap1\n      pop\n      sload\n      dup2\n      jump\t// out\n        /* \"@openzeppelin/contracts/token/ERC20/ERC20.sol\":2365:2467  function symbol() public view virtual override returns (string memory) {... */\n    tag_98:\n        /* \"@openzeppelin/contracts/token/ERC20/ERC20.sol\":2421:2434  string memory */\n      0x60\n        /* \"@openzeppelin/contracts/token/ERC20/ERC20.sol\":2453:2460  _symbol */\n      0x04\n        /* \"@openzeppelin/contracts/token/ERC20/ERC20.sol\":2446:2460  return _symbol */\n      dup1\n      sload\n      tag_187\n      swap1\n      tag_148\n      jump\t// in\n    tag_187:\n      dup1\n      0x1f\n      add\n      0x20\n      dup1\n      swap2\n      div\n      mul\n      0x20\n      add\n      mload(0x40)\n      swap1\n      dup2\n      add\n      0x40\n      mstore\n      dup1\n      swap3\n      swap2\n      swap1\n      dup2\n      dup2\n      mstore\n      0x20\n      add\n      dup3\n      dup1\n      sload\n      tag_188\n      swap1\n      tag_148\n      jump\t// in\n    tag_188:\n      dup1\n      iszero\n      tag_189\n      jumpi\n      dup1\n      0x1f\n      lt\n      tag_190\n      jumpi\n      0x0100\n      dup1\n      dup4\n      sload\n      div\n      mul\n      dup4\n      mstore\n      swap2\n      0x20\n      add\n      swap2\n      jump(tag_189)\n    tag_190:\n      dup3\n      add\n      swap2\n      swap1\n      0x00\n      mstore\n      keccak256(0x00, 0x20)\n      swap1\n    tag_191:\n      dup2\n      sload\n      dup2\n      mstore\n      swap1\n      0x01\n      add\n      swap1\n      0x20\n      add\n      dup1\n      dup4\n      gt\n      tag_191\n      jumpi\n      dup3\n      swap1\n      sub\n      0x1f\n      and\n      dup3\n      add\n      swap2\n    tag_189:\n      pop\n      pop\n      pop\n      pop\n      pop\n      swap1\n      pop\n        /* \"@openzeppelin/contracts/token/ERC20/ERC20.sol\":2365:2467  function symbol() public view virtual override returns (string memory) {... */\n      swap1\n      jump\t// out\n        /* \"@openzeppelin/contracts/token/ERC20/ERC20.sol\":6592:7019  function decreaseAllowance(address spender, uint256 subtractedValue) public virtual returns (bool) {... */\n    tag_103:\n        /* \"@openzeppelin/contracts/token/ERC20/ERC20.sol\":6685:6689  bool */\n      0x00\n        /* \"@openzeppelin/contracts/token/ERC20/ERC20.sol\":6701:6714  address owner */\n      dup1\n        /* \"@openzeppelin/contracts/token/ERC20/ERC20.sol\":6717:6729  _msgSender() */\n      tag_193\n        /* \"@openzeppelin/contracts/token/ERC20/ERC20.sol\":6717:6727  _msgSender */\n      tag_155\n        /* \"@openzeppelin/contracts/token/ERC20/ERC20.sol\":6717:6729  _msgSender() */\n      jump\t// in\n    tag_193:\n        /* \"@openzeppelin/contracts/token/ERC20/ERC20.sol\":6701:6729  address owner = _msgSender() */\n      swap1\n      pop\n        /* \"@openzeppelin/contracts/token/ERC20/ERC20.sol\":6739:6763  uint256 currentAllowance */\n      0x00\n        /* \"@openzeppelin/contracts/token/ERC20/ERC20.sol\":6766:6791  allowance(owner, spender) */\n      tag_194\n        /* \"@openzeppelin/contracts/token/ERC20/ERC20.sol\":6776:6781  owner */\n      dup3\n        /* \"@openzeppelin/contracts/token/ERC20/ERC20.sol\":6783:6790  spender */\n      dup7\n        /* \"@openzeppelin/contracts/token/ERC20/ERC20.sol\":6766:6775  allowance */\n      tag_118\n        /* \"@openzeppelin/contracts/token/ERC20/ERC20.sol\":6766:6791  allowance(owner, spender) */\n      jump\t// in\n    tag_194:\n        /* \"@openzeppelin/contracts/token/ERC20/ERC20.sol\":6739:6791  uint256 currentAllowance = allowance(owner, spender) */\n      swap1\n      pop\n        /* \"@openzeppelin/contracts/token/ERC20/ERC20.sol\":6829:6844  subtractedValue */\n      dup4\n        /* \"@openzeppelin/contracts/token/ERC20/ERC20.sol\":6809:6825  currentAllowance */\n      dup2\n        /* \"@openzeppelin/contracts/token/ERC20/ERC20.sol\":6809:6844  currentAllowance >= subtractedValue */\n      lt\n      iszero\n        /* \"@openzeppelin/contracts/token/ERC20/ERC20.sol\":6801:6886  require(currentAllowance >= subtractedValue, \"ERC20: decreased allowance below zero\") */\n      tag_195\n      jumpi\n      mload(0x40)\n      0x08c379a000000000000000000000000000000000000000000000000000000000\n      dup2\n      mstore\n      0x04\n      add\n      tag_196\n      swap1\n      tag_197\n      jump\t// in\n    tag_196:\n      mload(0x40)\n      dup1\n      swap2\n      sub\n      swap1\n      revert\n    tag_195:\n        /* \"@openzeppelin/contracts/token/ERC20/ERC20.sol\":6920:6980  _approve(owner, spender, currentAllowance - subtractedValue) */\n      tag_198\n        /* \"@openzeppelin/contracts/token/ERC20/ERC20.sol\":6929:6934  owner */\n      dup3\n        /* \"@openzeppelin/contracts/token/ERC20/ERC20.sol\":6936:6943  spender */\n      dup7\n        /* \"@openzeppelin/contracts/token/ERC20/ERC20.sol\":6964:6979  subtractedValue */\n      dup7\n        /* \"@openzeppelin/contracts/token/ERC20/ERC20.sol\":6945:6961  currentAllowance */\n      dup5\n        /* \"@openzeppelin/contracts/token/ERC20/ERC20.sol\":6945:6979  currentAllowance - subtractedValue */\n      sub\n        /* \"@openzeppelin/contracts/token/ERC20/ERC20.sol\":6920:6928  _approve */\n      tag_157\n        /* \"@openzeppelin/contracts/token/ERC20/ERC20.sol\":6920:6980  _approve(owner, spender, currentAllowance - subtractedValue) */\n      jump\t// in\n    tag_198:\n        /* \"@openzeppelin/contracts/token/ERC20/ERC20.sol\":7008:7012  true */\n      0x01\n        /* \"@openzeppelin/contracts/token/ERC20/ERC20.sol\":7001:7012  return true */\n      swap3\n      pop\n      pop\n      pop\n        /* \"@openzeppelin/contracts/token/ERC20/ERC20.sol\":6592:7019  function decreaseAllowance(address spender, uint256 subtractedValue) public virtual returns (bool) {... */\n      swap3\n      swap2\n      pop\n      pop\n      jump\t// out\n        /* \"@openzeppelin/contracts/token/ERC20/ERC20.sol\":3727:3916  function transfer(address to, uint256 amount) public virtual override returns (bool) {... */\n    tag_108:\n        /* \"@openzeppelin/contracts/token/ERC20/ERC20.sol\":3806:3810  bool */\n      0x00\n        /* \"@openzeppelin/contracts/token/ERC20/ERC20.sol\":3822:3835  address owner */\n      dup1\n        /* \"@openzeppelin/contracts/token/ERC20/ERC20.sol\":3838:3850  _msgSender() */\n      tag_200\n        /* \"@openzeppelin/contracts/token/ERC20/ERC20.sol\":3838:3848  _msgSender */\n      tag_155\n        /* \"@openzeppelin/contracts/token/ERC20/ERC20.sol\":3838:3850  _msgSender() */\n      jump\t// in\n    tag_200:\n        /* \"@openzeppelin/contracts/token/ERC20/ERC20.sol\":3822:3850  address owner = _msgSender() */\n      swap1\n      pop\n        /* \"@openzeppelin/contracts/token/ERC20/ERC20.sol\":3860:3888  _transfer(owner, to, amount) */\n      tag_201\n        /* \"@openzeppelin/contracts/token/ERC20/ERC20.sol\":3870:3875  owner */\n      dup2\n        /* \"@openzeppelin/contracts/token/ERC20/ERC20.sol\":3877:3879  to */\n      dup6\n        /* \"@openzeppelin/contracts/token/ERC20/ERC20.sol\":3881:3887  amount */\n      dup6\n        /* \"@openzeppelin/contracts/token/ERC20/ERC20.sol\":3860:3869  _transfer */\n      tag_166\n        /* \"@openzeppelin/contracts/token/ERC20/ERC20.sol\":3860:3888  _transfer(owner, to, amount) */\n      jump\t// in\n    tag_201:\n        /* \"@openzeppelin/contracts/token/ERC20/ERC20.sol\":3905:3909  true */\n      0x01\n        /* \"@openzeppelin/contracts/token/ERC20/ERC20.sol\":3898:3909  return true */\n      swap2\n      pop\n      pop\n        /* \"@openzeppelin/contracts/token/ERC20/ERC20.sol\":3727:3916  function transfer(address to, uint256 amount) public virtual override returns (bool) {... */\n      swap3\n      swap2\n      pop\n      pop\n      jump\t// out\n        /* \"decentralized_finance.sol\":3634:3750  function cancelLoanRequestByNft(IERC721 nftContract, uint256 nftId) external {... */\n    tag_113:\n      pop\n      pop\n      jump\t// out\n        /* \"@openzeppelin/contracts/token/ERC20/ERC20.sol\":3974:4123  function allowance(address owner, address spender) public view virtual override returns (uint256) {... */\n    tag_118:\n        /* \"@openzeppelin/contracts/token/ERC20/ERC20.sol\":4063:4070  uint256 */\n      0x00\n        /* \"@openzeppelin/contracts/token/ERC20/ERC20.sol\":4089:4100  _allowances */\n      0x01\n        /* \"@openzeppelin/contracts/token/ERC20/ERC20.sol\":4089:4107  _allowances[owner] */\n      0x00\n        /* \"@openzeppelin/contracts/token/ERC20/ERC20.sol\":4101:4106  owner */\n      dup5\n        /* \"@openzeppelin/contracts/token/ERC20/ERC20.sol\":4089:4107  _allowances[owner] */\n      0xffffffffffffffffffffffffffffffffffffffff\n      and\n      0xffffffffffffffffffffffffffffffffffffffff\n      and\n      dup2\n      mstore\n      0x20\n      add\n      swap1\n      dup2\n      mstore\n      0x20\n      add\n      0x00\n      keccak256\n        /* \"@openzeppelin/contracts/token/ERC20/ERC20.sol\":4089:4116  _allowances[owner][spender] */\n      0x00\n        /* \"@openzeppelin/contracts/token/ERC20/ERC20.sol\":4108:4115  spender */\n      dup4\n        /* \"@openzeppelin/contracts/token/ERC20/ERC20.sol\":4089:4116  _allowances[owner][spender] */\n      0xffffffffffffffffffffffffffffffffffffffff\n      and\n      0xffffffffffffffffffffffffffffffffffffffff\n      and\n      dup2\n      mstore\n      0x20\n      add\n      swap1\n      dup2\n      mstore\n      0x20\n      add\n      0x00\n      keccak256\n      sload\n        /* \"@openzeppelin/contracts/token/ERC20/ERC20.sol\":4082:4116  return _allowances[owner][spender] */\n      swap1\n      pop\n        /* \"@openzeppelin/contracts/token/ERC20/ERC20.sol\":3974:4123  function allowance(address owner, address spender) public view virtual override returns (uint256) {... */\n      swap3\n      swap2\n      pop\n      pop\n      jump\t// out\n        /* \"decentralized_finance.sol\":607:644  mapping(uint256 => Loan) public loans */\n    tag_123:\n      mstore(0x20, 0x09)\n      dup1\n      0x00\n      mstore\n      keccak256(0x00, 0x40)\n      0x00\n      swap2\n      pop\n      swap1\n      pop\n      dup1\n      0x00\n      add\n      sload\n      swap1\n      dup1\n      0x01\n      add\n      sload\n      swap1\n      dup1\n      0x02\n      add\n      sload\n      swap1\n      dup1\n      0x03\n      add\n      0x00\n      swap1\n      sload\n      swap1\n      0x0100\n      exp\n      swap1\n      div\n      0xffffffffffffffffffffffffffffffffffffffff\n      and\n      swap1\n      dup1\n      0x04\n      add\n      0x00\n      swap1\n      sload\n      swap1\n      0x0100\n      exp\n      swap1\n      div\n      0xffffffffffffffffffffffffffffffffffffffff\n      and\n      swap1\n      dup1\n      0x04\n      add\n      0x14\n      swap1\n      sload\n      swap1\n      0x0100\n      exp\n      swap1\n      div\n      0xff\n      and\n      swap1\n      dup1\n      0x05\n      add\n      0x00\n      swap1\n      sload\n      swap1\n      0x0100\n      exp\n      swap1\n      div\n      0xffffffffffffffffffffffffffffffffffffffff\n      and\n      swap1\n      dup1\n      0x06\n      add\n      sload\n      swap1\n      pop\n      dup9\n      jump\t// out\n        /* \"decentralized_finance.sol\":2428:3135  function returnLoan(uint256 loanId) external payable {... */\n    tag_128:\n        /* \"decentralized_finance.sol\":2491:2511  Loan storage loanAux */\n      0x00\n        /* \"decentralized_finance.sol\":2514:2519  loans */\n      0x09\n        /* \"decentralized_finance.sol\":2514:2527  loans[loanId] */\n      0x00\n        /* \"decentralized_finance.sol\":2520:2526  loanId */\n      dup4\n        /* \"decentralized_finance.sol\":2514:2527  loans[loanId] */\n      dup2\n      mstore\n      0x20\n      add\n      swap1\n      dup2\n      mstore\n      0x20\n      add\n      0x00\n      keccak256\n        /* \"decentralized_finance.sol\":2491:2527  Loan storage loanAux = loans[loanId] */\n      swap1\n      pop\n        /* \"decentralized_finance.sol\":2537:2557  uint256 interestRate */\n      0x00\n        /* \"decentralized_finance.sol\":2596:2601  86400 */\n      0x015180\n        /* \"decentralized_finance.sol\":2579:2586  loanAux */\n      dup3\n        /* \"decentralized_finance.sol\":2579:2595  loanAux.deadline */\n      0x01\n      add\n      sload\n        /* \"decentralized_finance.sol\":2579:2601  loanAux.deadline/86400 */\n      tag_205\n      swap2\n      swap1\n      tag_179\n      jump\t// in\n    tag_205:\n        /* \"decentralized_finance.sol\":2576:2577  5 */\n      0x05\n        /* \"decentralized_finance.sol\":2576:2602  5*(loanAux.deadline/86400) */\n      tag_206\n      swap2\n      swap1\n      tag_207\n      jump\t// in\n    tag_206:\n        /* \"decentralized_finance.sol\":2560:2572  rateWEItoDEX */\n      sload(0x06)\n        /* \"decentralized_finance.sol\":2560:2603  rateWEItoDEX + (5*(loanAux.deadline/86400)) */\n      tag_208\n      swap2\n      swap1\n      tag_175\n      jump\t// in\n    tag_208:\n        /* \"decentralized_finance.sol\":2537:2603  uint256 interestRate = rateWEItoDEX + (5*(loanAux.deadline/86400)) */\n      swap1\n      pop\n        /* \"decentralized_finance.sol\":2699:2728  uint256 dexAmountWithInterest */\n      0x00\n        /* \"decentralized_finance.sol\":2741:2753  interestRate */\n      dup2\n        /* \"decentralized_finance.sol\":2731:2740  msg.value */\n      callvalue\n        /* \"decentralized_finance.sol\":2731:2753  msg.value*interestRate */\n      tag_209\n      swap2\n      swap1\n      tag_207\n      jump\t// in\n    tag_209:\n        /* \"decentralized_finance.sol\":2699:2753  uint256 dexAmountWithInterest = msg.value*interestRate */\n      swap1\n      pop\n        /* \"decentralized_finance.sol\":2792:2801  msg.value */\n      callvalue\n        /* \"decentralized_finance.sol\":2771:2778  loanAux */\n      dup4\n        /* \"decentralized_finance.sol\":2771:2788  loanAux.amountEth */\n      0x02\n      add\n      sload\n        /* \"decentralized_finance.sol\":2771:2801  loanAux.amountEth >= msg.value */\n      lt\n      iszero\n        /* \"decentralized_finance.sol\":2763:2845  require(loanAux.amountEth >= msg.value,\"You returning more then the loan accepts\") */\n      tag_210\n      jumpi\n      mload(0x40)\n      0x08c379a000000000000000000000000000000000000000000000000000000000\n      dup2\n      mstore\n      0x04\n      add\n      tag_211\n      swap1\n      tag_212\n      jump\t// in\n    tag_211:\n      mload(0x40)\n      dup1\n      swap2\n      sub\n      swap1\n      revert\n    tag_210:\n        /* \"decentralized_finance.sol\":2855:2876  uint256 ethAmountLeft */\n      0x00\n        /* \"decentralized_finance.sol\":2897:2906  msg.value */\n      callvalue\n        /* \"decentralized_finance.sol\":2879:2886  loanAux */\n      dup5\n        /* \"decentralized_finance.sol\":2879:2896  loanAux.amountEth */\n      0x02\n      add\n      sload\n        /* \"decentralized_finance.sol\":2879:2906  loanAux.amountEth-msg.value */\n      tag_213\n      swap2\n      swap1\n      tag_214\n      jump\t// in\n    tag_213:\n        /* \"decentralized_finance.sol\":2855:2906  uint256 ethAmountLeft = loanAux.amountEth-msg.value */\n      swap1\n      pop\n        /* \"decentralized_finance.sol\":2936:2949  ethAmountLeft */\n      dup1\n        /* \"decentralized_finance.sol\":2916:2923  loanAux */\n      dup5\n        /* \"decentralized_finance.sol\":2916:2933  loanAux.amountEth */\n      0x02\n      add\n        /* \"decentralized_finance.sol\":2916:2949  loanAux.amountEth = ethAmountLeft */\n      dup2\n      swap1\n      sstore\n      pop\n        /* \"decentralized_finance.sol\":2975:2982  loanAux */\n      dup4\n        /* \"decentralized_finance.sol\":2959:2964  loans */\n      0x09\n        /* \"decentralized_finance.sol\":2959:2972  loans[loanId] */\n      0x00\n        /* \"decentralized_finance.sol\":2965:2971  loanId */\n      dup8\n        /* \"decentralized_finance.sol\":2959:2972  loans[loanId] */\n      dup2\n      mstore\n      0x20\n      add\n      swap1\n      dup2\n      mstore\n      0x20\n      add\n      0x00\n      keccak256\n        /* \"decentralized_finance.sol\":2959:2982  loans[loanId] = loanAux */\n      0x00\n      dup3\n      add\n      sload\n      dup2\n      0x00\n      add\n      sstore\n      0x01\n      dup3\n      add\n      sload\n      dup2\n      0x01\n      add\n      sstore\n      0x02\n      dup3\n      add\n      sload\n      dup2\n      0x02\n      add\n      sstore\n      0x03\n      dup3\n      add\n      0x00\n      swap1\n      sload\n      swap1\n      0x0100\n      exp\n      swap1\n      div\n      0xffffffffffffffffffffffffffffffffffffffff\n      and\n      dup2\n      0x03\n      add\n      exp(0x0100, 0x00)\n      dup2\n      sload\n      dup2\n      0xffffffffffffffffffffffffffffffffffffffff\n      mul\n      not\n      and\n      swap1\n      dup4\n      0xffffffffffffffffffffffffffffffffffffffff\n      and\n      mul\n      or\n      swap1\n      sstore\n      pop\n      0x04\n      dup3\n      add\n      0x00\n      swap1\n      sload\n      swap1\n      0x0100\n      exp\n      swap1\n      div\n      0xffffffffffffffffffffffffffffffffffffffff\n      and\n      dup2\n      0x04\n      add\n      exp(0x0100, 0x00)\n      dup2\n      sload\n      dup2\n      0xffffffffffffffffffffffffffffffffffffffff\n      mul\n      not\n      and\n      swap1\n      dup4\n      0xffffffffffffffffffffffffffffffffffffffff\n      and\n      mul\n      or\n      swap1\n      sstore\n      pop\n      0x04\n      dup3\n      add\n      0x14\n      swap1\n      sload\n      swap1\n      0x0100\n      exp\n      swap1\n      div\n      0xff\n      and\n      dup2\n      0x04\n      add\n      exp(0x0100, 0x14)\n      dup2\n      sload\n      dup2\n      0xff\n      mul\n      not\n      and\n      swap1\n      dup4\n      iszero\n      iszero\n      mul\n      or\n      swap1\n      sstore\n      pop\n      0x05\n      dup3\n      add\n      0x00\n      swap1\n      sload\n      swap1\n      0x0100\n      exp\n      swap1\n      div\n      0xffffffffffffffffffffffffffffffffffffffff\n      and\n      dup2\n      0x05\n      add\n      exp(0x0100, 0x00)\n      dup2\n      sload\n      dup2\n      0xffffffffffffffffffffffffffffffffffffffff\n      mul\n      not\n      and\n      swap1\n      dup4\n      0xffffffffffffffffffffffffffffffffffffffff\n      and\n      mul\n      or\n      swap1\n      sstore\n      pop\n      0x06\n      dup3\n      add\n      sload\n      dup2\n      0x06\n      add\n      sstore\n      swap1\n      pop\n      pop\n        /* \"decentralized_finance.sol\":2992:3051  _transfer(address(this), msg.sender, dexAmountWithInterest) */\n      tag_215\n        /* \"decentralized_finance.sol\":3010:3014  this */\n      address\n        /* \"decentralized_finance.sol\":3017:3027  msg.sender */\n      caller\n        /* \"decentralized_finance.sol\":3029:3050  dexAmountWithInterest */\n      dup5\n        /* \"decentralized_finance.sol\":2992:3001  _transfer */\n      tag_166\n        /* \"decentralized_finance.sol\":2992:3051  _transfer(address(this), msg.sender, dexAmountWithInterest) */\n      jump\t// in\n    tag_215:\n        /* \"decentralized_finance.sol\":3082:3083  0 */\n      0x00\n        /* \"decentralized_finance.sol\":3065:3078  ethAmountLeft */\n      dup2\n        /* \"decentralized_finance.sol\":3065:3083  ethAmountLeft == 0 */\n      sub\n        /* \"decentralized_finance.sol\":3061:3129  if (ethAmountLeft == 0){... */\n      tag_216\n      jumpi\n        /* \"decentralized_finance.sol\":3105:3110  loans */\n      0x09\n        /* \"decentralized_finance.sol\":3105:3118  loans[loanId] */\n      0x00\n        /* \"decentralized_finance.sol\":3111:3117  loanId */\n      dup7\n        /* \"decentralized_finance.sol\":3105:3118  loans[loanId] */\n      dup2\n      mstore\n      0x20\n      add\n      swap1\n      dup2\n      mstore\n      0x20\n      add\n      0x00\n      keccak256\n      0x00\n        /* \"decentralized_finance.sol\":3098:3118  delete loans[loanId] */\n      dup1\n      dup3\n      add\n      0x00\n      swap1\n      sstore\n      0x01\n      dup3\n      add\n      0x00\n      swap1\n      sstore\n      0x02\n      dup3\n      add\n      0x00\n      swap1\n      sstore\n      0x03\n      dup3\n      add\n      exp(0x0100, 0x00)\n      dup2\n      sload\n      swap1\n      0xffffffffffffffffffffffffffffffffffffffff\n      mul\n      not\n      and\n      swap1\n      sstore\n      0x04\n      dup3\n      add\n      exp(0x0100, 0x00)\n      dup2\n      sload\n      swap1\n      0xffffffffffffffffffffffffffffffffffffffff\n      mul\n      not\n      and\n      swap1\n      sstore\n      0x04\n      dup3\n      add\n      exp(0x0100, 0x14)\n      dup2\n      sload\n      swap1\n      0xff\n      mul\n      not\n      and\n      swap1\n      sstore\n      0x05\n      dup3\n      add\n      exp(0x0100, 0x00)\n      dup2\n      sload\n      swap1\n      0xffffffffffffffffffffffffffffffffffffffff\n      mul\n      not\n      and\n      swap1\n      sstore\n      0x06\n      dup3\n      add\n      0x00\n      swap1\n      sstore\n      pop\n      pop\n        /* \"decentralized_finance.sol\":3061:3129  if (ethAmountLeft == 0){... */\n    tag_216:\n        /* \"decentralized_finance.sol\":2481:3135  {... */\n      pop\n      pop\n      pop\n      pop\n        /* \"decentralized_finance.sol\":2428:3135  function returnLoan(uint256 loanId) external payable {... */\n      pop\n      jump\t// out\n        /* \"decentralized_finance.sol\":3928:4863  function checkLoan(uint256 loanId) external {... */\n    tag_132:\n        /* \"decentralized_finance.sol\":4068:4085  Loan storage loan */\n      0x00\n        /* \"decentralized_finance.sol\":4088:4093  loans */\n      0x09\n        /* \"decentralized_finance.sol\":4088:4101  loans[loanId] */\n      0x00\n        /* \"decentralized_finance.sol\":4094:4100  loanId */\n      dup4\n        /* \"decentralized_finance.sol\":4088:4101  loans[loanId] */\n      dup2\n      mstore\n      0x20\n      add\n      swap1\n      dup2\n      mstore\n      0x20\n      add\n      0x00\n      keccak256\n        /* \"decentralized_finance.sol\":4068:4101  Loan storage loan = loans[loanId] */\n      swap1\n      pop\n        /* \"decentralized_finance.sol\":4144:4145  0 */\n      0x00\n        /* \"decentralized_finance.sol\":4119:4146  loan.borrower != address(0) */\n      0xffffffffffffffffffffffffffffffffffffffff\n      and\n        /* \"decentralized_finance.sol\":4119:4123  loan */\n      dup2\n        /* \"decentralized_finance.sol\":4119:4132  loan.borrower */\n      0x04\n      add\n      0x00\n      swap1\n      sload\n      swap1\n      0x0100\n      exp\n      swap1\n      div\n      0xffffffffffffffffffffffffffffffffffffffff\n      and\n        /* \"decentralized_finance.sol\":4119:4146  loan.borrower != address(0) */\n      0xffffffffffffffffffffffffffffffffffffffff\n      and\n      sub\n        /* \"decentralized_finance.sol\":4111:4170  require(loan.borrower != address(0), \"Loan does not exist\") */\n      tag_218\n      jumpi\n      mload(0x40)\n      0x08c379a000000000000000000000000000000000000000000000000000000000\n      dup2\n      mstore\n      0x04\n      add\n      tag_219\n      swap1\n      tag_220\n      jump\t// in\n    tag_219:\n      mload(0x40)\n      dup1\n      swap2\n      sub\n      swap1\n      revert\n    tag_218:\n        /* \"decentralized_finance.sol\":4218:4233  block.timestamp */\n      timestamp\n        /* \"decentralized_finance.sol\":4202:4206  loan */\n      dup2\n        /* \"decentralized_finance.sol\":4202:4215  loan.deadline */\n      0x01\n      add\n      sload\n        /* \"decentralized_finance.sol\":4185:4189  loan */\n      dup3\n        /* \"decentralized_finance.sol\":4185:4201  loan.dateCreated */\n      0x00\n      add\n      sload\n        /* \"decentralized_finance.sol\":4185:4215  loan.dateCreated+loan.deadline */\n      tag_221\n      swap2\n      swap1\n      tag_175\n      jump\t// in\n    tag_221:\n        /* \"decentralized_finance.sol\":4185:4233  loan.dateCreated+loan.deadline > block.timestamp */\n      gt\n        /* \"decentralized_finance.sol\":4181:4856  if (loan.dateCreated+loan.deadline > block.timestamp) {... */\n      iszero\n      tag_222\n      jumpi\n        /* \"decentralized_finance.sol\":4281:4285  loan */\n      dup1\n        /* \"decentralized_finance.sol\":4281:4295  loan.amountEth */\n      0x02\n      add\n      sload\n        /* \"decentralized_finance.sol\":4253:4277  balanceOf(loan.borrower) */\n      tag_223\n        /* \"decentralized_finance.sol\":4263:4267  loan */\n      dup3\n        /* \"decentralized_finance.sol\":4263:4276  loan.borrower */\n      0x04\n      add\n      0x00\n      swap1\n      sload\n      swap1\n      0x0100\n      exp\n      swap1\n      div\n      0xffffffffffffffffffffffffffffffffffffffff\n      and\n        /* \"decentralized_finance.sol\":4253:4262  balanceOf */\n      tag_85\n        /* \"decentralized_finance.sol\":4253:4277  balanceOf(loan.borrower) */\n      jump\t// in\n    tag_223:\n        /* \"decentralized_finance.sol\":4253:4295  balanceOf(loan.borrower) >= loan.amountEth */\n      lt\n        /* \"decentralized_finance.sol\":4249:4846  if (balanceOf(loan.borrower) >= loan.amountEth) {... */\n      tag_224\n      jumpi\n        /* \"decentralized_finance.sol\":4504:4551  _transfer(loan.borrower, owner, loan.amountEth) */\n      tag_225\n        /* \"decentralized_finance.sol\":4514:4518  loan */\n      dup2\n        /* \"decentralized_finance.sol\":4514:4527  loan.borrower */\n      0x04\n      add\n      0x00\n      swap1\n      sload\n      swap1\n      0x0100\n      exp\n      swap1\n      div\n      0xffffffffffffffffffffffffffffffffffffffff\n      and\n        /* \"decentralized_finance.sol\":4529:4534  owner */\n      0x05\n      0x00\n      swap1\n      sload\n      swap1\n      0x0100\n      exp\n      swap1\n      div\n      0xffffffffffffffffffffffffffffffffffffffff\n      and\n        /* \"decentralized_finance.sol\":4536:4540  loan */\n      dup4\n        /* \"decentralized_finance.sol\":4536:4550  loan.amountEth */\n      0x02\n      add\n      sload\n        /* \"decentralized_finance.sol\":4504:4513  _transfer */\n      tag_166\n        /* \"decentralized_finance.sol\":4504:4551  _transfer(loan.borrower, owner, loan.amountEth) */\n      jump\t// in\n    tag_225:\n        /* \"decentralized_finance.sol\":4249:4846  if (balanceOf(loan.borrower) >= loan.amountEth) {... */\n      jump(tag_226)\n    tag_224:\n    tag_226:\n        /* \"decentralized_finance.sol\":4181:4856  if (loan.dateCreated+loan.deadline > block.timestamp) {... */\n    tag_222:\n        /* \"decentralized_finance.sol\":3972:4863  {... */\n      pop\n        /* \"decentralized_finance.sol\":3928:4863  function checkLoan(uint256 loanId) external {... */\n      pop\n      jump\t// out\n        /* \"decentralized_finance.sol\":3141:3245  function getEthTotalBalance() public view returns (uint256) {... */\n    tag_135:\n        /* \"decentralized_finance.sol\":3192:3199  uint256 */\n      0x00\n        /* \"decentralized_finance.sol\":3217:3238  address(this).balance */\n      selfbalance\n        /* \"decentralized_finance.sol\":3210:3238  return address(this).balance */\n      swap1\n      pop\n        /* \"decentralized_finance.sol\":3141:3245  function getEthTotalBalance() public view returns (uint256) {... */\n      swap1\n      jump\t// out\n        /* \"decentralized_finance.sol\":1031:1257  function buyDex() external payable {... */\n    tag_138:\n        /* \"decentralized_finance.sol\":1076:1093  uint256 dexAmount */\n      0x00\n        /* \"decentralized_finance.sol\":1108:1120  rateWEItoDEX */\n      sload(0x06)\n        /* \"decentralized_finance.sol\":1096:1105  msg.value */\n      callvalue\n        /* \"decentralized_finance.sol\":1096:1120  msg.value * rateWEItoDEX */\n      tag_229\n      swap2\n      swap1\n      tag_207\n      jump\t// in\n    tag_229:\n        /* \"decentralized_finance.sol\":1076:1120  uint256 dexAmount = msg.value * rateWEItoDEX */\n      swap1\n      pop\n        /* \"decentralized_finance.sol\":1153:1162  dexAmount */\n      dup1\n        /* \"decentralized_finance.sol\":1138:1151  totalSupply() */\n      tag_230\n        /* \"decentralized_finance.sol\":1138:1149  totalSupply */\n      tag_48\n        /* \"decentralized_finance.sol\":1138:1151  totalSupply() */\n      jump\t// in\n    tag_230:\n        /* \"decentralized_finance.sol\":1138:1162  totalSupply()>=dexAmount */\n      lt\n      iszero\n        /* \"decentralized_finance.sol\":1130:1194  require(totalSupply()>=dexAmount, \"not enough DEX for that buy\") */\n      tag_231\n      jumpi\n      mload(0x40)\n      0x08c379a000000000000000000000000000000000000000000000000000000000\n      dup2\n      mstore\n      0x04\n      add\n      tag_232\n      swap1\n      tag_233\n      jump\t// in\n    tag_232:\n      mload(0x40)\n      dup1\n      swap2\n      sub\n      swap1\n      revert\n    tag_231:\n        /* \"decentralized_finance.sol\":1204:1249  _transfer(address(this),msg.sender,dexAmount) */\n      tag_234\n        /* \"decentralized_finance.sol\":1222:1226  this */\n      address\n        /* \"decentralized_finance.sol\":1228:1238  msg.sender */\n      caller\n        /* \"decentralized_finance.sol\":1239:1248  dexAmount */\n      dup4\n        /* \"decentralized_finance.sol\":1204:1213  _transfer */\n      tag_166\n        /* \"decentralized_finance.sol\":1204:1249  _transfer(address(this),msg.sender,dexAmount) */\n      jump\t// in\n    tag_234:\n        /* \"decentralized_finance.sol\":1066:1257  {... */\n      pop\n        /* \"decentralized_finance.sol\":1031:1257  function buyDex() external payable {... */\n      jump\t// out\n        /* \"decentralized_finance.sol\":1578:2422  function loan(uint256 dexAmount, uint256 deadline) external {... */\n    tag_143:\n        /* \"decentralized_finance.sol\":1679:1688  dexAmount */\n      dup2\n        /* \"decentralized_finance.sol\":1656:1677  balanceOf(msg.sender) */\n      tag_236\n        /* \"decentralized_finance.sol\":1666:1676  msg.sender */\n      caller\n        /* \"decentralized_finance.sol\":1656:1665  balanceOf */\n      tag_85\n        /* \"decentralized_finance.sol\":1656:1677  balanceOf(msg.sender) */\n      jump\t// in\n    tag_236:\n        /* \"decentralized_finance.sol\":1656:1688  balanceOf(msg.sender)>=dexAmount */\n      lt\n      iszero\n        /* \"decentralized_finance.sol\":1648:1689  require(balanceOf(msg.sender)>=dexAmount) */\n      tag_237\n      jumpi\n      0x00\n      dup1\n      revert\n    tag_237:\n        /* \"decentralized_finance.sol\":1717:1728  maxLoanDate */\n      sload(0x07)\n        /* \"decentralized_finance.sol\":1707:1715  deadline */\n      dup2\n        /* \"decentralized_finance.sol\":1707:1728  deadline<=maxLoanDate */\n      gt\n      iszero\n        /* \"decentralized_finance.sol\":1699:1729  require(deadline<=maxLoanDate) */\n      tag_238\n      jumpi\n      0x00\n      dup1\n      revert\n    tag_238:\n        /* \"decentralized_finance.sol\":1739:1759  uint256 interestRate */\n      0x00\n        /* \"decentralized_finance.sol\":1790:1795  86400 */\n      0x015180\n        /* \"decentralized_finance.sol\":1781:1789  deadline */\n      dup3\n        /* \"decentralized_finance.sol\":1781:1795  deadline/86400 */\n      tag_239\n      swap2\n      swap1\n      tag_179\n      jump\t// in\n    tag_239:\n        /* \"decentralized_finance.sol\":1778:1779  5 */\n      0x05\n        /* \"decentralized_finance.sol\":1778:1796  5*(deadline/86400) */\n      tag_240\n      swap2\n      swap1\n      tag_207\n      jump\t// in\n    tag_240:\n        /* \"decentralized_finance.sol\":1762:1774  rateWEItoDEX */\n      sload(0x06)\n        /* \"decentralized_finance.sol\":1762:1797  rateWEItoDEX + (5*(deadline/86400)) */\n      tag_241\n      swap2\n      swap1\n      tag_175\n      jump\t// in\n    tag_241:\n        /* \"decentralized_finance.sol\":1739:1797  uint256 interestRate = rateWEItoDEX + (5*(deadline/86400)) */\n      swap1\n      pop\n        /* \"decentralized_finance.sol\":1893:1911  uint256 loanAmount */\n      0x00\n        /* \"decentralized_finance.sol\":1924:1936  interestRate */\n      dup2\n        /* \"decentralized_finance.sol\":1914:1923  dexAmount */\n      dup5\n        /* \"decentralized_finance.sol\":1914:1936  dexAmount/interestRate */\n      tag_242\n      swap2\n      swap1\n      tag_179\n      jump\t// in\n    tag_242:\n        /* \"decentralized_finance.sol\":1893:1936  uint256 loanAmount = dexAmount/interestRate */\n      swap1\n      pop\n        /* \"decentralized_finance.sol\":1946:1965  Loan memory loanAux */\n      tag_243\n      tag_244\n      jump\t// in\n    tag_243:\n        /* \"decentralized_finance.sol\":1993:2003  loanAmount */\n      dup2\n        /* \"decentralized_finance.sol\":1975:1982  loanAux */\n      dup2\n        /* \"decentralized_finance.sol\":1975:1992  loanAux.amountEth */\n      0x40\n      add\n        /* \"decentralized_finance.sol\":1975:2003  loanAux.amountEth=loanAmount */\n      dup2\n      dup2\n      mstore\n      pop\n      pop\n        /* \"decentralized_finance.sol\":2030:2040  msg.sender */\n      caller\n        /* \"decentralized_finance.sol\":2013:2020  loanAux */\n      dup2\n        /* \"decentralized_finance.sol\":2013:2029  loanAux.borrower */\n      0x80\n      add\n        /* \"decentralized_finance.sol\":2013:2040  loanAux.borrower=msg.sender */\n      swap1\n      0xffffffffffffffffffffffffffffffffffffffff\n      and\n      swap1\n      dup2\n      0xffffffffffffffffffffffffffffffffffffffff\n      and\n      dup2\n      mstore\n      pop\n      pop\n        /* \"decentralized_finance.sol\":2067:2075  deadline */\n      dup4\n        /* \"decentralized_finance.sol\":2050:2057  loanAux */\n      dup2\n        /* \"decentralized_finance.sol\":2050:2066  loanAux.deadline */\n      0x20\n      add\n        /* \"decentralized_finance.sol\":2050:2075  loanAux.deadline=deadline */\n      dup2\n      dup2\n      mstore\n      pop\n      pop\n        /* \"decentralized_finance.sol\":2108:2112  this */\n      address\n        /* \"decentralized_finance.sol\":2085:2092  loanAux */\n      dup2\n        /* \"decentralized_finance.sol\":2085:2099  loanAux.lender */\n      0x60\n      add\n        /* \"decentralized_finance.sol\":2085:2113  loanAux.lender=address(this) */\n      swap1\n      0xffffffffffffffffffffffffffffffffffffffff\n      and\n      swap1\n      dup2\n      0xffffffffffffffffffffffffffffffffffffffff\n      and\n      dup2\n      mstore\n      pop\n      pop\n        /* \"decentralized_finance.sol\":2141:2146  false */\n      0x00\n        /* \"decentralized_finance.sol\":2123:2130  loanAux */\n      dup2\n        /* \"decentralized_finance.sol\":2123:2140  loanAux.isBaseNft */\n      0xa0\n      add\n        /* \"decentralized_finance.sol\":2123:2146  loanAux.isBaseNft=false */\n      swap1\n      iszero\n      iszero\n      swap1\n      dup2\n      iszero\n      iszero\n      dup2\n      mstore\n      pop\n      pop\n        /* \"decentralized_finance.sol\":2178:2193  block.timestamp */\n      timestamp\n        /* \"decentralized_finance.sol\":2156:2163  loanAux */\n      dup2\n        /* \"decentralized_finance.sol\":2156:2175  loanAux.dateCreated */\n      0x00\n      add\n        /* \"decentralized_finance.sol\":2156:2193  loanAux.dateCreated = block.timestamp */\n      dup2\n      dup2\n      mstore\n      pop\n      pop\n        /* \"decentralized_finance.sol\":2220:2227  loanAux */\n      dup1\n        /* \"decentralized_finance.sol\":2203:2208  loans */\n      0x09\n        /* \"decentralized_finance.sol\":2203:2217  loans[counter] */\n      0x00\n        /* \"decentralized_finance.sol\":2209:2216  counter */\n      sload(0x08)\n        /* \"decentralized_finance.sol\":2203:2217  loans[counter] */\n      dup2\n      mstore\n      0x20\n      add\n      swap1\n      dup2\n      mstore\n      0x20\n      add\n      0x00\n      keccak256\n        /* \"decentralized_finance.sol\":2203:2227  loans[counter] = loanAux */\n      0x00\n      dup3\n      add\n      mload\n      dup2\n      0x00\n      add\n      sstore\n      0x20\n      dup3\n      add\n      mload\n      dup2\n      0x01\n      add\n      sstore\n      0x40\n      dup3\n      add\n      mload\n      dup2\n      0x02\n      add\n      sstore\n      0x60\n      dup3\n      add\n      mload\n      dup2\n      0x03\n      add\n      exp(0x0100, 0x00)\n      dup2\n      sload\n      dup2\n      0xffffffffffffffffffffffffffffffffffffffff\n      mul\n      not\n      and\n      swap1\n      dup4\n      0xffffffffffffffffffffffffffffffffffffffff\n      and\n      mul\n      or\n      swap1\n      sstore\n      pop\n      0x80\n      dup3\n      add\n      mload\n      dup2\n      0x04\n      add\n      exp(0x0100, 0x00)\n      dup2\n      sload\n      dup2\n      0xffffffffffffffffffffffffffffffffffffffff\n      mul\n      not\n      and\n      swap1\n      dup4\n      0xffffffffffffffffffffffffffffffffffffffff\n      and\n      mul\n      or\n      swap1\n      sstore\n      pop\n      0xa0\n      dup3\n      add\n      mload\n      dup2\n      0x04\n      add\n      exp(0x0100, 0x14)\n      dup2\n      sload\n      dup2\n      0xff\n      mul\n      not\n      and\n      swap1\n      dup4\n      iszero\n      iszero\n      mul\n      or\n      swap1\n      sstore\n      pop\n      0xc0\n      dup3\n      add\n      mload\n      dup2\n      0x05\n      add\n      exp(0x0100, 0x00)\n      dup2\n      sload\n      dup2\n      0xffffffffffffffffffffffffffffffffffffffff\n      mul\n      not\n      and\n      swap1\n      dup4\n      0xffffffffffffffffffffffffffffffffffffffff\n      and\n      mul\n      or\n      swap1\n      sstore\n      pop\n      0xe0\n      dup3\n      add\n      mload\n      dup2\n      0x06\n      add\n      sstore\n      swap1\n      pop\n      pop\n        /* \"decentralized_finance.sol\":2237:2244  counter */\n      0x08\n      0x00\n        /* \"decentralized_finance.sol\":2237:2246  counter++ */\n      dup2\n      sload\n      dup1\n      swap3\n      swap2\n      swap1\n      tag_245\n      swap1\n      tag_246\n      jump\t// in\n    tag_245:\n      swap2\n      swap1\n      pop\n      sstore\n      pop\n        /* \"decentralized_finance.sol\":2273:2283  msg.sender */\n      caller\n        /* \"decentralized_finance.sol\":2261:2306  loanCreated(msg.sender, loanAmount, deadline) */\n      0xffffffffffffffffffffffffffffffffffffffff\n      and\n      0x0f2c608b40926709a605e36d808476c12c3da0075b7eb8773f053465678be736\n        /* \"decentralized_finance.sol\":2285:2295  loanAmount */\n      dup4\n        /* \"decentralized_finance.sol\":2297:2305  deadline */\n      dup7\n        /* \"decentralized_finance.sol\":2261:2306  loanCreated(msg.sender, loanAmount, deadline) */\n      mload(0x40)\n      tag_247\n      swap3\n      swap2\n      swap1\n      tag_248\n      jump\t// in\n    tag_247:\n      mload(0x40)\n      dup1\n      swap2\n      sub\n      swap1\n      log2\n        /* \"decentralized_finance.sol\":2316:2363  _transfer(msg.sender, address(this), dexAmount) */\n      tag_249\n        /* \"decentralized_finance.sol\":2326:2336  msg.sender */\n      caller\n        /* \"decentralized_finance.sol\":2346:2350  this */\n      address\n        /* \"decentralized_finance.sol\":2353:2362  dexAmount */\n      dup8\n        /* \"decentralized_finance.sol\":2316:2325  _transfer */\n      tag_166\n        /* \"decentralized_finance.sol\":2316:2363  _transfer(msg.sender, address(this), dexAmount) */\n      jump\t// in\n    tag_249:\n        /* \"decentralized_finance.sol\":2381:2391  msg.sender */\n      caller\n        /* \"decentralized_finance.sol\":2373:2401  payable(msg.sender).transfer */\n      0xffffffffffffffffffffffffffffffffffffffff\n      and\n        /* \"decentralized_finance.sol\":2373:2415  payable(msg.sender).transfer(loanAmount/2) */\n      0x08fc\n        /* \"decentralized_finance.sol\":2413:2414  2 */\n      0x02\n        /* \"decentralized_finance.sol\":2402:2412  loanAmount */\n      dup5\n        /* \"decentralized_finance.sol\":2402:2414  loanAmount/2 */\n      tag_250\n      swap2\n      swap1\n      tag_179\n      jump\t// in\n    tag_250:\n        /* \"decentralized_finance.sol\":2373:2415  payable(msg.sender).transfer(loanAmount/2) */\n      swap1\n      dup2\n      iszero\n      mul\n      swap1\n      mload(0x40)\n      0x00\n      mload(0x40)\n      dup1\n      dup4\n      sub\n      dup2\n      dup6\n      dup9\n      dup9\n      call\n      swap4\n      pop\n      pop\n      pop\n      pop\n      iszero\n      dup1\n      iszero\n      tag_252\n      jumpi\n      returndatasize\n      0x00\n      dup1\n      returndatacopy\n      revert(0x00, returndatasize)\n    tag_252:\n      pop\n        /* \"decentralized_finance.sol\":1638:2422  {... */\n      pop\n      pop\n      pop\n        /* \"decentralized_finance.sol\":1578:2422  function loan(uint256 dexAmount, uint256 deadline) external {... */\n      pop\n      pop\n      jump\t// out\n        /* \"@openzeppelin/contracts/utils/Context.sol\":640:736  function _msgSender() internal view virtual returns (address) {... */\n    tag_155:\n        /* \"@openzeppelin/contracts/utils/Context.sol\":693:700  address */\n      0x00\n        /* \"@openzeppelin/contracts/utils/Context.sol\":719:729  msg.sender */\n      caller\n        /* \"@openzeppelin/contracts/utils/Context.sol\":712:729  return msg.sender */\n      swap1\n      pop\n        /* \"@openzeppelin/contracts/utils/Context.sol\":640:736  function _msgSender() internal view virtual returns (address) {... */\n      swap1\n      jump\t// out\n        /* \"@openzeppelin/contracts/token/ERC20/ERC20.sol\":10504:10874  function _approve(... */\n    tag_157:\n        /* \"@openzeppelin/contracts/token/ERC20/ERC20.sol\":10652:10653  0 */\n      0x00\n        /* \"@openzeppelin/contracts/token/ERC20/ERC20.sol\":10635:10654  owner != address(0) */\n      0xffffffffffffffffffffffffffffffffffffffff\n      and\n        /* \"@openzeppelin/contracts/token/ERC20/ERC20.sol\":10635:10640  owner */\n      dup4\n        /* \"@openzeppelin/contracts/token/ERC20/ERC20.sol\":10635:10654  owner != address(0) */\n      0xffffffffffffffffffffffffffffffffffffffff\n      and\n      sub\n        /* \"@openzeppelin/contracts/token/ERC20/ERC20.sol\":10627:10695  require(owner != address(0), \"ERC20: approve from the zero address\") */\n      tag_255\n      jumpi\n      mload(0x40)\n      0x08c379a000000000000000000000000000000000000000000000000000000000\n      dup2\n      mstore\n      0x04\n      add\n      tag_256\n      swap1\n      tag_257\n      jump\t// in\n    tag_256:\n      mload(0x40)\n      dup1\n      swap2\n      sub\n      swap1\n      revert\n    tag_255:\n        /* \"@openzeppelin/contracts/token/ERC20/ERC20.sol\":10732:10733  0 */\n      0x00\n        /* \"@openzeppelin/contracts/token/ERC20/ERC20.sol\":10713:10734  spender != address(0) */\n      0xffffffffffffffffffffffffffffffffffffffff\n      and\n        /* \"@openzeppelin/contracts/token/ERC20/ERC20.sol\":10713:10720  spender */\n      dup3\n        /* \"@openzeppelin/contracts/token/ERC20/ERC20.sol\":10713:10734  spender != address(0) */\n      0xffffffffffffffffffffffffffffffffffffffff\n      and\n      sub\n        /* \"@openzeppelin/contracts/token/ERC20/ERC20.sol\":10705:10773  require(spender != address(0), \"ERC20: approve to the zero address\") */\n      tag_258\n      jumpi\n      mload(0x40)\n      0x08c379a000000000000000000000000000000000000000000000000000000000\n      dup2\n      mstore\n      0x04\n      add\n      tag_259\n      swap1\n      tag_260\n      jump\t// in\n    tag_259:\n      mload(0x40)\n      dup1\n      swap2\n      sub\n      swap1\n      revert\n    tag_258:\n        /* \"@openzeppelin/contracts/token/ERC20/ERC20.sol\":10814:10820  amount */\n      dup1\n        /* \"@openzeppelin/contracts/token/ERC20/ERC20.sol\":10784:10795  _allowances */\n      0x01\n        /* \"@openzeppelin/contracts/token/ERC20/ERC20.sol\":10784:10802  _allowances[owner] */\n      0x00\n        /* \"@openzeppelin/contracts/token/ERC20/ERC20.sol\":10796:10801  owner */\n      dup6\n        /* \"@openzeppelin/contracts/token/ERC20/ERC20.sol\":10784:10802  _allowances[owner] */\n      0xffffffffffffffffffffffffffffffffffffffff\n      and\n      0xffffffffffffffffffffffffffffffffffffffff\n      and\n      dup2\n      mstore\n      0x20\n      add\n      swap1\n      dup2\n      mstore\n      0x20\n      add\n      0x00\n      keccak256\n        /* \"@openzeppelin/contracts/token/ERC20/ERC20.sol\":10784:10811  _allowances[owner][spender] */\n      0x00\n        /* \"@openzeppelin/contracts/token/ERC20/ERC20.sol\":10803:10810  spender */\n      dup5\n        /* \"@openzeppelin/contracts/token/ERC20/ERC20.sol\":10784:10811  _allowances[owner][spender] */\n      0xffffffffffffffffffffffffffffffffffffffff\n      and\n      0xffffffffffffffffffffffffffffffffffffffff\n      and\n      dup2\n      mstore\n      0x20\n      add\n      swap1\n      dup2\n      mstore\n      0x20\n      add\n      0x00\n      keccak256\n        /* \"@openzeppelin/contracts/token/ERC20/ERC20.sol\":10784:10820  _allowances[owner][spender] = amount */\n      dup2\n      swap1\n      sstore\n      pop\n        /* \"@openzeppelin/contracts/token/ERC20/ERC20.sol\":10851:10858  spender */\n      dup2\n        /* \"@openzeppelin/contracts/token/ERC20/ERC20.sol\":10835:10867  Approval(owner, spender, amount) */\n      0xffffffffffffffffffffffffffffffffffffffff\n      and\n        /* \"@openzeppelin/contracts/token/ERC20/ERC20.sol\":10844:10849  owner */\n      dup4\n        /* \"@openzeppelin/contracts/token/ERC20/ERC20.sol\":10835:10867  Approval(owner, spender, amount) */\n      0xffffffffffffffffffffffffffffffffffffffff\n      and\n      0x8c5be1e5ebec7d5bd14f71427d1e84f3dd0314c0f7b2291e5b200ac8c7c3b925\n        /* \"@openzeppelin/contracts/token/ERC20/ERC20.sol\":10860:10866  amount */\n      dup4\n        /* \"@openzeppelin/contracts/token/ERC20/ERC20.sol\":10835:10867  Approval(owner, spender, amount) */\n      mload(0x40)\n      tag_261\n      swap2\n      swap1\n      tag_50\n      jump\t// in\n    tag_261:\n      mload(0x40)\n      dup1\n      swap2\n      sub\n      swap1\n      log3\n        /* \"@openzeppelin/contracts/token/ERC20/ERC20.sol\":10504:10874  function _approve(... */\n      pop\n      pop\n      pop\n      jump\t// out\n        /* \"@openzeppelin/contracts/token/ERC20/ERC20.sol\":11155:11596  function _spendAllowance(... */\n    tag_164:\n        /* \"@openzeppelin/contracts/token/ERC20/ERC20.sol\":11285:11309  uint256 currentAllowance */\n      0x00\n        /* \"@openzeppelin/contracts/token/ERC20/ERC20.sol\":11312:11337  allowance(owner, spender) */\n      tag_263\n        /* \"@openzeppelin/contracts/token/ERC20/ERC20.sol\":11322:11327  owner */\n      dup5\n        /* \"@openzeppelin/contracts/token/ERC20/ERC20.sol\":11329:11336  spender */\n      dup5\n        /* \"@openzeppelin/contracts/token/ERC20/ERC20.sol\":11312:11321  allowance */\n      tag_118\n        /* \"@openzeppelin/contracts/token/ERC20/ERC20.sol\":11312:11337  allowance(owner, spender) */\n      jump\t// in\n    tag_263:\n        /* \"@openzeppelin/contracts/token/ERC20/ERC20.sol\":11285:11337  uint256 currentAllowance = allowance(owner, spender) */\n      swap1\n      pop\n        /* \"@openzeppelin/contracts/token/ERC20/ERC20.sol\":11371:11388  type(uint256).max */\n      0xffffffffffffffffffffffffffffffffffffffffffffffffffffffffffffffff\n        /* \"@openzeppelin/contracts/token/ERC20/ERC20.sol\":11351:11367  currentAllowance */\n      dup2\n        /* \"@openzeppelin/contracts/token/ERC20/ERC20.sol\":11351:11388  currentAllowance != type(uint256).max */\n      eq\n        /* \"@openzeppelin/contracts/token/ERC20/ERC20.sol\":11347:11590  if (currentAllowance != type(uint256).max) {... */\n      tag_264\n      jumpi\n        /* \"@openzeppelin/contracts/token/ERC20/ERC20.sol\":11432:11438  amount */\n      dup2\n        /* \"@openzeppelin/contracts/token/ERC20/ERC20.sol\":11412:11428  currentAllowance */\n      dup2\n        /* \"@openzeppelin/contracts/token/ERC20/ERC20.sol\":11412:11438  currentAllowance >= amount */\n      lt\n      iszero\n        /* \"@openzeppelin/contracts/token/ERC20/ERC20.sol\":11404:11472  require(currentAllowance >= amount, \"ERC20: insufficient allowance\") */\n      tag_265\n      jumpi\n      mload(0x40)\n      0x08c379a000000000000000000000000000000000000000000000000000000000\n      dup2\n      mstore\n      0x04\n      add\n      tag_266\n      swap1\n      tag_267\n      jump\t// in\n    tag_266:\n      mload(0x40)\n      dup1\n      swap2\n      sub\n      swap1\n      revert\n    tag_265:\n        /* \"@openzeppelin/contracts/token/ERC20/ERC20.sol\":11514:11565  _approve(owner, spender, currentAllowance - amount) */\n      tag_268\n        /* \"@openzeppelin/contracts/token/ERC20/ERC20.sol\":11523:11528  owner */\n      dup5\n        /* \"@openzeppelin/contracts/token/ERC20/ERC20.sol\":11530:11537  spender */\n      dup5\n        /* \"@openzeppelin/contracts/token/ERC20/ERC20.sol\":11558:11564  amount */\n      dup5\n        /* \"@openzeppelin/contracts/token/ERC20/ERC20.sol\":11539:11555  currentAllowance */\n      dup5\n        /* \"@openzeppelin/contracts/token/ERC20/ERC20.sol\":11539:11564  currentAllowance - amount */\n      sub\n        /* \"@openzeppelin/contracts/token/ERC20/ERC20.sol\":11514:11522  _approve */\n      tag_157\n        /* \"@openzeppelin/contracts/token/ERC20/ERC20.sol\":11514:11565  _approve(owner, spender, currentAllowance - amount) */\n      jump\t// in\n    tag_268:\n        /* \"@openzeppelin/contracts/token/ERC20/ERC20.sol\":11347:11590  if (currentAllowance != type(uint256).max) {... */\n    tag_264:\n        /* \"@openzeppelin/contracts/token/ERC20/ERC20.sol\":11275:11596  {... */\n      pop\n        /* \"@openzeppelin/contracts/token/ERC20/ERC20.sol\":11155:11596  function _spendAllowance(... */\n      pop\n      pop\n      pop\n      jump\t// out\n        /* \"@openzeppelin/contracts/token/ERC20/ERC20.sol\":7473:8291  function _transfer(... */\n    tag_166:\n        /* \"@openzeppelin/contracts/token/ERC20/ERC20.sol\":7615:7616  0 */\n      0x00\n        /* \"@openzeppelin/contracts/token/ERC20/ERC20.sol\":7599:7617  from != address(0) */\n      0xffffffffffffffffffffffffffffffffffffffff\n      and\n        /* \"@openzeppelin/contracts/token/ERC20/ERC20.sol\":7599:7603  from */\n      dup4\n        /* \"@openzeppelin/contracts/token/ERC20/ERC20.sol\":7599:7617  from != address(0) */\n      0xffffffffffffffffffffffffffffffffffffffff\n      and\n      sub\n        /* \"@openzeppelin/contracts/token/ERC20/ERC20.sol\":7591:7659  require(from != address(0), \"ERC20: transfer from the zero address\") */\n      tag_270\n      jumpi\n      mload(0x40)\n      0x08c379a000000000000000000000000000000000000000000000000000000000\n      dup2\n      mstore\n      0x04\n      add\n      tag_271\n      swap1\n      tag_272\n      jump\t// in\n    tag_271:\n      mload(0x40)\n      dup1\n      swap2\n      sub\n      swap1\n      revert\n    tag_270:\n        /* \"@openzeppelin/contracts/token/ERC20/ERC20.sol\":7691:7692  0 */\n      0x00\n        /* \"@openzeppelin/contracts/token/ERC20/ERC20.sol\":7677:7693  to != address(0) */\n      0xffffffffffffffffffffffffffffffffffffffff\n      and\n        /* \"@openzeppelin/contracts/token/ERC20/ERC20.sol\":7677:7679  to */\n      dup3\n        /* \"@openzeppelin/contracts/token/ERC20/ERC20.sol\":7677:7693  to != address(0) */\n      0xffffffffffffffffffffffffffffffffffffffff\n      and\n      sub\n        /* \"@openzeppelin/contracts/token/ERC20/ERC20.sol\":7669:7733  require(to != address(0), \"ERC20: transfer to the zero address\") */\n      tag_273\n      jumpi\n      mload(0x40)\n      0x08c379a000000000000000000000000000000000000000000000000000000000\n      dup2\n      mstore\n      0x04\n      add\n      tag_274\n      swap1\n      tag_275\n      jump\t// in\n    tag_274:\n      mload(0x40)\n      dup1\n      swap2\n      sub\n      swap1\n      revert\n    tag_273:\n        /* \"@openzeppelin/contracts/token/ERC20/ERC20.sol\":7744:7782  _beforeTokenTransfer(from, to, amount) */\n      tag_276\n        /* \"@openzeppelin/contracts/token/ERC20/ERC20.sol\":7765:7769  from */\n      dup4\n        /* \"@openzeppelin/contracts/token/ERC20/ERC20.sol\":7771:7773  to */\n      dup4\n        /* \"@openzeppelin/contracts/token/ERC20/ERC20.sol\":7775:7781  amount */\n      dup4\n        /* \"@openzeppelin/contracts/token/ERC20/ERC20.sol\":7744:7764  _beforeTokenTransfer */\n      tag_277\n        /* \"@openzeppelin/contracts/token/ERC20/ERC20.sol\":7744:7782  _beforeTokenTransfer(from, to, amount) */\n      jump\t// in\n    tag_276:\n        /* \"@openzeppelin/contracts/token/ERC20/ERC20.sol\":7793:7812  uint256 fromBalance */\n      0x00\n        /* \"@openzeppelin/contracts/token/ERC20/ERC20.sol\":7815:7824  _balances */\n      dup1\n        /* \"@openzeppelin/contracts/token/ERC20/ERC20.sol\":7815:7830  _balances[from] */\n      0x00\n        /* \"@openzeppelin/contracts/token/ERC20/ERC20.sol\":7825:7829  from */\n      dup6\n        /* \"@openzeppelin/contracts/token/ERC20/ERC20.sol\":7815:7830  _balances[from] */\n      0xffffffffffffffffffffffffffffffffffffffff\n      and\n      0xffffffffffffffffffffffffffffffffffffffff\n      and\n      dup2\n      mstore\n      0x20\n      add\n      swap1\n      dup2\n      mstore\n      0x20\n      add\n      0x00\n      keccak256\n      sload\n        /* \"@openzeppelin/contracts/token/ERC20/ERC20.sol\":7793:7830  uint256 fromBalance = _balances[from] */\n      swap1\n      pop\n        /* \"@openzeppelin/contracts/token/ERC20/ERC20.sol\":7863:7869  amount */\n      dup2\n        /* \"@openzeppelin/contracts/token/ERC20/ERC20.sol\":7848:7859  fromBalance */\n      dup2\n        /* \"@openzeppelin/contracts/token/ERC20/ERC20.sol\":7848:7869  fromBalance >= amount */\n      lt\n      iszero\n        /* \"@openzeppelin/contracts/token/ERC20/ERC20.sol\":7840:7912  require(fromBalance >= amount, \"ERC20: transfer amount exceeds balance\") */\n      tag_278\n      jumpi\n      mload(0x40)\n      0x08c379a000000000000000000000000000000000000000000000000000000000\n      dup2\n      mstore\n      0x04\n      add\n      tag_279\n      swap1\n      tag_280\n      jump\t// in\n    tag_279:\n      mload(0x40)\n      dup1\n      swap2\n      sub\n      swap1\n      revert\n    tag_278:\n        /* \"@openzeppelin/contracts/token/ERC20/ERC20.sol\":7978:7984  amount */\n      dup2\n        /* \"@openzeppelin/contracts/token/ERC20/ERC20.sol\":7964:7975  fromBalance */\n      dup2\n        /* \"@openzeppelin/contracts/token/ERC20/ERC20.sol\":7964:7984  fromBalance - amount */\n      sub\n        /* \"@openzeppelin/contracts/token/ERC20/ERC20.sol\":7946:7955  _balances */\n      0x00\n        /* \"@openzeppelin/contracts/token/ERC20/ERC20.sol\":7946:7961  _balances[from] */\n      dup1\n        /* \"@openzeppelin/contracts/token/ERC20/ERC20.sol\":7956:7960  from */\n      dup7\n        /* \"@openzeppelin/contracts/token/ERC20/ERC20.sol\":7946:7961  _balances[from] */\n      0xffffffffffffffffffffffffffffffffffffffff\n      and\n      0xffffffffffffffffffffffffffffffffffffffff\n      and\n      dup2\n      mstore\n      0x20\n      add\n      swap1\n      dup2\n      mstore\n      0x20\n      add\n      0x00\n      keccak256\n        /* \"@openzeppelin/contracts/token/ERC20/ERC20.sol\":7946:7984  _balances[from] = fromBalance - amount */\n      dup2\n      swap1\n      sstore\n      pop\n        /* \"@openzeppelin/contracts/token/ERC20/ERC20.sol\":8178:8184  amount */\n      dup2\n        /* \"@openzeppelin/contracts/token/ERC20/ERC20.sol\":8161:8170  _balances */\n      0x00\n        /* \"@openzeppelin/contracts/token/ERC20/ERC20.sol\":8161:8174  _balances[to] */\n      dup1\n        /* \"@openzeppelin/contracts/token/ERC20/ERC20.sol\":8171:8173  to */\n      dup6\n        /* \"@openzeppelin/contracts/token/ERC20/ERC20.sol\":8161:8174  _balances[to] */\n      0xffffffffffffffffffffffffffffffffffffffff\n      and\n      0xffffffffffffffffffffffffffffffffffffffff\n      and\n      dup2\n      mstore\n      0x20\n      add\n      swap1\n      dup2\n      mstore\n      0x20\n      add\n      0x00\n      keccak256\n      0x00\n        /* \"@openzeppelin/contracts/token/ERC20/ERC20.sol\":8161:8184  _balances[to] += amount */\n      dup3\n      dup3\n      sload\n      add\n      swap3\n      pop\n      pop\n      dup2\n      swap1\n      sstore\n      pop\n        /* \"@openzeppelin/contracts/token/ERC20/ERC20.sol\":8225:8227  to */\n      dup3\n        /* \"@openzeppelin/contracts/token/ERC20/ERC20.sol\":8210:8236  Transfer(from, to, amount) */\n      0xffffffffffffffffffffffffffffffffffffffff\n      and\n        /* \"@openzeppelin/contracts/token/ERC20/ERC20.sol\":8219:8223  from */\n      dup5\n        /* \"@openzeppelin/contracts/token/ERC20/ERC20.sol\":8210:8236  Transfer(from, to, amount) */\n      0xffffffffffffffffffffffffffffffffffffffff\n      and\n      0xddf252ad1be2c89b69c2b068fc378daa952ba7f163c4a11628f55a4df523b3ef\n        /* \"@openzeppelin/contracts/token/ERC20/ERC20.sol\":8229:8235  amount */\n      dup5\n        /* \"@openzeppelin/contracts/token/ERC20/ERC20.sol\":8210:8236  Transfer(from, to, amount) */\n      mload(0x40)\n      tag_281\n      swap2\n      swap1\n      tag_50\n      jump\t// in\n    tag_281:\n      mload(0x40)\n      dup1\n      swap2\n      sub\n      swap1\n      log3\n        /* \"@openzeppelin/contracts/token/ERC20/ERC20.sol\":8247:8284  _afterTokenTransfer(from, to, amount) */\n      tag_282\n        /* \"@openzeppelin/contracts/token/ERC20/ERC20.sol\":8267:8271  from */\n      dup5\n        /* \"@openzeppelin/contracts/token/ERC20/ERC20.sol\":8273:8275  to */\n      dup5\n        /* \"@openzeppelin/contracts/token/ERC20/ERC20.sol\":8277:8283  amount */\n      dup5\n        /* \"@openzeppelin/contracts/token/ERC20/ERC20.sol\":8247:8266  _afterTokenTransfer */\n      tag_283\n        /* \"@openzeppelin/contracts/token/ERC20/ERC20.sol\":8247:8284  _afterTokenTransfer(from, to, amount) */\n      jump\t// in\n    tag_282:\n        /* \"@openzeppelin/contracts/token/ERC20/ERC20.sol\":7581:8291  {... */\n      pop\n        /* \"@openzeppelin/contracts/token/ERC20/ERC20.sol\":7473:8291  function _transfer(... */\n      pop\n      pop\n      pop\n      jump\t// out\n        /* \"@openzeppelin/contracts/token/ERC20/ERC20.sol\":12180:12301  function _beforeTokenTransfer(... */\n    tag_277:\n      pop\n      pop\n      pop\n      jump\t// out\n        /* \"@openzeppelin/contracts/token/ERC20/ERC20.sol\":12889:13009  function _afterTokenTransfer(... */\n    tag_283:\n      pop\n      pop\n      pop\n      jump\t// out\n    tag_244:\n      mload(0x40)\n      dup1\n      0x0100\n      add\n      0x40\n      mstore\n      dup1\n      0x00\n      dup2\n      mstore\n      0x20\n      add\n      0x00\n      dup2\n      mstore\n      0x20\n      add\n      0x00\n      dup2\n      mstore\n      0x20\n      add\n      and(0xffffffffffffffffffffffffffffffffffffffff, 0x00)\n      dup2\n      mstore\n      0x20\n      add\n      and(0xffffffffffffffffffffffffffffffffffffffff, 0x00)\n      dup2\n      mstore\n      0x20\n      add\n      iszero(iszero(0x00))\n      dup2\n      mstore\n      0x20\n      add\n      and(0xffffffffffffffffffffffffffffffffffffffff, 0x00)\n      dup2\n      mstore\n      0x20\n      add\n      0x00\n      dup2\n      mstore\n      pop\n      swap1\n      jump\t// out\n        /* \"#utility.yul\":88:205   */\n    tag_287:\n        /* \"#utility.yul\":197:198   */\n      0x00\n        /* \"#utility.yul\":194:195   */\n      dup1\n        /* \"#utility.yul\":187:199   */\n      revert\n        /* \"#utility.yul\":334:411   */\n    tag_289:\n        /* \"#utility.yul\":371:378   */\n      0x00\n        /* \"#utility.yul\":400:405   */\n      dup2\n        /* \"#utility.yul\":389:405   */\n      swap1\n      pop\n        /* \"#utility.yul\":334:411   */\n      swap2\n      swap1\n      pop\n      jump\t// out\n        /* \"#utility.yul\":417:539   */\n    tag_290:\n        /* \"#utility.yul\":490:514   */\n      tag_346\n        /* \"#utility.yul\":508:513   */\n      dup2\n        /* \"#utility.yul\":490:514   */\n      tag_289\n      jump\t// in\n    tag_346:\n        /* \"#utility.yul\":483:488   */\n      dup2\n        /* \"#utility.yul\":480:515   */\n      eq\n        /* \"#utility.yul\":470:533   */\n      tag_347\n      jumpi\n        /* \"#utility.yul\":529:530   */\n      0x00\n        /* \"#utility.yul\":526:527   */\n      dup1\n        /* \"#utility.yul\":519:531   */\n      revert\n        /* \"#utility.yul\":470:533   */\n    tag_347:\n        /* \"#utility.yul\":417:539   */\n      pop\n      jump\t// out\n        /* \"#utility.yul\":545:684   */\n    tag_291:\n        /* \"#utility.yul\":591:596   */\n      0x00\n        /* \"#utility.yul\":629:635   */\n      dup2\n        /* \"#utility.yul\":616:636   */\n      calldataload\n        /* \"#utility.yul\":607:636   */\n      swap1\n      pop\n        /* \"#utility.yul\":645:678   */\n      tag_349\n        /* \"#utility.yul\":672:677   */\n      dup2\n        /* \"#utility.yul\":645:678   */\n      tag_290\n      jump\t// in\n    tag_349:\n        /* \"#utility.yul\":545:684   */\n      swap3\n      swap2\n      pop\n      pop\n      jump\t// out\n        /* \"#utility.yul\":690:1019   */\n    tag_32:\n        /* \"#utility.yul\":749:755   */\n      0x00\n        /* \"#utility.yul\":798:800   */\n      0x20\n        /* \"#utility.yul\":786:795   */\n      dup3\n        /* \"#utility.yul\":777:784   */\n      dup5\n        /* \"#utility.yul\":773:796   */\n      sub\n        /* \"#utility.yul\":769:801   */\n      slt\n        /* \"#utility.yul\":766:885   */\n      iszero\n      tag_351\n      jumpi\n        /* \"#utility.yul\":804:883   */\n      tag_352\n      tag_287\n      jump\t// in\n    tag_352:\n        /* \"#utility.yul\":766:885   */\n    tag_351:\n        /* \"#utility.yul\":924:925   */\n      0x00\n        /* \"#utility.yul\":949:1002   */\n      tag_353\n        /* \"#utility.yul\":994:1001   */\n      dup5\n        /* \"#utility.yul\":985:991   */\n      dup3\n        /* \"#utility.yul\":974:983   */\n      dup6\n        /* \"#utility.yul\":970:992   */\n      add\n        /* \"#utility.yul\":949:1002   */\n      tag_291\n      jump\t// in\n    tag_353:\n        /* \"#utility.yul\":939:1002   */\n      swap2\n      pop\n        /* \"#utility.yul\":895:1012   */\n      pop\n        /* \"#utility.yul\":690:1019   */\n      swap3\n      swap2\n      pop\n      pop\n      jump\t// out\n        /* \"#utility.yul\":1025:1124   */\n    tag_292:\n        /* \"#utility.yul\":1077:1083   */\n      0x00\n        /* \"#utility.yul\":1111:1116   */\n      dup2\n        /* \"#utility.yul\":1105:1117   */\n      mload\n        /* \"#utility.yul\":1095:1117   */\n      swap1\n      pop\n        /* \"#utility.yul\":1025:1124   */\n      swap2\n      swap1\n      pop\n      jump\t// out\n        /* \"#utility.yul\":1130:1299   */\n    tag_293:\n        /* \"#utility.yul\":1214:1225   */\n      0x00\n        /* \"#utility.yul\":1248:1254   */\n      dup3\n        /* \"#utility.yul\":1243:1246   */\n      dup3\n        /* \"#utility.yul\":1236:1255   */\n      mstore\n        /* \"#utility.yul\":1288:1292   */\n      0x20\n        /* \"#utility.yul\":1283:1286   */\n      dup3\n        /* \"#utility.yul\":1279:1293   */\n      add\n        /* \"#utility.yul\":1264:1293   */\n      swap1\n      pop\n        /* \"#utility.yul\":1130:1299   */\n      swap3\n      swap2\n      pop\n      pop\n      jump\t// out\n        /* \"#utility.yul\":1305:1551   */\n    tag_294:\n        /* \"#utility.yul\":1386:1387   */\n      0x00\n        /* \"#utility.yul\":1396:1509   */\n    tag_357:\n        /* \"#utility.yul\":1410:1416   */\n      dup4\n        /* \"#utility.yul\":1407:1408   */\n      dup2\n        /* \"#utility.yul\":1404:1417   */\n      lt\n        /* \"#utility.yul\":1396:1509   */\n      iszero\n      tag_359\n      jumpi\n        /* \"#utility.yul\":1495:1496   */\n      dup1\n        /* \"#utility.yul\":1490:1493   */\n      dup3\n        /* \"#utility.yul\":1486:1497   */\n      add\n        /* \"#utility.yul\":1480:1498   */\n      mload\n        /* \"#utility.yul\":1476:1477   */\n      dup2\n        /* \"#utility.yul\":1471:1474   */\n      dup5\n        /* \"#utility.yul\":1467:1478   */\n      add\n        /* \"#utility.yul\":1460:1499   */\n      mstore\n        /* \"#utility.yul\":1432:1434   */\n      0x20\n        /* \"#utility.yul\":1429:1430   */\n      dup2\n        /* \"#utility.yul\":1425:1435   */\n      add\n        /* \"#utility.yul\":1420:1435   */\n      swap1\n      pop\n        /* \"#utility.yul\":1396:1509   */\n      jump(tag_357)\n    tag_359:\n        /* \"#utility.yul\":1543:1544   */\n      0x00\n        /* \"#utility.yul\":1534:1540   */\n      dup5\n        /* \"#utility.yul\":1529:1532   */\n      dup5\n        /* \"#utility.yul\":1525:1541   */\n      add\n        /* \"#utility.yul\":1518:1545   */\n      mstore\n        /* \"#utility.yul\":1367:1551   */\n      pop\n        /* \"#utility.yul\":1305:1551   */\n      pop\n      pop\n      pop\n      jump\t// out\n        /* \"#utility.yul\":1557:1659   */\n    tag_295:\n        /* \"#utility.yul\":1598:1604   */\n      0x00\n        /* \"#utility.yul\":1649:1651   */\n      0x1f\n        /* \"#utility.yul\":1645:1652   */\n      not\n        /* \"#utility.yul\":1640:1642   */\n      0x1f\n        /* \"#utility.yul\":1633:1638   */\n      dup4\n        /* \"#utility.yul\":1629:1643   */\n      add\n        /* \"#utility.yul\":1625:1653   */\n      and\n        /* \"#utility.yul\":1615:1653   */\n      swap1\n      pop\n        /* \"#utility.yul\":1557:1659   */\n      swap2\n      swap1\n      pop\n      jump\t// out\n        /* \"#utility.yul\":1665:2042   */\n    tag_296:\n        /* \"#utility.yul\":1753:1756   */\n      0x00\n        /* \"#utility.yul\":1781:1820   */\n      tag_362\n        /* \"#utility.yul\":1814:1819   */\n      dup3\n        /* \"#utility.yul\":1781:1820   */\n      tag_292\n      jump\t// in\n    tag_362:\n        /* \"#utility.yul\":1836:1907   */\n      tag_363\n        /* \"#utility.yul\":1900:1906   */\n      dup2\n        /* \"#utility.yul\":1895:1898   */\n      dup6\n        /* \"#utility.yul\":1836:1907   */\n      tag_293\n      jump\t// in\n    tag_363:\n        /* \"#utility.yul\":1829:1907   */\n      swap4\n      pop\n        /* \"#utility.yul\":1916:1981   */\n      tag_364\n        /* \"#utility.yul\":1974:1980   */\n      dup2\n        /* \"#utility.yul\":1969:1972   */\n      dup6\n        /* \"#utility.yul\":1962:1966   */\n      0x20\n        /* \"#utility.yul\":1955:1960   */\n      dup7\n        /* \"#utility.yul\":1951:1967   */\n      add\n        /* \"#utility.yul\":1916:1981   */\n      tag_294\n      jump\t// in\n    tag_364:\n        /* \"#utility.yul\":2006:2035   */\n      tag_365\n        /* \"#utility.yul\":2028:2034   */\n      dup2\n        /* \"#utility.yul\":2006:2035   */\n      tag_295\n      jump\t// in\n    tag_365:\n        /* \"#utility.yul\":2001:2004   */\n      dup5\n        /* \"#utility.yul\":1997:2036   */\n      add\n        /* \"#utility.yul\":1990:2036   */\n      swap2\n      pop\n        /* \"#utility.yul\":1757:2042   */\n      pop\n        /* \"#utility.yul\":1665:2042   */\n      swap3\n      swap2\n      pop\n      pop\n      jump\t// out\n        /* \"#utility.yul\":2048:2361   */\n    tag_38:\n        /* \"#utility.yul\":2161:2165   */\n      0x00\n        /* \"#utility.yul\":2199:2201   */\n      0x20\n        /* \"#utility.yul\":2188:2197   */\n      dup3\n        /* \"#utility.yul\":2184:2202   */\n      add\n        /* \"#utility.yul\":2176:2202   */\n      swap1\n      pop\n        /* \"#utility.yul\":2248:2257   */\n      dup2\n        /* \"#utility.yul\":2242:2246   */\n      dup2\n        /* \"#utility.yul\":2238:2258   */\n      sub\n        /* \"#utility.yul\":2234:2235   */\n      0x00\n        /* \"#utility.yul\":2223:2232   */\n      dup4\n        /* \"#utility.yul\":2219:2236   */\n      add\n        /* \"#utility.yul\":2212:2259   */\n      mstore\n        /* \"#utility.yul\":2276:2354   */\n      tag_367\n        /* \"#utility.yul\":2349:2353   */\n      dup2\n        /* \"#utility.yul\":2340:2346   */\n      dup5\n        /* \"#utility.yul\":2276:2354   */\n      tag_296\n      jump\t// in\n    tag_367:\n        /* \"#utility.yul\":2268:2354   */\n      swap1\n      pop\n        /* \"#utility.yul\":2048:2361   */\n      swap3\n      swap2\n      pop\n      pop\n      jump\t// out\n        /* \"#utility.yul\":2367:2493   */\n    tag_297:\n        /* \"#utility.yul\":2404:2411   */\n      0x00\n        /* \"#utility.yul\":2444:2486   */\n      0xffffffffffffffffffffffffffffffffffffffff\n        /* \"#utility.yul\":2437:2442   */\n      dup3\n        /* \"#utility.yul\":2433:2487   */\n      and\n        /* \"#utility.yul\":2422:2487   */\n      swap1\n      pop\n        /* \"#utility.yul\":2367:2493   */\n      swap2\n      swap1\n      pop\n      jump\t// out\n        /* \"#utility.yul\":2499:2595   */\n    tag_298:\n        /* \"#utility.yul\":2536:2543   */\n      0x00\n        /* \"#utility.yul\":2565:2589   */\n      tag_370\n        /* \"#utility.yul\":2583:2588   */\n      dup3\n        /* \"#utility.yul\":2565:2589   */\n      tag_297\n      jump\t// in\n    tag_370:\n        /* \"#utility.yul\":2554:2589   */\n      swap1\n      pop\n        /* \"#utility.yul\":2499:2595   */\n      swap2\n      swap1\n      pop\n      jump\t// out\n        /* \"#utility.yul\":2601:2723   */\n    tag_299:\n        /* \"#utility.yul\":2674:2698   */\n      tag_372\n        /* \"#utility.yul\":2692:2697   */\n      dup2\n        /* \"#utility.yul\":2674:2698   */\n      tag_298\n      jump\t// in\n    tag_372:\n        /* \"#utility.yul\":2667:2672   */\n      dup2\n        /* \"#utility.yul\":2664:2699   */\n      eq\n        /* \"#utility.yul\":2654:2717   */\n      tag_373\n      jumpi\n        /* \"#utility.yul\":2713:2714   */\n      0x00\n        /* \"#utility.yul\":2710:2711   */\n      dup1\n        /* \"#utility.yul\":2703:2715   */\n      revert\n        /* \"#utility.yul\":2654:2717   */\n    tag_373:\n        /* \"#utility.yul\":2601:2723   */\n      pop\n      jump\t// out\n        /* \"#utility.yul\":2729:2868   */\n    tag_300:\n        /* \"#utility.yul\":2775:2780   */\n      0x00\n        /* \"#utility.yul\":2813:2819   */\n      dup2\n        /* \"#utility.yul\":2800:2820   */\n      calldataload\n        /* \"#utility.yul\":2791:2820   */\n      swap1\n      pop\n        /* \"#utility.yul\":2829:2862   */\n      tag_375\n        /* \"#utility.yul\":2856:2861   */\n      dup2\n        /* \"#utility.yul\":2829:2862   */\n      tag_299\n      jump\t// in\n    tag_375:\n        /* \"#utility.yul\":2729:2868   */\n      swap3\n      swap2\n      pop\n      pop\n      jump\t// out\n        /* \"#utility.yul\":2874:3348   */\n    tag_42:\n        /* \"#utility.yul\":2942:2948   */\n      0x00\n        /* \"#utility.yul\":2950:2956   */\n      dup1\n        /* \"#utility.yul\":2999:3001   */\n      0x40\n        /* \"#utility.yul\":2987:2996   */\n      dup4\n        /* \"#utility.yul\":2978:2985   */\n      dup6\n        /* \"#utility.yul\":2974:2997   */\n      sub\n        /* \"#utility.yul\":2970:3002   */\n      slt\n        /* \"#utility.yul\":2967:3086   */\n      iszero\n      tag_377\n      jumpi\n        /* \"#utility.yul\":3005:3084   */\n      tag_378\n      tag_287\n      jump\t// in\n    tag_378:\n        /* \"#utility.yul\":2967:3086   */\n    tag_377:\n        /* \"#utility.yul\":3125:3126   */\n      0x00\n        /* \"#utility.yul\":3150:3203   */\n      tag_379\n        /* \"#utility.yul\":3195:3202   */\n      dup6\n        /* \"#utility.yul\":3186:3192   */\n      dup3\n        /* \"#utility.yul\":3175:3184   */\n      dup7\n        /* \"#utility.yul\":3171:3193   */\n      add\n        /* \"#utility.yul\":3150:3203   */\n      tag_300\n      jump\t// in\n    tag_379:\n        /* \"#utility.yul\":3140:3203   */\n      swap3\n      pop\n        /* \"#utility.yul\":3096:3213   */\n      pop\n        /* \"#utility.yul\":3252:3254   */\n      0x20\n        /* \"#utility.yul\":3278:3331   */\n      tag_380\n        /* \"#utility.yul\":3323:3330   */\n      dup6\n        /* \"#utility.yul\":3314:3320   */\n      dup3\n        /* \"#utility.yul\":3303:3312   */\n      dup7\n        /* \"#utility.yul\":3299:3321   */\n      add\n        /* \"#utility.yul\":3278:3331   */\n      tag_291\n      jump\t// in\n    tag_380:\n        /* \"#utility.yul\":3268:3331   */\n      swap2\n      pop\n        /* \"#utility.yul\":3223:3341   */\n      pop\n        /* \"#utility.yul\":2874:3348   */\n      swap3\n      pop\n      swap3\n      swap1\n      pop\n      jump\t// out\n        /* \"#utility.yul\":3354:3444   */\n    tag_301:\n        /* \"#utility.yul\":3388:3395   */\n      0x00\n        /* \"#utility.yul\":3431:3436   */\n      dup2\n        /* \"#utility.yul\":3424:3437   */\n      iszero\n        /* \"#utility.yul\":3417:3438   */\n      iszero\n        /* \"#utility.yul\":3406:3438   */\n      swap1\n      pop\n        /* \"#utility.yul\":3354:3444   */\n      swap2\n      swap1\n      pop\n      jump\t// out\n        /* \"#utility.yul\":3450:3559   */\n    tag_302:\n        /* \"#utility.yul\":3531:3552   */\n      tag_383\n        /* \"#utility.yul\":3546:3551   */\n      dup2\n        /* \"#utility.yul\":3531:3552   */\n      tag_301\n      jump\t// in\n    tag_383:\n        /* \"#utility.yul\":3526:3529   */\n      dup3\n        /* \"#utility.yul\":3519:3553   */\n      mstore\n        /* \"#utility.yul\":3450:3559   */\n      pop\n      pop\n      jump\t// out\n        /* \"#utility.yul\":3565:3775   */\n    tag_45:\n        /* \"#utility.yul\":3652:3656   */\n      0x00\n        /* \"#utility.yul\":3690:3692   */\n      0x20\n        /* \"#utility.yul\":3679:3688   */\n      dup3\n        /* \"#utility.yul\":3675:3693   */\n      add\n        /* \"#utility.yul\":3667:3693   */\n      swap1\n      pop\n        /* \"#utility.yul\":3703:3768   */\n      tag_385\n        /* \"#utility.yul\":3765:3766   */\n      0x00\n        /* \"#utility.yul\":3754:3763   */\n      dup4\n        /* \"#utility.yul\":3750:3767   */\n      add\n        /* \"#utility.yul\":3741:3747   */\n      dup5\n        /* \"#utility.yul\":3703:3768   */\n      tag_302\n      jump\t// in\n    tag_385:\n        /* \"#utility.yul\":3565:3775   */\n      swap3\n      swap2\n      pop\n      pop\n      jump\t// out\n        /* \"#utility.yul\":3781:3899   */\n    tag_303:\n        /* \"#utility.yul\":3868:3892   */\n      tag_387\n        /* \"#utility.yul\":3886:3891   */\n      dup2\n        /* \"#utility.yul\":3868:3892   */\n      tag_289\n      jump\t// in\n    tag_387:\n        /* \"#utility.yul\":3863:3866   */\n      dup3\n        /* \"#utility.yul\":3856:3893   */\n      mstore\n        /* \"#utility.yul\":3781:3899   */\n      pop\n      pop\n      jump\t// out\n        /* \"#utility.yul\":3905:4127   */\n    tag_50:\n        /* \"#utility.yul\":3998:4002   */\n      0x00\n        /* \"#utility.yul\":4036:4038   */\n      0x20\n        /* \"#utility.yul\":4025:4034   */\n      dup3\n        /* \"#utility.yul\":4021:4039   */\n      add\n        /* \"#utility.yul\":4013:4039   */\n      swap1\n      pop\n        /* \"#utility.yul\":4049:4120   */\n      tag_389\n        /* \"#utility.yul\":4117:4118   */\n      0x00\n        /* \"#utility.yul\":4106:4115   */\n      dup4\n        /* \"#utility.yul\":4102:4119   */\n      add\n        /* \"#utility.yul\":4093:4099   */\n      dup5\n        /* \"#utility.yul\":4049:4120   */\n      tag_303\n      jump\t// in\n    tag_389:\n        /* \"#utility.yul\":3905:4127   */\n      swap3\n      swap2\n      pop\n      pop\n      jump\t// out\n        /* \"#utility.yul\":4133:4752   */\n    tag_58:\n        /* \"#utility.yul\":4210:4216   */\n      0x00\n        /* \"#utility.yul\":4218:4224   */\n      dup1\n        /* \"#utility.yul\":4226:4232   */\n      0x00\n        /* \"#utility.yul\":4275:4277   */\n      0x60\n        /* \"#utility.yul\":4263:4272   */\n      dup5\n        /* \"#utility.yul\":4254:4261   */\n      dup7\n        /* \"#utility.yul\":4250:4273   */\n      sub\n        /* \"#utility.yul\":4246:4278   */\n      slt\n        /* \"#utility.yul\":4243:4362   */\n      iszero\n      tag_391\n      jumpi\n        /* \"#utility.yul\":4281:4360   */\n      tag_392\n      tag_287\n      jump\t// in\n    tag_392:\n        /* \"#utility.yul\":4243:4362   */\n    tag_391:\n        /* \"#utility.yul\":4401:4402   */\n      0x00\n        /* \"#utility.yul\":4426:4479   */\n      tag_393\n        /* \"#utility.yul\":4471:4478   */\n      dup7\n        /* \"#utility.yul\":4462:4468   */\n      dup3\n        /* \"#utility.yul\":4451:4460   */\n      dup8\n        /* \"#utility.yul\":4447:4469   */\n      add\n        /* \"#utility.yul\":4426:4479   */\n      tag_300\n      jump\t// in\n    tag_393:\n        /* \"#utility.yul\":4416:4479   */\n      swap4\n      pop\n        /* \"#utility.yul\":4372:4489   */\n      pop\n        /* \"#utility.yul\":4528:4530   */\n      0x20\n        /* \"#utility.yul\":4554:4607   */\n      tag_394\n        /* \"#utility.yul\":4599:4606   */\n      dup7\n        /* \"#utility.yul\":4590:4596   */\n      dup3\n        /* \"#utility.yul\":4579:4588   */\n      dup8\n        /* \"#utility.yul\":4575:4597   */\n      add\n        /* \"#utility.yul\":4554:4607   */\n      tag_300\n      jump\t// in\n    tag_394:\n        /* \"#utility.yul\":4544:4607   */\n      swap3\n      pop\n        /* \"#utility.yul\":4499:4617   */\n      pop\n        /* \"#utility.yul\":4656:4658   */\n      0x40\n        /* \"#utility.yul\":4682:4735   */\n      tag_395\n        /* \"#utility.yul\":4727:4734   */\n      dup7\n        /* \"#utility.yul\":4718:4724   */\n      dup3\n        /* \"#utility.yul\":4707:4716   */\n      dup8\n        /* \"#utility.yul\":4703:4725   */\n      add\n        /* \"#utility.yul\":4682:4735   */\n      tag_291\n      jump\t// in\n    tag_395:\n        /* \"#utility.yul\":4672:4735   */\n      swap2\n      pop\n        /* \"#utility.yul\":4627:4745   */\n      pop\n        /* \"#utility.yul\":4133:4752   */\n      swap3\n      pop\n      swap3\n      pop\n      swap3\n      jump\t// out\n        /* \"#utility.yul\":4758:4869   */\n    tag_304:\n        /* \"#utility.yul\":4810:4817   */\n      0x00\n        /* \"#utility.yul\":4839:4863   */\n      tag_397\n        /* \"#utility.yul\":4857:4862   */\n      dup3\n        /* \"#utility.yul\":4839:4863   */\n      tag_298\n      jump\t// in\n    tag_397:\n        /* \"#utility.yul\":4828:4863   */\n      swap1\n      pop\n        /* \"#utility.yul\":4758:4869   */\n      swap2\n      swap1\n      pop\n      jump\t// out\n        /* \"#utility.yul\":4875:5027   */\n    tag_305:\n        /* \"#utility.yul\":4963:5002   */\n      tag_399\n        /* \"#utility.yul\":4996:5001   */\n      dup2\n        /* \"#utility.yul\":4963:5002   */\n      tag_304\n      jump\t// in\n    tag_399:\n        /* \"#utility.yul\":4956:4961   */\n      dup2\n        /* \"#utility.yul\":4953:5003   */\n      eq\n        /* \"#utility.yul\":4943:5021   */\n      tag_400\n      jumpi\n        /* \"#utility.yul\":5017:5018   */\n      0x00\n        /* \"#utility.yul\":5014:5015   */\n      dup1\n        /* \"#utility.yul\":5007:5019   */\n      revert\n        /* \"#utility.yul\":4943:5021   */\n    tag_400:\n        /* \"#utility.yul\":4875:5027   */\n      pop\n      jump\t// out\n        /* \"#utility.yul\":5033:5202   */\n    tag_306:\n        /* \"#utility.yul\":5094:5099   */\n      0x00\n        /* \"#utility.yul\":5132:5138   */\n      dup2\n        /* \"#utility.yul\":5119:5139   */\n      calldataload\n        /* \"#utility.yul\":5110:5139   */\n      swap1\n      pop\n        /* \"#utility.yul\":5148:5196   */\n      tag_402\n        /* \"#utility.yul\":5190:5195   */\n      dup2\n        /* \"#utility.yul\":5148:5196   */\n      tag_305\n      jump\t// in\n    tag_402:\n        /* \"#utility.yul\":5033:5202   */\n      swap3\n      swap2\n      pop\n      pop\n      jump\t// out\n        /* \"#utility.yul\":5208:6003   */\n    tag_64:\n        /* \"#utility.yul\":5309:5315   */\n      0x00\n        /* \"#utility.yul\":5317:5323   */\n      dup1\n        /* \"#utility.yul\":5325:5331   */\n      0x00\n        /* \"#utility.yul\":5333:5339   */\n      dup1\n        /* \"#utility.yul\":5382:5385   */\n      0x80\n        /* \"#utility.yul\":5370:5379   */\n      dup6\n        /* \"#utility.yul\":5361:5368   */\n      dup8\n        /* \"#utility.yul\":5357:5380   */\n      sub\n        /* \"#utility.yul\":5353:5386   */\n      slt\n        /* \"#utility.yul\":5350:5470   */\n      iszero\n      tag_404\n      jumpi\n        /* \"#utility.yul\":5389:5468   */\n      tag_405\n      tag_287\n      jump\t// in\n    tag_405:\n        /* \"#utility.yul\":5350:5470   */\n    tag_404:\n        /* \"#utility.yul\":5509:5510   */\n      0x00\n        /* \"#utility.yul\":5534:5602   */\n      tag_406\n        /* \"#utility.yul\":5594:5601   */\n      dup8\n        /* \"#utility.yul\":5585:5591   */\n      dup3\n        /* \"#utility.yul\":5574:5583   */\n      dup9\n        /* \"#utility.yul\":5570:5592   */\n      add\n        /* \"#utility.yul\":5534:5602   */\n      tag_306\n      jump\t// in\n    tag_406:\n        /* \"#utility.yul\":5524:5602   */\n      swap5\n      pop\n        /* \"#utility.yul\":5480:5612   */\n      pop\n        /* \"#utility.yul\":5651:5653   */\n      0x20\n        /* \"#utility.yul\":5677:5730   */\n      tag_407\n        /* \"#utility.yul\":5722:5729   */\n      dup8\n        /* \"#utility.yul\":5713:5719   */\n      dup3\n        /* \"#utility.yul\":5702:5711   */\n      dup9\n        /* \"#utility.yul\":5698:5720   */\n      add\n        /* \"#utility.yul\":5677:5730   */\n      tag_291\n      jump\t// in\n    tag_407:\n        /* \"#utility.yul\":5667:5730   */\n      swap4\n      pop\n        /* \"#utility.yul\":5622:5740   */\n      pop\n        /* \"#utility.yul\":5779:5781   */\n      0x40\n        /* \"#utility.yul\":5805:5858   */\n      tag_408\n        /* \"#utility.yul\":5850:5857   */\n      dup8\n        /* \"#utility.yul\":5841:5847   */\n      dup3\n        /* \"#utility.yul\":5830:5839   */\n      dup9\n        /* \"#utility.yul\":5826:5848   */\n      add\n        /* \"#utility.yul\":5805:5858   */\n      tag_291\n      jump\t// in\n    tag_408:\n        /* \"#utility.yul\":5795:5858   */\n      swap3\n      pop\n        /* \"#utility.yul\":5750:5868   */\n      pop\n        /* \"#utility.yul\":5907:5909   */\n      0x60\n        /* \"#utility.yul\":5933:5986   */\n      tag_409\n        /* \"#utility.yul\":5978:5985   */\n      dup8\n        /* \"#utility.yul\":5969:5975   */\n      dup3\n        /* \"#utility.yul\":5958:5967   */\n      dup9\n        /* \"#utility.yul\":5954:5976   */\n      add\n        /* \"#utility.yul\":5933:5986   */\n      tag_291\n      jump\t// in\n    tag_409:\n        /* \"#utility.yul\":5923:5986   */\n      swap2\n      pop\n        /* \"#utility.yul\":5878:5996   */\n      pop\n        /* \"#utility.yul\":5208:6003   */\n      swap3\n      swap6\n      swap2\n      swap5\n      pop\n      swap3\n      pop\n      jump\t// out\n        /* \"#utility.yul\":6009:6513   */\n    tag_69:\n        /* \"#utility.yul\":6092:6098   */\n      0x00\n        /* \"#utility.yul\":6100:6106   */\n      dup1\n        /* \"#utility.yul\":6149:6151   */\n      0x40\n        /* \"#utility.yul\":6137:6146   */\n      dup4\n        /* \"#utility.yul\":6128:6135   */\n      dup6\n        /* \"#utility.yul\":6124:6147   */\n      sub\n        /* \"#utility.yul\":6120:6152   */\n      slt\n        /* \"#utility.yul\":6117:6236   */\n      iszero\n      tag_411\n      jumpi\n        /* \"#utility.yul\":6155:6234   */\n      tag_412\n      tag_287\n      jump\t// in\n    tag_412:\n        /* \"#utility.yul\":6117:6236   */\n    tag_411:\n        /* \"#utility.yul\":6275:6276   */\n      0x00\n        /* \"#utility.yul\":6300:6368   */\n      tag_413\n        /* \"#utility.yul\":6360:6367   */\n      dup6\n        /* \"#utility.yul\":6351:6357   */\n      dup3\n        /* \"#utility.yul\":6340:6349   */\n      dup7\n        /* \"#utility.yul\":6336:6358   */\n      add\n        /* \"#utility.yul\":6300:6368   */\n      tag_306\n      jump\t// in\n    tag_413:\n        /* \"#utility.yul\":6290:6368   */\n      swap3\n      pop\n        /* \"#utility.yul\":6246:6378   */\n      pop\n        /* \"#utility.yul\":6417:6419   */\n      0x20\n        /* \"#utility.yul\":6443:6496   */\n      tag_414\n        /* \"#utility.yul\":6488:6495   */\n      dup6\n        /* \"#utility.yul\":6479:6485   */\n      dup3\n        /* \"#utility.yul\":6468:6477   */\n      dup7\n        /* \"#utility.yul\":6464:6486   */\n      add\n        /* \"#utility.yul\":6443:6496   */\n      tag_291\n      jump\t// in\n    tag_414:\n        /* \"#utility.yul\":6433:6496   */\n      swap2\n      pop\n        /* \"#utility.yul\":6388:6506   */\n      pop\n        /* \"#utility.yul\":6009:6513   */\n      swap3\n      pop\n      swap3\n      swap1\n      pop\n      jump\t// out\n        /* \"#utility.yul\":6519:6605   */\n    tag_307:\n        /* \"#utility.yul\":6554:6561   */\n      0x00\n        /* \"#utility.yul\":6594:6598   */\n      0xff\n        /* \"#utility.yul\":6587:6592   */\n      dup3\n        /* \"#utility.yul\":6583:6599   */\n      and\n        /* \"#utility.yul\":6572:6599   */\n      swap1\n      pop\n        /* \"#utility.yul\":6519:6605   */\n      swap2\n      swap1\n      pop\n      jump\t// out\n        /* \"#utility.yul\":6611:6723   */\n    tag_308:\n        /* \"#utility.yul\":6694:6716   */\n      tag_417\n        /* \"#utility.yul\":6710:6715   */\n      dup2\n        /* \"#utility.yul\":6694:6716   */\n      tag_307\n      jump\t// in\n    tag_417:\n        /* \"#utility.yul\":6689:6692   */\n      dup3\n        /* \"#utility.yul\":6682:6717   */\n      mstore\n        /* \"#utility.yul\":6611:6723   */\n      pop\n      pop\n      jump\t// out\n        /* \"#utility.yul\":6729:6943   */\n    tag_75:\n        /* \"#utility.yul\":6818:6822   */\n      0x00\n        /* \"#utility.yul\":6856:6858   */\n      0x20\n        /* \"#utility.yul\":6845:6854   */\n      dup3\n        /* \"#utility.yul\":6841:6859   */\n      add\n        /* \"#utility.yul\":6833:6859   */\n      swap1\n      pop\n        /* \"#utility.yul\":6869:6936   */\n      tag_419\n        /* \"#utility.yul\":6933:6934   */\n      0x00\n        /* \"#utility.yul\":6922:6931   */\n      dup4\n        /* \"#utility.yul\":6918:6935   */\n      add\n        /* \"#utility.yul\":6909:6915   */\n      dup5\n        /* \"#utility.yul\":6869:6936   */\n      tag_308\n      jump\t// in\n    tag_419:\n        /* \"#utility.yul\":6729:6943   */\n      swap3\n      swap2\n      pop\n      pop\n      jump\t// out\n        /* \"#utility.yul\":6949:7278   */\n    tag_84:\n        /* \"#utility.yul\":7008:7014   */\n      0x00\n        /* \"#utility.yul\":7057:7059   */\n      0x20\n        /* \"#utility.yul\":7045:7054   */\n      dup3\n        /* \"#utility.yul\":7036:7043   */\n      dup5\n        /* \"#utility.yul\":7032:7055   */\n      sub\n        /* \"#utility.yul\":7028:7060   */\n      slt\n        /* \"#utility.yul\":7025:7144   */\n      iszero\n      tag_421\n      jumpi\n        /* \"#utility.yul\":7063:7142   */\n      tag_422\n      tag_287\n      jump\t// in\n    tag_422:\n        /* \"#utility.yul\":7025:7144   */\n    tag_421:\n        /* \"#utility.yul\":7183:7184   */\n      0x00\n        /* \"#utility.yul\":7208:7261   */\n      tag_423\n        /* \"#utility.yul\":7253:7260   */\n      dup5\n        /* \"#utility.yul\":7244:7250   */\n      dup3\n        /* \"#utility.yul\":7233:7242   */\n      dup6\n        /* \"#utility.yul\":7229:7251   */\n      add\n        /* \"#utility.yul\":7208:7261   */\n      tag_300\n      jump\t// in\n    tag_423:\n        /* \"#utility.yul\":7198:7261   */\n      swap2\n      pop\n        /* \"#utility.yul\":7154:7271   */\n      pop\n        /* \"#utility.yul\":6949:7278   */\n      swap3\n      swap2\n      pop\n      pop\n      jump\t// out\n        /* \"#utility.yul\":7284:7758   */\n    tag_117:\n        /* \"#utility.yul\":7352:7358   */\n      0x00\n        /* \"#utility.yul\":7360:7366   */\n      dup1\n        /* \"#utility.yul\":7409:7411   */\n      0x40\n        /* \"#utility.yul\":7397:7406   */\n      dup4\n        /* \"#utility.yul\":7388:7395   */\n      dup6\n        /* \"#utility.yul\":7384:7407   */\n      sub\n        /* \"#utility.yul\":7380:7412   */\n      slt\n        /* \"#utility.yul\":7377:7496   */\n      iszero\n      tag_425\n      jumpi\n        /* \"#utility.yul\":7415:7494   */\n      tag_426\n      tag_287\n      jump\t// in\n    tag_426:\n        /* \"#utility.yul\":7377:7496   */\n    tag_425:\n        /* \"#utility.yul\":7535:7536   */\n      0x00\n        /* \"#utility.yul\":7560:7613   */\n      tag_427\n        /* \"#utility.yul\":7605:7612   */\n      dup6\n        /* \"#utility.yul\":7596:7602   */\n      dup3\n        /* \"#utility.yul\":7585:7594   */\n      dup7\n        /* \"#utility.yul\":7581:7603   */\n      add\n        /* \"#utility.yul\":7560:7613   */\n      tag_300\n      jump\t// in\n    tag_427:\n        /* \"#utility.yul\":7550:7613   */\n      swap3\n      pop\n        /* \"#utility.yul\":7506:7623   */\n      pop\n        /* \"#utility.yul\":7662:7664   */\n      0x20\n        /* \"#utility.yul\":7688:7741   */\n      tag_428\n        /* \"#utility.yul\":7733:7740   */\n      dup6\n        /* \"#utility.yul\":7724:7730   */\n      dup3\n        /* \"#utility.yul\":7713:7722   */\n      dup7\n        /* \"#utility.yul\":7709:7731   */\n      add\n        /* \"#utility.yul\":7688:7741   */\n      tag_300\n      jump\t// in\n    tag_428:\n        /* \"#utility.yul\":7678:7741   */\n      swap2\n      pop\n        /* \"#utility.yul\":7633:7751   */\n      pop\n        /* \"#utility.yul\":7284:7758   */\n      swap3\n      pop\n      swap3\n      swap1\n      pop\n      jump\t// out\n        /* \"#utility.yul\":7764:7882   */\n    tag_309:\n        /* \"#utility.yul\":7851:7875   */\n      tag_430\n        /* \"#utility.yul\":7869:7874   */\n      dup2\n        /* \"#utility.yul\":7851:7875   */\n      tag_298\n      jump\t// in\n    tag_430:\n        /* \"#utility.yul\":7846:7849   */\n      dup3\n        /* \"#utility.yul\":7839:7876   */\n      mstore\n        /* \"#utility.yul\":7764:7882   */\n      pop\n      pop\n      jump\t// out\n        /* \"#utility.yul\":7888:7948   */\n    tag_310:\n        /* \"#utility.yul\":7916:7919   */\n      0x00\n        /* \"#utility.yul\":7937:7942   */\n      dup2\n        /* \"#utility.yul\":7930:7942   */\n      swap1\n      pop\n        /* \"#utility.yul\":7888:7948   */\n      swap2\n      swap1\n      pop\n      jump\t// out\n        /* \"#utility.yul\":7954:8096   */\n    tag_311:\n        /* \"#utility.yul\":8004:8013   */\n      0x00\n        /* \"#utility.yul\":8037:8090   */\n      tag_433\n        /* \"#utility.yul\":8055:8089   */\n      tag_434\n        /* \"#utility.yul\":8064:8088   */\n      tag_435\n        /* \"#utility.yul\":8082:8087   */\n      dup5\n        /* \"#utility.yul\":8064:8088   */\n      tag_297\n      jump\t// in\n    tag_435:\n        /* \"#utility.yul\":8055:8089   */\n      tag_310\n      jump\t// in\n    tag_434:\n        /* \"#utility.yul\":8037:8090   */\n      tag_297\n      jump\t// in\n    tag_433:\n        /* \"#utility.yul\":8024:8090   */\n      swap1\n      pop\n        /* \"#utility.yul\":7954:8096   */\n      swap2\n      swap1\n      pop\n      jump\t// out\n        /* \"#utility.yul\":8102:8228   */\n    tag_312:\n        /* \"#utility.yul\":8152:8161   */\n      0x00\n        /* \"#utility.yul\":8185:8222   */\n      tag_437\n        /* \"#utility.yul\":8216:8221   */\n      dup3\n        /* \"#utility.yul\":8185:8222   */\n      tag_311\n      jump\t// in\n    tag_437:\n        /* \"#utility.yul\":8172:8222   */\n      swap1\n      pop\n        /* \"#utility.yul\":8102:8228   */\n      swap2\n      swap1\n      pop\n      jump\t// out\n        /* \"#utility.yul\":8234:8375   */\n    tag_313:\n        /* \"#utility.yul\":8299:8308   */\n      0x00\n        /* \"#utility.yul\":8332:8369   */\n      tag_439\n        /* \"#utility.yul\":8363:8368   */\n      dup3\n        /* \"#utility.yul\":8332:8369   */\n      tag_312\n      jump\t// in\n    tag_439:\n        /* \"#utility.yul\":8319:8369   */\n      swap1\n      pop\n        /* \"#utility.yul\":8234:8375   */\n      swap2\n      swap1\n      pop\n      jump\t// out\n        /* \"#utility.yul\":8381:8542   */\n    tag_314:\n        /* \"#utility.yul\":8483:8535   */\n      tag_441\n        /* \"#utility.yul\":8529:8534   */\n      dup2\n        /* \"#utility.yul\":8483:8535   */\n      tag_313\n      jump\t// in\n    tag_441:\n        /* \"#utility.yul\":8478:8481   */\n      dup3\n        /* \"#utility.yul\":8471:8536   */\n      mstore\n        /* \"#utility.yul\":8381:8542   */\n      pop\n      pop\n      jump\t// out\n        /* \"#utility.yul\":8548:9563   */\n    tag_125:\n        /* \"#utility.yul\":8846:8850   */\n      0x00\n        /* \"#utility.yul\":8884:8887   */\n      0x0100\n        /* \"#utility.yul\":8873:8882   */\n      dup3\n        /* \"#utility.yul\":8869:8888   */\n      add\n        /* \"#utility.yul\":8861:8888   */\n      swap1\n      pop\n        /* \"#utility.yul\":8898:8969   */\n      tag_443\n        /* \"#utility.yul\":8966:8967   */\n      0x00\n        /* \"#utility.yul\":8955:8964   */\n      dup4\n        /* \"#utility.yul\":8951:8968   */\n      add\n        /* \"#utility.yul\":8942:8948   */\n      dup12\n        /* \"#utility.yul\":8898:8969   */\n      tag_303\n      jump\t// in\n    tag_443:\n        /* \"#utility.yul\":8979:9051   */\n      tag_444\n        /* \"#utility.yul\":9047:9049   */\n      0x20\n        /* \"#utility.yul\":9036:9045   */\n      dup4\n        /* \"#utility.yul\":9032:9050   */\n      add\n        /* \"#utility.yul\":9023:9029   */\n      dup11\n        /* \"#utility.yul\":8979:9051   */\n      tag_303\n      jump\t// in\n    tag_444:\n        /* \"#utility.yul\":9061:9133   */\n      tag_445\n        /* \"#utility.yul\":9129:9131   */\n      0x40\n        /* \"#utility.yul\":9118:9127   */\n      dup4\n        /* \"#utility.yul\":9114:9132   */\n      add\n        /* \"#utility.yul\":9105:9111   */\n      dup10\n        /* \"#utility.yul\":9061:9133   */\n      tag_303\n      jump\t// in\n    tag_445:\n        /* \"#utility.yul\":9143:9215   */\n      tag_446\n        /* \"#utility.yul\":9211:9213   */\n      0x60\n        /* \"#utility.yul\":9200:9209   */\n      dup4\n        /* \"#utility.yul\":9196:9214   */\n      add\n        /* \"#utility.yul\":9187:9193   */\n      dup9\n        /* \"#utility.yul\":9143:9215   */\n      tag_309\n      jump\t// in\n    tag_446:\n        /* \"#utility.yul\":9225:9298   */\n      tag_447\n        /* \"#utility.yul\":9293:9296   */\n      0x80\n        /* \"#utility.yul\":9282:9291   */\n      dup4\n        /* \"#utility.yul\":9278:9297   */\n      add\n        /* \"#utility.yul\":9269:9275   */\n      dup8\n        /* \"#utility.yul\":9225:9298   */\n      tag_309\n      jump\t// in\n    tag_447:\n        /* \"#utility.yul\":9308:9375   */\n      tag_448\n        /* \"#utility.yul\":9370:9373   */\n      0xa0\n        /* \"#utility.yul\":9359:9368   */\n      dup4\n        /* \"#utility.yul\":9355:9374   */\n      add\n        /* \"#utility.yul\":9346:9352   */\n      dup7\n        /* \"#utility.yul\":9308:9375   */\n      tag_302\n      jump\t// in\n    tag_448:\n        /* \"#utility.yul\":9385:9473   */\n      tag_449\n        /* \"#utility.yul\":9468:9471   */\n      0xc0\n        /* \"#utility.yul\":9457:9466   */\n      dup4\n        /* \"#utility.yul\":9453:9472   */\n      add\n        /* \"#utility.yul\":9444:9450   */\n      dup6\n        /* \"#utility.yul\":9385:9473   */\n      tag_314\n      jump\t// in\n    tag_449:\n        /* \"#utility.yul\":9483:9556   */\n      tag_450\n        /* \"#utility.yul\":9551:9554   */\n      0xe0\n        /* \"#utility.yul\":9540:9549   */\n      dup4\n        /* \"#utility.yul\":9536:9555   */\n      add\n        /* \"#utility.yul\":9527:9533   */\n      dup5\n        /* \"#utility.yul\":9483:9556   */\n      tag_303\n      jump\t// in\n    tag_450:\n        /* \"#utility.yul\":8548:9563   */\n      swap10\n      swap9\n      pop\n      pop\n      pop\n      pop\n      pop\n      pop\n      pop\n      pop\n      pop\n      jump\t// out\n        /* \"#utility.yul\":9569:10043   */\n    tag_142:\n        /* \"#utility.yul\":9637:9643   */\n      0x00\n        /* \"#utility.yul\":9645:9651   */\n      dup1\n        /* \"#utility.yul\":9694:9696   */\n      0x40\n        /* \"#utility.yul\":9682:9691   */\n      dup4\n        /* \"#utility.yul\":9673:9680   */\n      dup6\n        /* \"#utility.yul\":9669:9692   */\n      sub\n        /* \"#utility.yul\":9665:9697   */\n      slt\n        /* \"#utility.yul\":9662:9781   */\n      iszero\n      tag_452\n      jumpi\n        /* \"#utility.yul\":9700:9779   */\n      tag_453\n      tag_287\n      jump\t// in\n    tag_453:\n        /* \"#utility.yul\":9662:9781   */\n    tag_452:\n        /* \"#utility.yul\":9820:9821   */\n      0x00\n        /* \"#utility.yul\":9845:9898   */\n      tag_454\n        /* \"#utility.yul\":9890:9897   */\n      dup6\n        /* \"#utility.yul\":9881:9887   */\n      dup3\n        /* \"#utility.yul\":9870:9879   */\n      dup7\n        /* \"#utility.yul\":9866:9888   */\n      add\n        /* \"#utility.yul\":9845:9898   */\n      tag_291\n      jump\t// in\n    tag_454:\n        /* \"#utility.yul\":9835:9898   */\n      swap3\n      pop\n        /* \"#utility.yul\":9791:9908   */\n      pop\n        /* \"#utility.yul\":9947:9949   */\n      0x20\n        /* \"#utility.yul\":9973:10026   */\n      tag_455\n        /* \"#utility.yul\":10018:10025   */\n      dup6\n        /* \"#utility.yul\":10009:10015   */\n      dup3\n        /* \"#utility.yul\":9998:10007   */\n      dup7\n        /* \"#utility.yul\":9994:10016   */\n      add\n        /* \"#utility.yul\":9973:10026   */\n      tag_291\n      jump\t// in\n    tag_455:\n        /* \"#utility.yul\":9963:10026   */\n      swap2\n      pop\n        /* \"#utility.yul\":9918:10036   */\n      pop\n        /* \"#utility.yul\":9569:10043   */\n      swap3\n      pop\n      swap3\n      swap1\n      pop\n      jump\t// out\n        /* \"#utility.yul\":10049:10229   */\n    tag_315:\n        /* \"#utility.yul\":10097:10174   */\n      0x4e487b7100000000000000000000000000000000000000000000000000000000\n        /* \"#utility.yul\":10094:10095   */\n      0x00\n        /* \"#utility.yul\":10087:10175   */\n      mstore\n        /* \"#utility.yul\":10194:10198   */\n      0x22\n        /* \"#utility.yul\":10191:10192   */\n      0x04\n        /* \"#utility.yul\":10184:10199   */\n      mstore\n        /* \"#utility.yul\":10218:10222   */\n      0x24\n        /* \"#utility.yul\":10215:10216   */\n      0x00\n        /* \"#utility.yul\":10208:10223   */\n      revert\n        /* \"#utility.yul\":10235:10555   */\n    tag_148:\n        /* \"#utility.yul\":10279:10285   */\n      0x00\n        /* \"#utility.yul\":10316:10317   */\n      0x02\n        /* \"#utility.yul\":10310:10314   */\n      dup3\n        /* \"#utility.yul\":10306:10318   */\n      div\n        /* \"#utility.yul\":10296:10318   */\n      swap1\n      pop\n        /* \"#utility.yul\":10363:10364   */\n      0x01\n        /* \"#utility.yul\":10357:10361   */\n      dup3\n        /* \"#utility.yul\":10353:10365   */\n      and\n        /* \"#utility.yul\":10384:10402   */\n      dup1\n        /* \"#utility.yul\":10374:10455   */\n      tag_458\n      jumpi\n        /* \"#utility.yul\":10440:10444   */\n      0x7f\n        /* \"#utility.yul\":10432:10438   */\n      dup3\n        /* \"#utility.yul\":10428:10445   */\n      and\n        /* \"#utility.yul\":10418:10445   */\n      swap2\n      pop\n        /* \"#utility.yul\":10374:10455   */\n    tag_458:\n        /* \"#utility.yul\":10502:10504   */\n      0x20\n        /* \"#utility.yul\":10494:10500   */\n      dup3\n        /* \"#utility.yul\":10491:10505   */\n      lt\n        /* \"#utility.yul\":10471:10489   */\n      dup2\n        /* \"#utility.yul\":10468:10506   */\n      sub\n        /* \"#utility.yul\":10465:10549   */\n      tag_459\n      jumpi\n        /* \"#utility.yul\":10521:10539   */\n      tag_460\n      tag_315\n      jump\t// in\n    tag_460:\n        /* \"#utility.yul\":10465:10549   */\n    tag_459:\n        /* \"#utility.yul\":10286:10555   */\n      pop\n        /* \"#utility.yul\":10235:10555   */\n      swap2\n      swap1\n      pop\n      jump\t// out\n        /* \"#utility.yul\":10561:10741   */\n    tag_316:\n        /* \"#utility.yul\":10609:10686   */\n      0x4e487b7100000000000000000000000000000000000000000000000000000000\n        /* \"#utility.yul\":10606:10607   */\n      0x00\n        /* \"#utility.yul\":10599:10687   */\n      mstore\n        /* \"#utility.yul\":10706:10710   */\n      0x11\n        /* \"#utility.yul\":10703:10704   */\n      0x04\n        /* \"#utility.yul\":10696:10711   */\n      mstore\n        /* \"#utility.yul\":10730:10734   */\n      0x24\n        /* \"#utility.yul\":10727:10728   */\n      0x00\n        /* \"#utility.yul\":10720:10735   */\n      revert\n        /* \"#utility.yul\":10747:10938   */\n    tag_175:\n        /* \"#utility.yul\":10787:10790   */\n      0x00\n        /* \"#utility.yul\":10806:10826   */\n      tag_463\n        /* \"#utility.yul\":10824:10825   */\n      dup3\n        /* \"#utility.yul\":10806:10826   */\n      tag_289\n      jump\t// in\n    tag_463:\n        /* \"#utility.yul\":10801:10826   */\n      swap2\n      pop\n        /* \"#utility.yul\":10840:10860   */\n      tag_464\n        /* \"#utility.yul\":10858:10859   */\n      dup4\n        /* \"#utility.yul\":10840:10860   */\n      tag_289\n      jump\t// in\n    tag_464:\n        /* \"#utility.yul\":10835:10860   */\n      swap3\n      pop\n        /* \"#utility.yul\":10883:10884   */\n      dup3\n        /* \"#utility.yul\":10880:10881   */\n      dup3\n        /* \"#utility.yul\":10876:10885   */\n      add\n        /* \"#utility.yul\":10869:10885   */\n      swap1\n      pop\n        /* \"#utility.yul\":10904:10907   */\n      dup1\n        /* \"#utility.yul\":10901:10902   */\n      dup3\n        /* \"#utility.yul\":10898:10908   */\n      gt\n        /* \"#utility.yul\":10895:10931   */\n      iszero\n      tag_465\n      jumpi\n        /* \"#utility.yul\":10911:10929   */\n      tag_466\n      tag_316\n      jump\t// in\n    tag_466:\n        /* \"#utility.yul\":10895:10931   */\n    tag_465:\n        /* \"#utility.yul\":10747:10938   */\n      swap3\n      swap2\n      pop\n      pop\n      jump\t// out\n        /* \"#utility.yul\":10944:11124   */\n    tag_317:\n        /* \"#utility.yul\":10992:11069   */\n      0x4e487b7100000000000000000000000000000000000000000000000000000000\n        /* \"#utility.yul\":10989:10990   */\n      0x00\n        /* \"#utility.yul\":10982:11070   */\n      mstore\n        /* \"#utility.yul\":11089:11093   */\n      0x12\n        /* \"#utility.yul\":11086:11087   */\n      0x04\n        /* \"#utility.yul\":11079:11094   */\n      mstore\n        /* \"#utility.yul\":11113:11117   */\n      0x24\n        /* \"#utility.yul\":11110:11111   */\n      0x00\n        /* \"#utility.yul\":11103:11118   */\n      revert\n        /* \"#utility.yul\":11130:11315   */\n    tag_179:\n        /* \"#utility.yul\":11170:11171   */\n      0x00\n        /* \"#utility.yul\":11187:11207   */\n      tag_469\n        /* \"#utility.yul\":11205:11206   */\n      dup3\n        /* \"#utility.yul\":11187:11207   */\n      tag_289\n      jump\t// in\n    tag_469:\n        /* \"#utility.yul\":11182:11207   */\n      swap2\n      pop\n        /* \"#utility.yul\":11221:11241   */\n      tag_470\n        /* \"#utility.yul\":11239:11240   */\n      dup4\n        /* \"#utility.yul\":11221:11241   */\n      tag_289\n      jump\t// in\n    tag_470:\n        /* \"#utility.yul\":11216:11241   */\n      swap3\n      pop\n        /* \"#utility.yul\":11260:11261   */\n      dup3\n        /* \"#utility.yul\":11250:11285   */\n      tag_471\n      jumpi\n        /* \"#utility.yul\":11265:11283   */\n      tag_472\n      tag_317\n      jump\t// in\n    tag_472:\n        /* \"#utility.yul\":11250:11285   */\n    tag_471:\n        /* \"#utility.yul\":11307:11308   */\n      dup3\n        /* \"#utility.yul\":11304:11305   */\n      dup3\n        /* \"#utility.yul\":11300:11309   */\n      div\n        /* \"#utility.yul\":11295:11309   */\n      swap1\n      pop\n        /* \"#utility.yul\":11130:11315   */\n      swap3\n      swap2\n      pop\n      pop\n      jump\t// out\n        /* \"#utility.yul\":11321:11548   */\n    tag_318:\n        /* \"#utility.yul\":11461:11495   */\n      0x496e73756666696369656e74204554482062616c616e636520696e2074686520\n        /* \"#utility.yul\":11457:11458   */\n      0x00\n        /* \"#utility.yul\":11449:11455   */\n      dup3\n        /* \"#utility.yul\":11445:11459   */\n      add\n        /* \"#utility.yul\":11438:11496   */\n      mstore\n        /* \"#utility.yul\":11530:11540   */\n      0x636f6e7472616374000000000000000000000000000000000000000000000000\n        /* \"#utility.yul\":11525:11527   */\n      0x20\n        /* \"#utility.yul\":11517:11523   */\n      dup3\n        /* \"#utility.yul\":11513:11528   */\n      add\n        /* \"#utility.yul\":11506:11541   */\n      mstore\n        /* \"#utility.yul\":11321:11548   */\n      pop\n      jump\t// out\n        /* \"#utility.yul\":11554:11920   */\n    tag_319:\n        /* \"#utility.yul\":11696:11699   */\n      0x00\n        /* \"#utility.yul\":11717:11784   */\n      tag_475\n        /* \"#utility.yul\":11781:11783   */\n      0x28\n        /* \"#utility.yul\":11776:11779   */\n      dup4\n        /* \"#utility.yul\":11717:11784   */\n      tag_293\n      jump\t// in\n    tag_475:\n        /* \"#utility.yul\":11710:11784   */\n      swap2\n      pop\n        /* \"#utility.yul\":11793:11886   */\n      tag_476\n        /* \"#utility.yul\":11882:11885   */\n      dup3\n        /* \"#utility.yul\":11793:11886   */\n      tag_318\n      jump\t// in\n    tag_476:\n        /* \"#utility.yul\":11911:11913   */\n      0x40\n        /* \"#utility.yul\":11906:11909   */\n      dup3\n        /* \"#utility.yul\":11902:11914   */\n      add\n        /* \"#utility.yul\":11895:11914   */\n      swap1\n      pop\n        /* \"#utility.yul\":11554:11920   */\n      swap2\n      swap1\n      pop\n      jump\t// out\n        /* \"#utility.yul\":11926:12345   */\n    tag_182:\n        /* \"#utility.yul\":12092:12096   */\n      0x00\n        /* \"#utility.yul\":12130:12132   */\n      0x20\n        /* \"#utility.yul\":12119:12128   */\n      dup3\n        /* \"#utility.yul\":12115:12133   */\n      add\n        /* \"#utility.yul\":12107:12133   */\n      swap1\n      pop\n        /* \"#utility.yul\":12179:12188   */\n      dup2\n        /* \"#utility.yul\":12173:12177   */\n      dup2\n        /* \"#utility.yul\":12169:12189   */\n      sub\n        /* \"#utility.yul\":12165:12166   */\n      0x00\n        /* \"#utility.yul\":12154:12163   */\n      dup4\n        /* \"#utility.yul\":12150:12167   */\n      add\n        /* \"#utility.yul\":12143:12190   */\n      mstore\n        /* \"#utility.yul\":12207:12338   */\n      tag_478\n        /* \"#utility.yul\":12333:12337   */\n      dup2\n        /* \"#utility.yul\":12207:12338   */\n      tag_319\n      jump\t// in\n    tag_478:\n        /* \"#utility.yul\":12199:12338   */\n      swap1\n      pop\n        /* \"#utility.yul\":11926:12345   */\n      swap2\n      swap1\n      pop\n      jump\t// out\n        /* \"#utility.yul\":12351:12575   */\n    tag_320:\n        /* \"#utility.yul\":12491:12525   */\n      0x45524332303a2064656372656173656420616c6c6f77616e63652062656c6f77\n        /* \"#utility.yul\":12487:12488   */\n      0x00\n        /* \"#utility.yul\":12479:12485   */\n      dup3\n        /* \"#utility.yul\":12475:12489   */\n      add\n        /* \"#utility.yul\":12468:12526   */\n      mstore\n        /* \"#utility.yul\":12560:12567   */\n      0x207a65726f000000000000000000000000000000000000000000000000000000\n        /* \"#utility.yul\":12555:12557   */\n      0x20\n        /* \"#utility.yul\":12547:12553   */\n      dup3\n        /* \"#utility.yul\":12543:12558   */\n      add\n        /* \"#utility.yul\":12536:12568   */\n      mstore\n        /* \"#utility.yul\":12351:12575   */\n      pop\n      jump\t// out\n        /* \"#utility.yul\":12581:12947   */\n    tag_321:\n        /* \"#utility.yul\":12723:12726   */\n      0x00\n        /* \"#utility.yul\":12744:12811   */\n      tag_481\n        /* \"#utility.yul\":12808:12810   */\n      0x25\n        /* \"#utility.yul\":12803:12806   */\n      dup4\n        /* \"#utility.yul\":12744:12811   */\n      tag_293\n      jump\t// in\n    tag_481:\n        /* \"#utility.yul\":12737:12811   */\n      swap2\n      pop\n        /* \"#utility.yul\":12820:12913   */\n      tag_482\n        /* \"#utility.yul\":12909:12912   */\n      dup3\n        /* \"#utility.yul\":12820:12913   */\n      tag_320\n      jump\t// in\n    tag_482:\n        /* \"#utility.yul\":12938:12940   */\n      0x40\n        /* \"#utility.yul\":12933:12936   */\n      dup3\n        /* \"#utility.yul\":12929:12941   */\n      add\n        /* \"#utility.yul\":12922:12941   */\n      swap1\n      pop\n        /* \"#utility.yul\":12581:12947   */\n      swap2\n      swap1\n      pop\n      jump\t// out\n        /* \"#utility.yul\":12953:13372   */\n    tag_197:\n        /* \"#utility.yul\":13119:13123   */\n      0x00\n        /* \"#utility.yul\":13157:13159   */\n      0x20\n        /* \"#utility.yul\":13146:13155   */\n      dup3\n        /* \"#utility.yul\":13142:13160   */\n      add\n        /* \"#utility.yul\":13134:13160   */\n      swap1\n      pop\n        /* \"#utility.yul\":13206:13215   */\n      dup2\n        /* \"#utility.yul\":13200:13204   */\n      dup2\n        /* \"#utility.yul\":13196:13216   */\n      sub\n        /* \"#utility.yul\":13192:13193   */\n      0x00\n        /* \"#utility.yul\":13181:13190   */\n      dup4\n        /* \"#utility.yul\":13177:13194   */\n      add\n        /* \"#utility.yul\":13170:13217   */\n      mstore\n        /* \"#utility.yul\":13234:13365   */\n      tag_484\n        /* \"#utility.yul\":13360:13364   */\n      dup2\n        /* \"#utility.yul\":13234:13365   */\n      tag_321\n      jump\t// in\n    tag_484:\n        /* \"#utility.yul\":13226:13365   */\n      swap1\n      pop\n        /* \"#utility.yul\":12953:13372   */\n      swap2\n      swap1\n      pop\n      jump\t// out\n        /* \"#utility.yul\":13378:13788   */\n    tag_207:\n        /* \"#utility.yul\":13418:13425   */\n      0x00\n        /* \"#utility.yul\":13441:13461   */\n      tag_486\n        /* \"#utility.yul\":13459:13460   */\n      dup3\n        /* \"#utility.yul\":13441:13461   */\n      tag_289\n      jump\t// in\n    tag_486:\n        /* \"#utility.yul\":13436:13461   */\n      swap2\n      pop\n        /* \"#utility.yul\":13475:13495   */\n      tag_487\n        /* \"#utility.yul\":13493:13494   */\n      dup4\n        /* \"#utility.yul\":13475:13495   */\n      tag_289\n      jump\t// in\n    tag_487:\n        /* \"#utility.yul\":13470:13495   */\n      swap3\n      pop\n        /* \"#utility.yul\":13530:13531   */\n      dup3\n        /* \"#utility.yul\":13527:13528   */\n      dup3\n        /* \"#utility.yul\":13523:13532   */\n      mul\n        /* \"#utility.yul\":13552:13582   */\n      tag_488\n        /* \"#utility.yul\":13570:13581   */\n      dup2\n        /* \"#utility.yul\":13552:13582   */\n      tag_289\n      jump\t// in\n    tag_488:\n        /* \"#utility.yul\":13541:13582   */\n      swap2\n      pop\n        /* \"#utility.yul\":13731:13732   */\n      dup3\n        /* \"#utility.yul\":13722:13729   */\n      dup3\n        /* \"#utility.yul\":13718:13733   */\n      div\n        /* \"#utility.yul\":13715:13716   */\n      dup5\n        /* \"#utility.yul\":13712:13734   */\n      eq\n        /* \"#utility.yul\":13692:13693   */\n      dup4\n        /* \"#utility.yul\":13685:13694   */\n      iszero\n        /* \"#utility.yul\":13665:13748   */\n      or\n        /* \"#utility.yul\":13642:13781   */\n      tag_489\n      jumpi\n        /* \"#utility.yul\":13761:13779   */\n      tag_490\n      tag_316\n      jump\t// in\n    tag_490:\n        /* \"#utility.yul\":13642:13781   */\n    tag_489:\n        /* \"#utility.yul\":13426:13788   */\n      pop\n        /* \"#utility.yul\":13378:13788   */\n      swap3\n      swap2\n      pop\n      pop\n      jump\t// out\n        /* \"#utility.yul\":13794:14021   */\n    tag_322:\n        /* \"#utility.yul\":13934:13968   */\n      0x596f752072657475726e696e67206d6f7265207468656e20746865206c6f616e\n        /* \"#utility.yul\":13930:13931   */\n      0x00\n        /* \"#utility.yul\":13922:13928   */\n      dup3\n        /* \"#utility.yul\":13918:13932   */\n      add\n        /* \"#utility.yul\":13911:13969   */\n      mstore\n        /* \"#utility.yul\":14003:14013   */\n      0x2061636365707473000000000000000000000000000000000000000000000000\n        /* \"#utility.yul\":13998:14000   */\n      0x20\n        /* \"#utility.yul\":13990:13996   */\n      dup3\n        /* \"#utility.yul\":13986:14001   */\n      add\n        /* \"#utility.yul\":13979:14014   */\n      mstore\n        /* \"#utility.yul\":13794:14021   */\n      pop\n      jump\t// out\n        /* \"#utility.yul\":14027:14393   */\n    tag_323:\n        /* \"#utility.yul\":14169:14172   */\n      0x00\n        /* \"#utility.yul\":14190:14257   */\n      tag_493\n        /* \"#utility.yul\":14254:14256   */\n      0x28\n        /* \"#utility.yul\":14249:14252   */\n      dup4\n        /* \"#utility.yul\":14190:14257   */\n      tag_293\n      jump\t// in\n    tag_493:\n        /* \"#utility.yul\":14183:14257   */\n      swap2\n      pop\n        /* \"#utility.yul\":14266:14359   */\n      tag_494\n        /* \"#utility.yul\":14355:14358   */\n      dup3\n        /* \"#utility.yul\":14266:14359   */\n      tag_322\n      jump\t// in\n    tag_494:\n        /* \"#utility.yul\":14384:14386   */\n      0x40\n        /* \"#utility.yul\":14379:14382   */\n      dup3\n        /* \"#utility.yul\":14375:14387   */\n      add\n        /* \"#utility.yul\":14368:14387   */\n      swap1\n      pop\n        /* \"#utility.yul\":14027:14393   */\n      swap2\n      swap1\n      pop\n      jump\t// out\n        /* \"#utility.yul\":14399:14818   */\n    tag_212:\n        /* \"#utility.yul\":14565:14569   */\n      0x00\n        /* \"#utility.yul\":14603:14605   */\n      0x20\n        /* \"#utility.yul\":14592:14601   */\n      dup3\n        /* \"#utility.yul\":14588:14606   */\n      add\n        /* \"#utility.yul\":14580:14606   */\n      swap1\n      pop\n        /* \"#utility.yul\":14652:14661   */\n      dup2\n        /* \"#utility.yul\":14646:14650   */\n      dup2\n        /* \"#utility.yul\":14642:14662   */\n      sub\n        /* \"#utility.yul\":14638:14639   */\n      0x00\n        /* \"#utility.yul\":14627:14636   */\n      dup4\n        /* \"#utility.yul\":14623:14640   */\n      add\n        /* \"#utility.yul\":14616:14663   */\n      mstore\n        /* \"#utility.yul\":14680:14811   */\n      tag_496\n        /* \"#utility.yul\":14806:14810   */\n      dup2\n        /* \"#utility.yul\":14680:14811   */\n      tag_323\n      jump\t// in\n    tag_496:\n        /* \"#utility.yul\":14672:14811   */\n      swap1\n      pop\n        /* \"#utility.yul\":14399:14818   */\n      swap2\n      swap1\n      pop\n      jump\t// out\n        /* \"#utility.yul\":14824:15018   */\n    tag_214:\n        /* \"#utility.yul\":14864:14868   */\n      0x00\n        /* \"#utility.yul\":14884:14904   */\n      tag_498\n        /* \"#utility.yul\":14902:14903   */\n      dup3\n        /* \"#utility.yul\":14884:14904   */\n      tag_289\n      jump\t// in\n    tag_498:\n        /* \"#utility.yul\":14879:14904   */\n      swap2\n      pop\n        /* \"#utility.yul\":14918:14938   */\n      tag_499\n        /* \"#utility.yul\":14936:14937   */\n      dup4\n        /* \"#utility.yul\":14918:14938   */\n      tag_289\n      jump\t// in\n    tag_499:\n        /* \"#utility.yul\":14913:14938   */\n      swap3\n      pop\n        /* \"#utility.yul\":14962:14963   */\n      dup3\n        /* \"#utility.yul\":14959:14960   */\n      dup3\n        /* \"#utility.yul\":14955:14964   */\n      sub\n        /* \"#utility.yul\":14947:14964   */\n      swap1\n      pop\n        /* \"#utility.yul\":14986:14987   */\n      dup2\n        /* \"#utility.yul\":14980:14984   */\n      dup2\n        /* \"#utility.yul\":14977:14988   */\n      gt\n        /* \"#utility.yul\":14974:15011   */\n      iszero\n      tag_500\n      jumpi\n        /* \"#utility.yul\":14991:15009   */\n      tag_501\n      tag_316\n      jump\t// in\n    tag_501:\n        /* \"#utility.yul\":14974:15011   */\n    tag_500:\n        /* \"#utility.yul\":14824:15018   */\n      swap3\n      swap2\n      pop\n      pop\n      jump\t// out\n        /* \"#utility.yul\":15024:15193   */\n    tag_324:\n        /* \"#utility.yul\":15164:15185   */\n      0x4c6f616e20646f6573206e6f7420657869737400000000000000000000000000\n        /* \"#utility.yul\":15160:15161   */\n      0x00\n        /* \"#utility.yul\":15152:15158   */\n      dup3\n        /* \"#utility.yul\":15148:15162   */\n      add\n        /* \"#utility.yul\":15141:15186   */\n      mstore\n        /* \"#utility.yul\":15024:15193   */\n      pop\n      jump\t// out\n        /* \"#utility.yul\":15199:15565   */\n    tag_325:\n        /* \"#utility.yul\":15341:15344   */\n      0x00\n        /* \"#utility.yul\":15362:15429   */\n      tag_504\n        /* \"#utility.yul\":15426:15428   */\n      0x13\n        /* \"#utility.yul\":15421:15424   */\n      dup4\n        /* \"#utility.yul\":15362:15429   */\n      tag_293\n      jump\t// in\n    tag_504:\n        /* \"#utility.yul\":15355:15429   */\n      swap2\n      pop\n        /* \"#utility.yul\":15438:15531   */\n      tag_505\n        /* \"#utility.yul\":15527:15530   */\n      dup3\n        /* \"#utility.yul\":15438:15531   */\n      tag_324\n      jump\t// in\n    tag_505:\n        /* \"#utility.yul\":15556:15558   */\n      0x20\n        /* \"#utility.yul\":15551:15554   */\n      dup3\n        /* \"#utility.yul\":15547:15559   */\n      add\n        /* \"#utility.yul\":15540:15559   */\n      swap1\n      pop\n        /* \"#utility.yul\":15199:15565   */\n      swap2\n      swap1\n      pop\n      jump\t// out\n        /* \"#utility.yul\":15571:15990   */\n    tag_220:\n        /* \"#utility.yul\":15737:15741   */\n      0x00\n        /* \"#utility.yul\":15775:15777   */\n      0x20\n        /* \"#utility.yul\":15764:15773   */\n      dup3\n        /* \"#utility.yul\":15760:15778   */\n      add\n        /* \"#utility.yul\":15752:15778   */\n      swap1\n      pop\n        /* \"#utility.yul\":15824:15833   */\n      dup2\n        /* \"#utility.yul\":15818:15822   */\n      dup2\n        /* \"#utility.yul\":15814:15834   */\n      sub\n        /* \"#utility.yul\":15810:15811   */\n      0x00\n        /* \"#utility.yul\":15799:15808   */\n      dup4\n        /* \"#utility.yul\":15795:15812   */\n      add\n        /* \"#utility.yul\":15788:15835   */\n      mstore\n        /* \"#utility.yul\":15852:15983   */\n      tag_507\n        /* \"#utility.yul\":15978:15982   */\n      dup2\n        /* \"#utility.yul\":15852:15983   */\n      tag_325\n      jump\t// in\n    tag_507:\n        /* \"#utility.yul\":15844:15983   */\n      swap1\n      pop\n        /* \"#utility.yul\":15571:15990   */\n      swap2\n      swap1\n      pop\n      jump\t// out\n        /* \"#utility.yul\":15996:16173   */\n    tag_326:\n        /* \"#utility.yul\":16136:16165   */\n      0x6e6f7420656e6f7567682044455820666f722074686174206275790000000000\n        /* \"#utility.yul\":16132:16133   */\n      0x00\n        /* \"#utility.yul\":16124:16130   */\n      dup3\n        /* \"#utility.yul\":16120:16134   */\n      add\n        /* \"#utility.yul\":16113:16166   */\n      mstore\n        /* \"#utility.yul\":15996:16173   */\n      pop\n      jump\t// out\n        /* \"#utility.yul\":16179:16545   */\n    tag_327:\n        /* \"#utility.yul\":16321:16324   */\n      0x00\n        /* \"#utility.yul\":16342:16409   */\n      tag_510\n        /* \"#utility.yul\":16406:16408   */\n      0x1b\n        /* \"#utility.yul\":16401:16404   */\n      dup4\n        /* \"#utility.yul\":16342:16409   */\n      tag_293\n      jump\t// in\n    tag_510:\n        /* \"#utility.yul\":16335:16409   */\n      swap2\n      pop\n        /* \"#utility.yul\":16418:16511   */\n      tag_511\n        /* \"#utility.yul\":16507:16510   */\n      dup3\n        /* \"#utility.yul\":16418:16511   */\n      tag_326\n      jump\t// in\n    tag_511:\n        /* \"#utility.yul\":16536:16538   */\n      0x20\n        /* \"#utility.yul\":16531:16534   */\n      dup3\n        /* \"#utility.yul\":16527:16539   */\n      add\n        /* \"#utility.yul\":16520:16539   */\n      swap1\n      pop\n        /* \"#utility.yul\":16179:16545   */\n      swap2\n      swap1\n      pop\n      jump\t// out\n        /* \"#utility.yul\":16551:16970   */\n    tag_233:\n        /* \"#utility.yul\":16717:16721   */\n      0x00\n        /* \"#utility.yul\":16755:16757   */\n      0x20\n        /* \"#utility.yul\":16744:16753   */\n      dup3\n        /* \"#utility.yul\":16740:16758   */\n      add\n        /* \"#utility.yul\":16732:16758   */\n      swap1\n      pop\n        /* \"#utility.yul\":16804:16813   */\n      dup2\n        /* \"#utility.yul\":16798:16802   */\n      dup2\n        /* \"#utility.yul\":16794:16814   */\n      sub\n        /* \"#utility.yul\":16790:16791   */\n      0x00\n        /* \"#utility.yul\":16779:16788   */\n      dup4\n        /* \"#utility.yul\":16775:16792   */\n      add\n        /* \"#utility.yul\":16768:16815   */\n      mstore\n        /* \"#utility.yul\":16832:16963   */\n      tag_513\n        /* \"#utility.yul\":16958:16962   */\n      dup2\n        /* \"#utility.yul\":16832:16963   */\n      tag_327\n      jump\t// in\n    tag_513:\n        /* \"#utility.yul\":16824:16963   */\n      swap1\n      pop\n        /* \"#utility.yul\":16551:16970   */\n      swap2\n      swap1\n      pop\n      jump\t// out\n        /* \"#utility.yul\":16976:17209   */\n    tag_246:\n        /* \"#utility.yul\":17015:17018   */\n      0x00\n        /* \"#utility.yul\":17038:17062   */\n      tag_515\n        /* \"#utility.yul\":17056:17061   */\n      dup3\n        /* \"#utility.yul\":17038:17062   */\n      tag_289\n      jump\t// in\n    tag_515:\n        /* \"#utility.yul\":17029:17062   */\n      swap2\n      pop\n        /* \"#utility.yul\":17084:17150   */\n      0xffffffffffffffffffffffffffffffffffffffffffffffffffffffffffffffff\n        /* \"#utility.yul\":17077:17082   */\n      dup3\n        /* \"#utility.yul\":17074:17151   */\n      sub\n        /* \"#utility.yul\":17071:17174   */\n      tag_516\n      jumpi\n        /* \"#utility.yul\":17154:17172   */\n      tag_517\n      tag_316\n      jump\t// in\n    tag_517:\n        /* \"#utility.yul\":17071:17174   */\n    tag_516:\n        /* \"#utility.yul\":17201:17202   */\n      0x01\n        /* \"#utility.yul\":17194:17199   */\n      dup3\n        /* \"#utility.yul\":17190:17203   */\n      add\n        /* \"#utility.yul\":17183:17203   */\n      swap1\n      pop\n        /* \"#utility.yul\":16976:17209   */\n      swap2\n      swap1\n      pop\n      jump\t// out\n        /* \"#utility.yul\":17215:17547   */\n    tag_248:\n        /* \"#utility.yul\":17336:17340   */\n      0x00\n        /* \"#utility.yul\":17374:17376   */\n      0x40\n        /* \"#utility.yul\":17363:17372   */\n      dup3\n        /* \"#utility.yul\":17359:17377   */\n      add\n        /* \"#utility.yul\":17351:17377   */\n      swap1\n      pop\n        /* \"#utility.yul\":17387:17458   */\n      tag_519\n        /* \"#utility.yul\":17455:17456   */\n      0x00\n        /* \"#utility.yul\":17444:17453   */\n      dup4\n        /* \"#utility.yul\":17440:17457   */\n      add\n        /* \"#utility.yul\":17431:17437   */\n      dup6\n        /* \"#utility.yul\":17387:17458   */\n      tag_303\n      jump\t// in\n    tag_519:\n        /* \"#utility.yul\":17468:17540   */\n      tag_520\n        /* \"#utility.yul\":17536:17538   */\n      0x20\n        /* \"#utility.yul\":17525:17534   */\n      dup4\n        /* \"#utility.yul\":17521:17539   */\n      add\n        /* \"#utility.yul\":17512:17518   */\n      dup5\n        /* \"#utility.yul\":17468:17540   */\n      tag_303\n      jump\t// in\n    tag_520:\n        /* \"#utility.yul\":17215:17547   */\n      swap4\n      swap3\n      pop\n      pop\n      pop\n      jump\t// out\n        /* \"#utility.yul\":17553:17776   */\n    tag_328:\n        /* \"#utility.yul\":17693:17727   */\n      0x45524332303a20617070726f76652066726f6d20746865207a65726f20616464\n        /* \"#utility.yul\":17689:17690   */\n      0x00\n        /* \"#utility.yul\":17681:17687   */\n      dup3\n        /* \"#utility.yul\":17677:17691   */\n      add\n        /* \"#utility.yul\":17670:17728   */\n      mstore\n        /* \"#utility.yul\":17762:17768   */\n      0x7265737300000000000000000000000000000000000000000000000000000000\n        /* \"#utility.yul\":17757:17759   */\n      0x20\n        /* \"#utility.yul\":17749:17755   */\n      dup3\n        /* \"#utility.yul\":17745:17760   */\n      add\n        /* \"#utility.yul\":17738:17769   */\n      mstore\n        /* \"#utility.yul\":17553:17776   */\n      pop\n      jump\t// out\n        /* \"#utility.yul\":17782:18148   */\n    tag_329:\n        /* \"#utility.yul\":17924:17927   */\n      0x00\n        /* \"#utility.yul\":17945:18012   */\n      tag_523\n        /* \"#utility.yul\":18009:18011   */\n      0x24\n        /* \"#utility.yul\":18004:18007   */\n      dup4\n        /* \"#utility.yul\":17945:18012   */\n      tag_293\n      jump\t// in\n    tag_523:\n        /* \"#utility.yul\":17938:18012   */\n      swap2\n      pop\n        /* \"#utility.yul\":18021:18114   */\n      tag_524\n        /* \"#utility.yul\":18110:18113   */\n      dup3\n        /* \"#utility.yul\":18021:18114   */\n      tag_328\n      jump\t// in\n    tag_524:\n        /* \"#utility.yul\":18139:18141   */\n      0x40\n        /* \"#utility.yul\":18134:18137   */\n      dup3\n        /* \"#utility.yul\":18130:18142   */\n      add\n        /* \"#utility.yul\":18123:18142   */\n      swap1\n      pop\n        /* \"#utility.yul\":17782:18148   */\n      swap2\n      swap1\n      pop\n      jump\t// out\n        /* \"#utility.yul\":18154:18573   */\n    tag_257:\n        /* \"#utility.yul\":18320:18324   */\n      0x00\n        /* \"#utility.yul\":18358:18360   */\n      0x20\n        /* \"#utility.yul\":18347:18356   */\n      dup3\n        /* \"#utility.yul\":18343:18361   */\n      add\n        /* \"#utility.yul\":18335:18361   */\n      swap1\n      pop\n        /* \"#utility.yul\":18407:18416   */\n      dup2\n        /* \"#utility.yul\":18401:18405   */\n      dup2\n        /* \"#utility.yul\":18397:18417   */\n      sub\n        /* \"#utility.yul\":18393:18394   */\n      0x00\n        /* \"#utility.yul\":18382:18391   */\n      dup4\n        /* \"#utility.yul\":18378:18395   */\n      add\n        /* \"#utility.yul\":18371:18418   */\n      mstore\n        /* \"#utility.yul\":18435:18566   */\n      tag_526\n        /* \"#utility.yul\":18561:18565   */\n      dup2\n        /* \"#utility.yul\":18435:18566   */\n      tag_329\n      jump\t// in\n    tag_526:\n        /* \"#utility.yul\":18427:18566   */\n      swap1\n      pop\n        /* \"#utility.yul\":18154:18573   */\n      swap2\n      swap1\n      pop\n      jump\t// out\n        /* \"#utility.yul\":18579:18800   */\n    tag_330:\n        /* \"#utility.yul\":18719:18753   */\n      0x45524332303a20617070726f766520746f20746865207a65726f206164647265\n        /* \"#utility.yul\":18715:18716   */\n      0x00\n        /* \"#utility.yul\":18707:18713   */\n      dup3\n        /* \"#utility.yul\":18703:18717   */\n      add\n        /* \"#utility.yul\":18696:18754   */\n      mstore\n        /* \"#utility.yul\":18788:18792   */\n      0x7373000000000000000000000000000000000000000000000000000000000000\n        /* \"#utility.yul\":18783:18785   */\n      0x20\n        /* \"#utility.yul\":18775:18781   */\n      dup3\n        /* \"#utility.yul\":18771:18786   */\n      add\n        /* \"#utility.yul\":18764:18793   */\n      mstore\n        /* \"#utility.yul\":18579:18800   */\n      pop\n      jump\t// out\n        /* \"#utility.yul\":18806:19172   */\n    tag_331:\n        /* \"#utility.yul\":18948:18951   */\n      0x00\n        /* \"#utility.yul\":18969:19036   */\n      tag_529\n        /* \"#utility.yul\":19033:19035   */\n      0x22\n        /* \"#utility.yul\":19028:19031   */\n      dup4\n        /* \"#utility.yul\":18969:19036   */\n      tag_293\n      jump\t// in\n    tag_529:\n        /* \"#utility.yul\":18962:19036   */\n      swap2\n      pop\n        /* \"#utility.yul\":19045:19138   */\n      tag_530\n        /* \"#utility.yul\":19134:19137   */\n      dup3\n        /* \"#utility.yul\":19045:19138   */\n      tag_330\n      jump\t// in\n    tag_530:\n        /* \"#utility.yul\":19163:19165   */\n      0x40\n        /* \"#utility.yul\":19158:19161   */\n      dup3\n        /* \"#utility.yul\":19154:19166   */\n      add\n        /* \"#utility.yul\":19147:19166   */\n      swap1\n      pop\n        /* \"#utility.yul\":18806:19172   */\n      swap2\n      swap1\n      pop\n      jump\t// out\n        /* \"#utility.yul\":19178:19597   */\n    tag_260:\n        /* \"#utility.yul\":19344:19348   */\n      0x00\n        /* \"#utility.yul\":19382:19384   */\n      0x20\n        /* \"#utility.yul\":19371:19380   */\n      dup3\n        /* \"#utility.yul\":19367:19385   */\n      add\n        /* \"#utility.yul\":19359:19385   */\n      swap1\n      pop\n        /* \"#utility.yul\":19431:19440   */\n      dup2\n        /* \"#utility.yul\":19425:19429   */\n      dup2\n        /* \"#utility.yul\":19421:19441   */\n      sub\n        /* \"#utility.yul\":19417:19418   */\n      0x00\n        /* \"#utility.yul\":19406:19415   */\n      dup4\n        /* \"#utility.yul\":19402:19419   */\n      add\n        /* \"#utility.yul\":19395:19442   */\n      mstore\n        /* \"#utility.yul\":19459:19590   */\n      tag_532\n        /* \"#utility.yul\":19585:19589   */\n      dup2\n        /* \"#utility.yul\":19459:19590   */\n      tag_331\n      jump\t// in\n    tag_532:\n        /* \"#utility.yul\":19451:19590   */\n      swap1\n      pop\n        /* \"#utility.yul\":19178:19597   */\n      swap2\n      swap1\n      pop\n      jump\t// out\n        /* \"#utility.yul\":19603:19782   */\n    tag_332:\n        /* \"#utility.yul\":19743:19774   */\n      0x45524332303a20696e73756666696369656e7420616c6c6f77616e6365000000\n        /* \"#utility.yul\":19739:19740   */\n      0x00\n        /* \"#utility.yul\":19731:19737   */\n      dup3\n        /* \"#utility.yul\":19727:19741   */\n      add\n        /* \"#utility.yul\":19720:19775   */\n      mstore\n        /* \"#utility.yul\":19603:19782   */\n      pop\n      jump\t// out\n        /* \"#utility.yul\":19788:20154   */\n    tag_333:\n        /* \"#utility.yul\":19930:19933   */\n      0x00\n        /* \"#utility.yul\":19951:20018   */\n      tag_535\n        /* \"#utility.yul\":20015:20017   */\n      0x1d\n        /* \"#utility.yul\":20010:20013   */\n      dup4\n        /* \"#utility.yul\":19951:20018   */\n      tag_293\n      jump\t// in\n    tag_535:\n        /* \"#utility.yul\":19944:20018   */\n      swap2\n      pop\n        /* \"#utility.yul\":20027:20120   */\n      tag_536\n        /* \"#utility.yul\":20116:20119   */\n      dup3\n        /* \"#utility.yul\":20027:20120   */\n      tag_332\n      jump\t// in\n    tag_536:\n        /* \"#utility.yul\":20145:20147   */\n      0x20\n        /* \"#utility.yul\":20140:20143   */\n      dup3\n        /* \"#utility.yul\":20136:20148   */\n      add\n        /* \"#utility.yul\":20129:20148   */\n      swap1\n      pop\n        /* \"#utility.yul\":19788:20154   */\n      swap2\n      swap1\n      pop\n      jump\t// out\n        /* \"#utility.yul\":20160:20579   */\n    tag_267:\n        /* \"#utility.yul\":20326:20330   */\n      0x00\n        /* \"#utility.yul\":20364:20366   */\n      0x20\n        /* \"#utility.yul\":20353:20362   */\n      dup3\n        /* \"#utility.yul\":20349:20367   */\n      add\n        /* \"#utility.yul\":20341:20367   */\n      swap1\n      pop\n        /* \"#utility.yul\":20413:20422   */\n      dup2\n        /* \"#utility.yul\":20407:20411   */\n      dup2\n        /* \"#utility.yul\":20403:20423   */\n      sub\n        /* \"#utility.yul\":20399:20400   */\n      0x00\n        /* \"#utility.yul\":20388:20397   */\n      dup4\n        /* \"#utility.yul\":20384:20401   */\n      add\n        /* \"#utility.yul\":20377:20424   */\n      mstore\n        /* \"#utility.yul\":20441:20572   */\n      tag_538\n        /* \"#utility.yul\":20567:20571   */\n      dup2\n        /* \"#utility.yul\":20441:20572   */\n      tag_333\n      jump\t// in\n    tag_538:\n        /* \"#utility.yul\":20433:20572   */\n      swap1\n      pop\n        /* \"#utility.yul\":20160:20579   */\n      swap2\n      swap1\n      pop\n      jump\t// out\n        /* \"#utility.yul\":20585:20809   */\n    tag_334:\n        /* \"#utility.yul\":20725:20759   */\n      0x45524332303a207472616e736665722066726f6d20746865207a65726f206164\n        /* \"#utility.yul\":20721:20722   */\n      0x00\n        /* \"#utility.yul\":20713:20719   */\n      dup3\n        /* \"#utility.yul\":20709:20723   */\n      add\n        /* \"#utility.yul\":20702:20760   */\n      mstore\n        /* \"#utility.yul\":20794:20801   */\n      0x6472657373000000000000000000000000000000000000000000000000000000\n        /* \"#utility.yul\":20789:20791   */\n      0x20\n        /* \"#utility.yul\":20781:20787   */\n      dup3\n        /* \"#utility.yul\":20777:20792   */\n      add\n        /* \"#utility.yul\":20770:20802   */\n      mstore\n        /* \"#utility.yul\":20585:20809   */\n      pop\n      jump\t// out\n        /* \"#utility.yul\":20815:21181   */\n    tag_335:\n        /* \"#utility.yul\":20957:20960   */\n      0x00\n        /* \"#utility.yul\":20978:21045   */\n      tag_541\n        /* \"#utility.yul\":21042:21044   */\n      0x25\n        /* \"#utility.yul\":21037:21040   */\n      dup4\n        /* \"#utility.yul\":20978:21045   */\n      tag_293\n      jump\t// in\n    tag_541:\n        /* \"#utility.yul\":20971:21045   */\n      swap2\n      pop\n        /* \"#utility.yul\":21054:21147   */\n      tag_542\n        /* \"#utility.yul\":21143:21146   */\n      dup3\n        /* \"#utility.yul\":21054:21147   */\n      tag_334\n      jump\t// in\n    tag_542:\n        /* \"#utility.yul\":21172:21174   */\n      0x40\n        /* \"#utility.yul\":21167:21170   */\n      dup3\n        /* \"#utility.yul\":21163:21175   */\n      add\n        /* \"#utility.yul\":21156:21175   */\n      swap1\n      pop\n        /* \"#utility.yul\":20815:21181   */\n      swap2\n      swap1\n      pop\n      jump\t// out\n        /* \"#utility.yul\":21187:21606   */\n    tag_272:\n        /* \"#utility.yul\":21353:21357   */\n      0x00\n        /* \"#utility.yul\":21391:21393   */\n      0x20\n        /* \"#utility.yul\":21380:21389   */\n      dup3\n        /* \"#utility.yul\":21376:21394   */\n      add\n        /* \"#utility.yul\":21368:21394   */\n      swap1\n      pop\n        /* \"#utility.yul\":21440:21449   */\n      dup2\n        /* \"#utility.yul\":21434:21438   */\n      dup2\n        /* \"#utility.yul\":21430:21450   */\n      sub\n        /* \"#utility.yul\":21426:21427   */\n      0x00\n        /* \"#utility.yul\":21415:21424   */\n      dup4\n        /* \"#utility.yul\":21411:21428   */\n      add\n        /* \"#utility.yul\":21404:21451   */\n      mstore\n        /* \"#utility.yul\":21468:21599   */\n      tag_544\n        /* \"#utility.yul\":21594:21598   */\n      dup2\n        /* \"#utility.yul\":21468:21599   */\n      tag_335\n      jump\t// in\n    tag_544:\n        /* \"#utility.yul\":21460:21599   */\n      swap1\n      pop\n        /* \"#utility.yul\":21187:21606   */\n      swap2\n      swap1\n      pop\n      jump\t// out\n        /* \"#utility.yul\":21612:21834   */\n    tag_336:\n        /* \"#utility.yul\":21752:21786   */\n      0x45524332303a207472616e7366657220746f20746865207a65726f2061646472\n        /* \"#utility.yul\":21748:21749   */\n      0x00\n        /* \"#utility.yul\":21740:21746   */\n      dup3\n        /* \"#utility.yul\":21736:21750   */\n      add\n        /* \"#utility.yul\":21729:21787   */\n      mstore\n        /* \"#utility.yul\":21821:21826   */\n      0x6573730000000000000000000000000000000000000000000000000000000000\n        /* \"#utility.yul\":21816:21818   */\n      0x20\n        /* \"#utility.yul\":21808:21814   */\n      dup3\n        /* \"#utility.yul\":21804:21819   */\n      add\n        /* \"#utility.yul\":21797:21827   */\n      mstore\n        /* \"#utility.yul\":21612:21834   */\n      pop\n      jump\t// out\n        /* \"#utility.yul\":21840:22206   */\n    tag_337:\n        /* \"#utility.yul\":21982:21985   */\n      0x00\n        /* \"#utility.yul\":22003:22070   */\n      tag_547\n        /* \"#utility.yul\":22067:22069   */\n      0x23\n        /* \"#utility.yul\":22062:22065   */\n      dup4\n        /* \"#utility.yul\":22003:22070   */\n      tag_293\n      jump\t// in\n    tag_547:\n        /* \"#utility.yul\":21996:22070   */\n      swap2\n      pop\n        /* \"#utility.yul\":22079:22172   */\n      tag_548\n        /* \"#utility.yul\":22168:22171   */\n      dup3\n        /* \"#utility.yul\":22079:22172   */\n      tag_336\n      jump\t// in\n    tag_548:\n        /* \"#utility.yul\":22197:22199   */\n      0x40\n        /* \"#utility.yul\":22192:22195   */\n      dup3\n        /* \"#utility.yul\":22188:22200   */\n      add\n        /* \"#utility.yul\":22181:22200   */\n      swap1\n      pop\n        /* \"#utility.yul\":21840:22206   */\n      swap2\n      swap1\n      pop\n      jump\t// out\n        /* \"#utility.yul\":22212:22631   */\n    tag_275:\n        /* \"#utility.yul\":22378:22382   */\n      0x00\n        /* \"#utility.yul\":22416:22418   */\n      0x20\n        /* \"#utility.yul\":22405:22414   */\n      dup3\n        /* \"#utility.yul\":22401:22419   */\n      add\n        /* \"#utility.yul\":22393:22419   */\n      swap1\n      pop\n        /* \"#utility.yul\":22465:22474   */\n      dup2\n        /* \"#utility.yul\":22459:22463   */\n      dup2\n        /* \"#utility.yul\":22455:22475   */\n      sub\n        /* \"#utility.yul\":22451:22452   */\n      0x00\n        /* \"#utility.yul\":22440:22449   */\n      dup4\n        /* \"#utility.yul\":22436:22453   */\n      add\n        /* \"#utility.yul\":22429:22476   */\n      mstore\n        /* \"#utility.yul\":22493:22624   */\n      tag_550\n        /* \"#utility.yul\":22619:22623   */\n      dup2\n        /* \"#utility.yul\":22493:22624   */\n      tag_337\n      jump\t// in\n    tag_550:\n        /* \"#utility.yul\":22485:22624   */\n      swap1\n      pop\n        /* \"#utility.yul\":22212:22631   */\n      swap2\n      swap1\n      pop\n      jump\t// out\n        /* \"#utility.yul\":22637:22862   */\n    tag_338:\n        /* \"#utility.yul\":22777:22811   */\n      0x45524332303a207472616e7366657220616d6f756e7420657863656564732062\n        /* \"#utility.yul\":22773:22774   */\n      0x00\n        /* \"#utility.yul\":22765:22771   */\n      dup3\n        /* \"#utility.yul\":22761:22775   */\n      add\n        /* \"#utility.yul\":22754:22812   */\n      mstore\n        /* \"#utility.yul\":22846:22854   */\n      0x616c616e63650000000000000000000000000000000000000000000000000000\n        /* \"#utility.yul\":22841:22843   */\n      0x20\n        /* \"#utility.yul\":22833:22839   */\n      dup3\n        /* \"#utility.yul\":22829:22844   */\n      add\n        /* \"#utility.yul\":22822:22855   */\n      mstore\n        /* \"#utility.yul\":22637:22862   */\n      pop\n      jump\t// out\n        /* \"#utility.yul\":22868:23234   */\n    tag_339:\n        /* \"#utility.yul\":23010:23013   */\n      0x00\n        /* \"#utility.yul\":23031:23098   */\n      tag_553\n        /* \"#utility.yul\":23095:23097   */\n      0x26\n        /* \"#utility.yul\":23090:23093   */\n      dup4\n        /* \"#utility.yul\":23031:23098   */\n      tag_293\n      jump\t// in\n    tag_553:\n        /* \"#utility.yul\":23024:23098   */\n      swap2\n      pop\n        /* \"#utility.yul\":23107:23200   */\n      tag_554\n        /* \"#utility.yul\":23196:23199   */\n      dup3\n        /* \"#utility.yul\":23107:23200   */\n      tag_338\n      jump\t// in\n    tag_554:\n        /* \"#utility.yul\":23225:23227   */\n      0x40\n        /* \"#utility.yul\":23220:23223   */\n      dup3\n        /* \"#utility.yul\":23216:23228   */\n      add\n        /* \"#utility.yul\":23209:23228   */\n      swap1\n      pop\n        /* \"#utility.yul\":22868:23234   */\n      swap2\n      swap1\n      pop\n      jump\t// out\n        /* \"#utility.yul\":23240:23659   */\n    tag_280:\n        /* \"#utility.yul\":23406:23410   */\n      0x00\n        /* \"#utility.yul\":23444:23446   */\n      0x20\n        /* \"#utility.yul\":23433:23442   */\n      dup3\n        /* \"#utility.yul\":23429:23447   */\n      add\n        /* \"#utility.yul\":23421:23447   */\n      swap1\n      pop\n        /* \"#utility.yul\":23493:23502   */\n      dup2\n        /* \"#utility.yul\":23487:23491   */\n      dup2\n        /* \"#utility.yul\":23483:23503   */\n      sub\n        /* \"#utility.yul\":23479:23480   */\n      0x00\n        /* \"#utility.yul\":23468:23477   */\n      dup4\n        /* \"#utility.yul\":23464:23481   */\n      add\n        /* \"#utility.yul\":23457:23504   */\n      mstore\n        /* \"#utility.yul\":23521:23652   */\n      tag_556\n        /* \"#utility.yul\":23647:23651   */\n      dup2\n        /* \"#utility.yul\":23521:23652   */\n      tag_339\n      jump\t// in\n    tag_556:\n        /* \"#utility.yul\":23513:23652   */\n      swap1\n      pop\n        /* \"#utility.yul\":23240:23659   */\n      swap2\n      swap1\n      pop\n      jump\t// out\n\n    auxdata: 0xa2646970667358221220a61cdba0dcc6f1c621f6c41fc510929f833656c2063f89c32c97a1a35bff745764736f6c63430008120033\n}\n",
				"bytecode": {
					"linkReferences": {},
					"object": "60806040523480156200001157600080fd5b506040518060400160405280600381526020017f44455800000000000000000000000000000000000000000000000000000000008152506040518060400160405280600381526020017f444558000000000000000000000000000000000000000000000000000000000081525081600390816200008f919062000515565b508060049081620000a1919062000515565b505050620000c3306c0c9f2c9cd04674edea400000006200012460201b60201c565b603260068190555062278d0060078190555033600560006101000a81548173ffffffffffffffffffffffffffffffffffffffff021916908373ffffffffffffffffffffffffffffffffffffffff160217905550600060088190555062000717565b600073ffffffffffffffffffffffffffffffffffffffff168273ffffffffffffffffffffffffffffffffffffffff160362000196576040517f08c379a00000000000000000000000000000000000000000000000000000000081526004016200018d906200065d565b60405180910390fd5b620001aa600083836200029160201b60201c565b8060026000828254620001be9190620006ae565b92505081905550806000808473ffffffffffffffffffffffffffffffffffffffff1673ffffffffffffffffffffffffffffffffffffffff168152602001908152602001600020600082825401925050819055508173ffffffffffffffffffffffffffffffffffffffff16600073ffffffffffffffffffffffffffffffffffffffff167fddf252ad1be2c89b69c2b068fc378daa952ba7f163c4a11628f55a4df523b3ef83604051620002719190620006fa565b60405180910390a36200028d600083836200029660201b60201c565b5050565b505050565b505050565b600081519050919050565b7f4e487b7100000000000000000000000000000000000000000000000000000000600052604160045260246000fd5b7f4e487b7100000000000000000000000000000000000000000000000000000000600052602260045260246000fd5b600060028204905060018216806200031d57607f821691505b602082108103620003335762000332620002d5565b5b50919050565b60008190508160005260206000209050919050565b60006020601f8301049050919050565b600082821b905092915050565b6000600883026200039d7fffffffffffffffffffffffffffffffffffffffffffffffffffffffffffffffff826200035e565b620003a986836200035e565b95508019841693508086168417925050509392505050565b6000819050919050565b6000819050919050565b6000620003f6620003f0620003ea84620003c1565b620003cb565b620003c1565b9050919050565b6000819050919050565b6200041283620003d5565b6200042a6200042182620003fd565b8484546200036b565b825550505050565b600090565b6200044162000432565b6200044e81848462000407565b505050565b5b8181101562000476576200046a60008262000437565b60018101905062000454565b5050565b601f821115620004c5576200048f8162000339565b6200049a846200034e565b81016020851015620004aa578190505b620004c2620004b9856200034e565b83018262000453565b50505b505050565b600082821c905092915050565b6000620004ea60001984600802620004ca565b1980831691505092915050565b6000620005058383620004d7565b9150826002028217905092915050565b62000520826200029b565b67ffffffffffffffff8111156200053c576200053b620002a6565b5b62000548825462000304565b620005558282856200047a565b600060209050601f8311600181146200058d576000841562000578578287015190505b620005848582620004f7565b865550620005f4565b601f1984166200059d8662000339565b60005b82811015620005c757848901518255600182019150602085019450602081019050620005a0565b86831015620005e75784890151620005e3601f891682620004d7565b8355505b6001600288020188555050505b505050505050565b600082825260208201905092915050565b7f45524332303a206d696e7420746f20746865207a65726f206164647265737300600082015250565b600062000645601f83620005fc565b915062000652826200060d565b602082019050919050565b60006020820190508181036000830152620006788162000636565b9050919050565b7f4e487b7100000000000000000000000000000000000000000000000000000000600052601160045260246000fd5b6000620006bb82620003c1565b9150620006c883620003c1565b9250828201905080821115620006e357620006e26200067f565b5b92915050565b620006f481620003c1565b82525050565b6000602082019050620007116000830184620006e9565b92915050565b61258e80620007276000396000f3fe60806040526004361061014b5760003560e01c8063918f7afe116100b6578063e1ec3c681161006f578063e1ec3c68146104dc578063e912615414610520578063ed344f021461053c578063ef71c26a14610565578063f3c3c58014610590578063f83e48cb1461059a5761014b565b8063918f7afe1461039457806395d89b41146103d1578063a457c2d7146103fc578063a9059cbb14610439578063aa7db8c814610476578063dd62ed3e1461049f5761014b565b80632941c500116101085780632941c500146102745780632e4136621461029d578063313ce567146102c657806339509351146102f157806370a082311461032e578063756c17411461036b5761014b565b806305fec2ed1461015057806306fdde0314610179578063095ea7b3146101a457806318160ddd146101e1578063191622ff1461020c57806323b872dd14610237575b600080fd5b34801561015c57600080fd5b5061017760048036038101906101729190611895565b6105c3565b005b34801561018557600080fd5b5061018e610627565b60405161019b9190611952565b60405180910390f35b3480156101b057600080fd5b506101cb60048036038101906101c691906119d2565b6106b9565b6040516101d89190611a2d565b60405180910390f35b3480156101ed57600080fd5b506101f66106dc565b6040516102039190611a57565b60405180910390f35b34801561021857600080fd5b506102216106e6565b60405161022e9190611a57565b60405180910390f35b34801561024357600080fd5b5061025e60048036038101906102599190611a72565b6106f6565b60405161026b9190611a2d565b60405180910390f35b34801561028057600080fd5b5061029b60048036038101906102969190611b03565b610725565b005b3480156102a957600080fd5b506102c460048036038101906102bf9190611b6a565b61072b565b005b3480156102d257600080fd5b506102db61072f565b6040516102e89190611bc6565b60405180910390f35b3480156102fd57600080fd5b50610318600480360381019061031391906119d2565b610738565b6040516103259190611a2d565b60405180910390f35b34801561033a57600080fd5b5061035560048036038101906103509190611be1565b61076f565b6040516103629190611a57565b60405180910390f35b34801561037757600080fd5b50610392600480360381019061038d9190611895565b6107b7565b005b3480156103a057600080fd5b506103bb60048036038101906103b69190611be1565b610862565b6040516103c89190611a57565b60405180910390f35b3480156103dd57600080fd5b506103e661087a565b6040516103f39190611952565b60405180910390f35b34801561040857600080fd5b50610423600480360381019061041e91906119d2565b61090c565b6040516104309190611a2d565b60405180910390f35b34801561044557600080fd5b50610460600480360381019061045b91906119d2565b610983565b60405161046d9190611a2d565b60405180910390f35b34801561048257600080fd5b5061049d60048036038101906104989190611b6a565b6109a6565b005b3480156104ab57600080fd5b506104c660048036038101906104c19190611c0e565b6109aa565b6040516104d39190611a57565b60405180910390f35b3480156104e857600080fd5b5061050360048036038101906104fe9190611895565b610a31565b604051610517989796959493929190611cbc565b60405180910390f35b61053a60048036038101906105359190611895565b610ae6565b005b34801561054857600080fd5b50610563600480360381019061055e9190611895565b610e1c565b005b34801561057157600080fd5b5061057a610f78565b6040516105879190611a57565b60405180910390f35b610598610f80565b005b3480156105a657600080fd5b506105c160048036038101906105bc9190611d3a565b610fea565b005b600560009054906101000a900473ffffffffffffffffffffffffffffffffffffffff1673ffffffffffffffffffffffffffffffffffffffff163373ffffffffffffffffffffffffffffffffffffffff161461061d57600080fd5b8060068190555050565b60606003805461063690611da9565b80601f016020809104026020016040519081016040528092919081815260200182805461066290611da9565b80156106af5780601f10610684576101008083540402835291602001916106af565b820191906000526020600020905b81548152906001019060200180831161069257829003601f168201915b5050505050905090565b6000806106c46112f4565b90506106d18185856112fc565b600191505092915050565b6000600254905090565b60006106f13361076f565b905090565b6000806107016112f4565b905061070e8582856114c5565b610719858585611551565b60019150509392505050565b50505050565b5050565b60006012905090565b6000806107436112f4565b905061076481858561075585896109aa565b61075f9190611e09565b6112fc565b600191505092915050565b60008060008373ffffffffffffffffffffffffffffffffffffffff1673ffffffffffffffffffffffffffffffffffffffff168152602001908152602001600020549050919050565b6000600654826107c79190611e6c565b90508047101561080c576040517f08c379a000000000000000000000000000000000000000000000000000000000815260040161080390611f0f565b60405180910390fd5b610817333084611551565b3373ffffffffffffffffffffffffffffffffffffffff166108fc829081150290604051600060405180830381858888f1935050505015801561085d573d6000803e3d6000fd5b505050565b600a6020528060005260406000206000915090505481565b60606004805461088990611da9565b80601f01602080910402602001604051908101604052809291908181526020018280546108b590611da9565b80156109025780601f106108d757610100808354040283529160200191610902565b820191906000526020600020905b8154815290600101906020018083116108e557829003601f168201915b5050505050905090565b6000806109176112f4565b9050600061092582866109aa565b90508381101561096a576040517f08c379a000000000000000000000000000000000000000000000000000000000815260040161096190611fa1565b60405180910390fd5b61097782868684036112fc565b60019250505092915050565b60008061098e6112f4565b905061099b818585611551565b600191505092915050565b5050565b6000600160008473ffffffffffffffffffffffffffffffffffffffff1673ffffffffffffffffffffffffffffffffffffffff16815260200190815260200160002060008373ffffffffffffffffffffffffffffffffffffffff1673ffffffffffffffffffffffffffffffffffffffff16815260200190815260200160002054905092915050565b60096020528060005260406000206000915090508060000154908060010154908060020154908060030160009054906101000a900473ffffffffffffffffffffffffffffffffffffffff16908060040160009054906101000a900473ffffffffffffffffffffffffffffffffffffffff16908060040160149054906101000a900460ff16908060050160009054906101000a900473ffffffffffffffffffffffffffffffffffffffff16908060060154905088565b60006009600083815260200190815260200160002090506000620151808260010154610b129190611e6c565b6005610b1e9190611fc1565b600654610b2b9190611e09565b905060008134610b3b9190611fc1565b90503483600201541015610b84576040517f08c379a0000000000000000000000000000000000000000000000000000000008152600401610b7b90612075565b60405180910390fd5b6000348460020154610b969190612095565b905080846002018190555083600960008781526020019081526020016000206000820154816000015560018201548160010155600282015481600201556003820160009054906101000a900473ffffffffffffffffffffffffffffffffffffffff168160030160006101000a81548173ffffffffffffffffffffffffffffffffffffffff021916908373ffffffffffffffffffffffffffffffffffffffff1602179055506004820160009054906101000a900473ffffffffffffffffffffffffffffffffffffffff168160040160006101000a81548173ffffffffffffffffffffffffffffffffffffffff021916908373ffffffffffffffffffffffffffffffffffffffff1602179055506004820160149054906101000a900460ff168160040160146101000a81548160ff0219169083151502179055506005820160009054906101000a900473ffffffffffffffffffffffffffffffffffffffff168160050160006101000a81548173ffffffffffffffffffffffffffffffffffffffff021916908373ffffffffffffffffffffffffffffffffffffffff16021790555060068201548160060155905050610d4d303384611551565b60008103610e155760096000868152602001908152602001600020600080820160009055600182016000905560028201600090556003820160006101000a81549073ffffffffffffffffffffffffffffffffffffffff02191690556004820160006101000a81549073ffffffffffffffffffffffffffffffffffffffff02191690556004820160146101000a81549060ff02191690556005820160006101000a81549073ffffffffffffffffffffffffffffffffffffffff0219169055600682016000905550505b5050505050565b6000600960008381526020019081526020016000209050600073ffffffffffffffffffffffffffffffffffffffff168160040160009054906101000a900473ffffffffffffffffffffffffffffffffffffffff1673ffffffffffffffffffffffffffffffffffffffff1603610ec6576040517f08c379a0000000000000000000000000000000000000000000000000000000008152600401610ebd90612115565b60405180910390fd5b4281600101548260000154610edb9190611e09565b1115610f74578060020154610f138260040160009054906101000a900473ffffffffffffffffffffffffffffffffffffffff1661076f565b10610f7257610f6d8160040160009054906101000a900473ffffffffffffffffffffffffffffffffffffffff16600560009054906101000a900473ffffffffffffffffffffffffffffffffffffffff168360020154611551565b610f73565b5b5b5050565b600047905090565b600060065434610f909190611fc1565b905080610f9b6106dc565b1015610fdc576040517f08c379a0000000000000000000000000000000000000000000000000000000008152600401610fd390612181565b60405180910390fd5b610fe7303383611551565b50565b81610ff43361076f565b1015610fff57600080fd5b60075481111561100e57600080fd5b6000620151808261101f9190611e6c565b600561102b9190611fc1565b6006546110389190611e09565b9050600081846110489190611e6c565b90506110526117d1565b8181604001818152505033816080019073ffffffffffffffffffffffffffffffffffffffff16908173ffffffffffffffffffffffffffffffffffffffff16815250508381602001818152505030816060019073ffffffffffffffffffffffffffffffffffffffff16908173ffffffffffffffffffffffffffffffffffffffff168152505060008160a0019015159081151581525050428160000181815250508060096000600854815260200190815260200160002060008201518160000155602082015181600101556040820151816002015560608201518160030160006101000a81548173ffffffffffffffffffffffffffffffffffffffff021916908373ffffffffffffffffffffffffffffffffffffffff16021790555060808201518160040160006101000a81548173ffffffffffffffffffffffffffffffffffffffff021916908373ffffffffffffffffffffffffffffffffffffffff16021790555060a08201518160040160146101000a81548160ff02191690831515021790555060c08201518160050160006101000a81548173ffffffffffffffffffffffffffffffffffffffff021916908373ffffffffffffffffffffffffffffffffffffffff16021790555060e082015181600601559050506008600081548092919061123a906121a1565b91905055503373ffffffffffffffffffffffffffffffffffffffff167f0f2c608b40926709a605e36d808476c12c3da0075b7eb8773f053465678be73683866040516112879291906121e9565b60405180910390a261129a333087611551565b3373ffffffffffffffffffffffffffffffffffffffff166108fc6002846112c19190611e6c565b9081150290604051600060405180830381858888f193505050501580156112ec573d6000803e3d6000fd5b505050505050565b600033905090565b600073ffffffffffffffffffffffffffffffffffffffff168373ffffffffffffffffffffffffffffffffffffffff160361136b576040517f08c379a000000000000000000000000000000000000000000000000000000000815260040161136290612284565b60405180910390fd5b600073ffffffffffffffffffffffffffffffffffffffff168273ffffffffffffffffffffffffffffffffffffffff16036113da576040517f08c379a00000000000000000000000000000000000000000000000000000000081526004016113d190612316565b60405180910390fd5b80600160008573ffffffffffffffffffffffffffffffffffffffff1673ffffffffffffffffffffffffffffffffffffffff16815260200190815260200160002060008473ffffffffffffffffffffffffffffffffffffffff1673ffffffffffffffffffffffffffffffffffffffff168152602001908152602001600020819055508173ffffffffffffffffffffffffffffffffffffffff168373ffffffffffffffffffffffffffffffffffffffff167f8c5be1e5ebec7d5bd14f71427d1e84f3dd0314c0f7b2291e5b200ac8c7c3b925836040516114b89190611a57565b60405180910390a3505050565b60006114d184846109aa565b90507fffffffffffffffffffffffffffffffffffffffffffffffffffffffffffffffff811461154b578181101561153d576040517f08c379a000000000000000000000000000000000000000000000000000000000815260040161153490612382565b60405180910390fd5b61154a84848484036112fc565b5b50505050565b600073ffffffffffffffffffffffffffffffffffffffff168373ffffffffffffffffffffffffffffffffffffffff16036115c0576040517f08c379a00000000000000000000000000000000000000000000000000000000081526004016115b790612414565b60405180910390fd5b600073ffffffffffffffffffffffffffffffffffffffff168273ffffffffffffffffffffffffffffffffffffffff160361162f576040517f08c379a0000000000000000000000000000000000000000000000000000000008152600401611626906124a6565b60405180910390fd5b61163a8383836117c7565b60008060008573ffffffffffffffffffffffffffffffffffffffff1673ffffffffffffffffffffffffffffffffffffffff168152602001908152602001600020549050818110156116c0576040517f08c379a00000000000000000000000000000000000000000000000000000000081526004016116b790612538565b60405180910390fd5b8181036000808673ffffffffffffffffffffffffffffffffffffffff1673ffffffffffffffffffffffffffffffffffffffff16815260200190815260200160002081905550816000808573ffffffffffffffffffffffffffffffffffffffff1673ffffffffffffffffffffffffffffffffffffffff168152602001908152602001600020600082825401925050819055508273ffffffffffffffffffffffffffffffffffffffff168473ffffffffffffffffffffffffffffffffffffffff167fddf252ad1be2c89b69c2b068fc378daa952ba7f163c4a11628f55a4df523b3ef846040516117ae9190611a57565b60405180910390a36117c18484846117cc565b50505050565b505050565b505050565b604051806101000160405280600081526020016000815260200160008152602001600073ffffffffffffffffffffffffffffffffffffffff168152602001600073ffffffffffffffffffffffffffffffffffffffff168152602001600015158152602001600073ffffffffffffffffffffffffffffffffffffffff168152602001600081525090565b600080fd5b6000819050919050565b6118728161185f565b811461187d57600080fd5b50565b60008135905061188f81611869565b92915050565b6000602082840312156118ab576118aa61185a565b5b60006118b984828501611880565b91505092915050565b600081519050919050565b600082825260208201905092915050565b60005b838110156118fc5780820151818401526020810190506118e1565b60008484015250505050565b6000601f19601f8301169050919050565b6000611924826118c2565b61192e81856118cd565b935061193e8185602086016118de565b61194781611908565b840191505092915050565b6000602082019050818103600083015261196c8184611919565b905092915050565b600073ffffffffffffffffffffffffffffffffffffffff82169050919050565b600061199f82611974565b9050919050565b6119af81611994565b81146119ba57600080fd5b50565b6000813590506119cc816119a6565b92915050565b600080604083850312156119e9576119e861185a565b5b60006119f7858286016119bd565b9250506020611a0885828601611880565b9150509250929050565b60008115159050919050565b611a2781611a12565b82525050565b6000602082019050611a426000830184611a1e565b92915050565b611a518161185f565b82525050565b6000602082019050611a6c6000830184611a48565b92915050565b600080600060608486031215611a8b57611a8a61185a565b5b6000611a99868287016119bd565b9350506020611aaa868287016119bd565b9250506040611abb86828701611880565b9150509250925092565b6000611ad082611994565b9050919050565b611ae081611ac5565b8114611aeb57600080fd5b50565b600081359050611afd81611ad7565b92915050565b60008060008060808587031215611b1d57611b1c61185a565b5b6000611b2b87828801611aee565b9450506020611b3c87828801611880565b9350506040611b4d87828801611880565b9250506060611b5e87828801611880565b91505092959194509250565b60008060408385031215611b8157611b8061185a565b5b6000611b8f85828601611aee565b9250506020611ba085828601611880565b9150509250929050565b600060ff82169050919050565b611bc081611baa565b82525050565b6000602082019050611bdb6000830184611bb7565b92915050565b600060208284031215611bf757611bf661185a565b5b6000611c05848285016119bd565b91505092915050565b60008060408385031215611c2557611c2461185a565b5b6000611c33858286016119bd565b9250506020611c44858286016119bd565b9150509250929050565b611c5781611994565b82525050565b6000819050919050565b6000611c82611c7d611c7884611974565b611c5d565b611974565b9050919050565b6000611c9482611c67565b9050919050565b6000611ca682611c89565b9050919050565b611cb681611c9b565b82525050565b600061010082019050611cd2600083018b611a48565b611cdf602083018a611a48565b611cec6040830189611a48565b611cf96060830188611c4e565b611d066080830187611c4e565b611d1360a0830186611a1e565b611d2060c0830185611cad565b611d2d60e0830184611a48565b9998505050505050505050565b60008060408385031215611d5157611d5061185a565b5b6000611d5f85828601611880565b9250506020611d7085828601611880565b9150509250929050565b7f4e487b7100000000000000000000000000000000000000000000000000000000600052602260045260246000fd5b60006002820490506001821680611dc157607f821691505b602082108103611dd457611dd3611d7a565b5b50919050565b7f4e487b7100000000000000000000000000000000000000000000000000000000600052601160045260246000fd5b6000611e148261185f565b9150611e1f8361185f565b9250828201905080821115611e3757611e36611dda565b5b92915050565b7f4e487b7100000000000000000000000000000000000000000000000000000000600052601260045260246000fd5b6000611e778261185f565b9150611e828361185f565b925082611e9257611e91611e3d565b5b828204905092915050565b7f496e73756666696369656e74204554482062616c616e636520696e207468652060008201527f636f6e7472616374000000000000000000000000000000000000000000000000602082015250565b6000611ef96028836118cd565b9150611f0482611e9d565b604082019050919050565b60006020820190508181036000830152611f2881611eec565b9050919050565b7f45524332303a2064656372656173656420616c6c6f77616e63652062656c6f7760008201527f207a65726f000000000000000000000000000000000000000000000000000000602082015250565b6000611f8b6025836118cd565b9150611f9682611f2f565b604082019050919050565b60006020820190508181036000830152611fba81611f7e565b9050919050565b6000611fcc8261185f565b9150611fd78361185f565b9250828202611fe58161185f565b91508282048414831517611ffc57611ffb611dda565b5b5092915050565b7f596f752072657475726e696e67206d6f7265207468656e20746865206c6f616e60008201527f2061636365707473000000000000000000000000000000000000000000000000602082015250565b600061205f6028836118cd565b915061206a82612003565b604082019050919050565b6000602082019050818103600083015261208e81612052565b9050919050565b60006120a08261185f565b91506120ab8361185f565b92508282039050818111156120c3576120c2611dda565b5b92915050565b7f4c6f616e20646f6573206e6f7420657869737400000000000000000000000000600082015250565b60006120ff6013836118cd565b915061210a826120c9565b602082019050919050565b6000602082019050818103600083015261212e816120f2565b9050919050565b7f6e6f7420656e6f7567682044455820666f722074686174206275790000000000600082015250565b600061216b601b836118cd565b915061217682612135565b602082019050919050565b6000602082019050818103600083015261219a8161215e565b9050919050565b60006121ac8261185f565b91507fffffffffffffffffffffffffffffffffffffffffffffffffffffffffffffffff82036121de576121dd611dda565b5b600182019050919050565b60006040820190506121fe6000830185611a48565b61220b6020830184611a48565b9392505050565b7f45524332303a20617070726f76652066726f6d20746865207a65726f2061646460008201527f7265737300000000000000000000000000000000000000000000000000000000602082015250565b600061226e6024836118cd565b915061227982612212565b604082019050919050565b6000602082019050818103600083015261229d81612261565b9050919050565b7f45524332303a20617070726f766520746f20746865207a65726f20616464726560008201527f7373000000000000000000000000000000000000000000000000000000000000602082015250565b60006123006022836118cd565b915061230b826122a4565b604082019050919050565b6000602082019050818103600083015261232f816122f3565b9050919050565b7f45524332303a20696e73756666696369656e7420616c6c6f77616e6365000000600082015250565b600061236c601d836118cd565b915061237782612336565b602082019050919050565b6000602082019050818103600083015261239b8161235f565b9050919050565b7f45524332303a207472616e736665722066726f6d20746865207a65726f20616460008201527f6472657373000000000000000000000000000000000000000000000000000000602082015250565b60006123fe6025836118cd565b9150612409826123a2565b604082019050919050565b6000602082019050818103600083015261242d816123f1565b9050919050565b7f45524332303a207472616e7366657220746f20746865207a65726f206164647260008201527f6573730000000000000000000000000000000000000000000000000000000000602082015250565b60006124906023836118cd565b915061249b82612434565b604082019050919050565b600060208201905081810360008301526124bf81612483565b9050919050565b7f45524332303a207472616e7366657220616d6f756e742065786365656473206260008201527f616c616e63650000000000000000000000000000000000000000000000000000602082015250565b60006125226026836118cd565b915061252d826124c6565b604082019050919050565b6000602082019050818103600083015261255181612515565b905091905056fea2646970667358221220a61cdba0dcc6f1c621f6c41fc510929f833656c2063f89c32c97a1a35bff745764736f6c63430008120033",
					"opcodes": "PUSH1 0x80 PUSH1 0x40 MSTORE CALLVALUE DUP1 ISZERO PUSH3 0x11 JUMPI PUSH1 0x0 DUP1 REVERT JUMPDEST POP PUSH1 0x40 MLOAD DUP1 PUSH1 0x40 ADD PUSH1 0x40 MSTORE DUP1 PUSH1 0x3 DUP2 MSTORE PUSH1 0x20 ADD PUSH32 0x4445580000000000000000000000000000000000000000000000000000000000 DUP2 MSTORE POP PUSH1 0x40 MLOAD DUP1 PUSH1 0x40 ADD PUSH1 0x40 MSTORE DUP1 PUSH1 0x3 DUP2 MSTORE PUSH1 0x20 ADD PUSH32 0x4445580000000000000000000000000000000000000000000000000000000000 DUP2 MSTORE POP DUP2 PUSH1 0x3 SWAP1 DUP2 PUSH3 0x8F SWAP2 SWAP1 PUSH3 0x515 JUMP JUMPDEST POP DUP1 PUSH1 0x4 SWAP1 DUP2 PUSH3 0xA1 SWAP2 SWAP1 PUSH3 0x515 JUMP JUMPDEST POP POP POP PUSH3 0xC3 ADDRESS PUSH13 0xC9F2C9CD04674EDEA40000000 PUSH3 0x124 PUSH1 0x20 SHL PUSH1 0x20 SHR JUMP JUMPDEST PUSH1 0x32 PUSH1 0x6 DUP2 SWAP1 SSTORE POP PUSH3 0x278D00 PUSH1 0x7 DUP2 SWAP1 SSTORE POP CALLER PUSH1 0x5 PUSH1 0x0 PUSH2 0x100 EXP DUP2 SLOAD DUP2 PUSH20 0xFFFFFFFFFFFFFFFFFFFFFFFFFFFFFFFFFFFFFFFF MUL NOT AND SWAP1 DUP4 PUSH20 0xFFFFFFFFFFFFFFFFFFFFFFFFFFFFFFFFFFFFFFFF AND MUL OR SWAP1 SSTORE POP PUSH1 0x0 PUSH1 0x8 DUP2 SWAP1 SSTORE POP PUSH3 0x717 JUMP JUMPDEST PUSH1 0x0 PUSH20 0xFFFFFFFFFFFFFFFFFFFFFFFFFFFFFFFFFFFFFFFF AND DUP3 PUSH20 0xFFFFFFFFFFFFFFFFFFFFFFFFFFFFFFFFFFFFFFFF AND SUB PUSH3 0x196 JUMPI PUSH1 0x40 MLOAD PUSH32 0x8C379A000000000000000000000000000000000000000000000000000000000 DUP2 MSTORE PUSH1 0x4 ADD PUSH3 0x18D SWAP1 PUSH3 0x65D JUMP JUMPDEST PUSH1 0x40 MLOAD DUP1 SWAP2 SUB SWAP1 REVERT JUMPDEST PUSH3 0x1AA PUSH1 0x0 DUP4 DUP4 PUSH3 0x291 PUSH1 0x20 SHL PUSH1 0x20 SHR JUMP JUMPDEST DUP1 PUSH1 0x2 PUSH1 0x0 DUP3 DUP3 SLOAD PUSH3 0x1BE SWAP2 SWAP1 PUSH3 0x6AE JUMP JUMPDEST SWAP3 POP POP DUP2 SWAP1 SSTORE POP DUP1 PUSH1 0x0 DUP1 DUP5 PUSH20 0xFFFFFFFFFFFFFFFFFFFFFFFFFFFFFFFFFFFFFFFF AND PUSH20 0xFFFFFFFFFFFFFFFFFFFFFFFFFFFFFFFFFFFFFFFF AND DUP2 MSTORE PUSH1 0x20 ADD SWAP1 DUP2 MSTORE PUSH1 0x20 ADD PUSH1 0x0 KECCAK256 PUSH1 0x0 DUP3 DUP3 SLOAD ADD SWAP3 POP POP DUP2 SWAP1 SSTORE POP DUP2 PUSH20 0xFFFFFFFFFFFFFFFFFFFFFFFFFFFFFFFFFFFFFFFF AND PUSH1 0x0 PUSH20 0xFFFFFFFFFFFFFFFFFFFFFFFFFFFFFFFFFFFFFFFF AND PUSH32 0xDDF252AD1BE2C89B69C2B068FC378DAA952BA7F163C4A11628F55A4DF523B3EF DUP4 PUSH1 0x40 MLOAD PUSH3 0x271 SWAP2 SWAP1 PUSH3 0x6FA JUMP JUMPDEST PUSH1 0x40 MLOAD DUP1 SWAP2 SUB SWAP1 LOG3 PUSH3 0x28D PUSH1 0x0 DUP4 DUP4 PUSH3 0x296 PUSH1 0x20 SHL PUSH1 0x20 SHR JUMP JUMPDEST POP POP JUMP JUMPDEST POP POP POP JUMP JUMPDEST POP POP POP JUMP JUMPDEST PUSH1 0x0 DUP2 MLOAD SWAP1 POP SWAP2 SWAP1 POP JUMP JUMPDEST PUSH32 0x4E487B7100000000000000000000000000000000000000000000000000000000 PUSH1 0x0 MSTORE PUSH1 0x41 PUSH1 0x4 MSTORE PUSH1 0x24 PUSH1 0x0 REVERT JUMPDEST PUSH32 0x4E487B7100000000000000000000000000000000000000000000000000000000 PUSH1 0x0 MSTORE PUSH1 0x22 PUSH1 0x4 MSTORE PUSH1 0x24 PUSH1 0x0 REVERT JUMPDEST PUSH1 0x0 PUSH1 0x2 DUP3 DIV SWAP1 POP PUSH1 0x1 DUP3 AND DUP1 PUSH3 0x31D JUMPI PUSH1 0x7F DUP3 AND SWAP2 POP JUMPDEST PUSH1 0x20 DUP3 LT DUP2 SUB PUSH3 0x333 JUMPI PUSH3 0x332 PUSH3 0x2D5 JUMP JUMPDEST JUMPDEST POP SWAP2 SWAP1 POP JUMP JUMPDEST PUSH1 0x0 DUP2 SWAP1 POP DUP2 PUSH1 0x0 MSTORE PUSH1 0x20 PUSH1 0x0 KECCAK256 SWAP1 POP SWAP2 SWAP1 POP JUMP JUMPDEST PUSH1 0x0 PUSH1 0x20 PUSH1 0x1F DUP4 ADD DIV SWAP1 POP SWAP2 SWAP1 POP JUMP JUMPDEST PUSH1 0x0 DUP3 DUP3 SHL SWAP1 POP SWAP3 SWAP2 POP POP JUMP JUMPDEST PUSH1 0x0 PUSH1 0x8 DUP4 MUL PUSH3 0x39D PUSH32 0xFFFFFFFFFFFFFFFFFFFFFFFFFFFFFFFFFFFFFFFFFFFFFFFFFFFFFFFFFFFFFFFF DUP3 PUSH3 0x35E JUMP JUMPDEST PUSH3 0x3A9 DUP7 DUP4 PUSH3 0x35E JUMP JUMPDEST SWAP6 POP DUP1 NOT DUP5 AND SWAP4 POP DUP1 DUP7 AND DUP5 OR SWAP3 POP POP POP SWAP4 SWAP3 POP POP POP JUMP JUMPDEST PUSH1 0x0 DUP2 SWAP1 POP SWAP2 SWAP1 POP JUMP JUMPDEST PUSH1 0x0 DUP2 SWAP1 POP SWAP2 SWAP1 POP JUMP JUMPDEST PUSH1 0x0 PUSH3 0x3F6 PUSH3 0x3F0 PUSH3 0x3EA DUP5 PUSH3 0x3C1 JUMP JUMPDEST PUSH3 0x3CB JUMP JUMPDEST PUSH3 0x3C1 JUMP JUMPDEST SWAP1 POP SWAP2 SWAP1 POP JUMP JUMPDEST PUSH1 0x0 DUP2 SWAP1 POP SWAP2 SWAP1 POP JUMP JUMPDEST PUSH3 0x412 DUP4 PUSH3 0x3D5 JUMP JUMPDEST PUSH3 0x42A PUSH3 0x421 DUP3 PUSH3 0x3FD JUMP JUMPDEST DUP5 DUP5 SLOAD PUSH3 0x36B JUMP JUMPDEST DUP3 SSTORE POP POP POP POP JUMP JUMPDEST PUSH1 0x0 SWAP1 JUMP JUMPDEST PUSH3 0x441 PUSH3 0x432 JUMP JUMPDEST PUSH3 0x44E DUP2 DUP5 DUP5 PUSH3 0x407 JUMP JUMPDEST POP POP POP JUMP JUMPDEST JUMPDEST DUP2 DUP2 LT ISZERO PUSH3 0x476 JUMPI PUSH3 0x46A PUSH1 0x0 DUP3 PUSH3 0x437 JUMP JUMPDEST PUSH1 0x1 DUP2 ADD SWAP1 POP PUSH3 0x454 JUMP JUMPDEST POP POP JUMP JUMPDEST PUSH1 0x1F DUP3 GT ISZERO PUSH3 0x4C5 JUMPI PUSH3 0x48F DUP2 PUSH3 0x339 JUMP JUMPDEST PUSH3 0x49A DUP5 PUSH3 0x34E JUMP JUMPDEST DUP2 ADD PUSH1 0x20 DUP6 LT ISZERO PUSH3 0x4AA JUMPI DUP2 SWAP1 POP JUMPDEST PUSH3 0x4C2 PUSH3 0x4B9 DUP6 PUSH3 0x34E JUMP JUMPDEST DUP4 ADD DUP3 PUSH3 0x453 JUMP JUMPDEST POP POP JUMPDEST POP POP POP JUMP JUMPDEST PUSH1 0x0 DUP3 DUP3 SHR SWAP1 POP SWAP3 SWAP2 POP POP JUMP JUMPDEST PUSH1 0x0 PUSH3 0x4EA PUSH1 0x0 NOT DUP5 PUSH1 0x8 MUL PUSH3 0x4CA JUMP JUMPDEST NOT DUP1 DUP4 AND SWAP2 POP POP SWAP3 SWAP2 POP POP JUMP JUMPDEST PUSH1 0x0 PUSH3 0x505 DUP4 DUP4 PUSH3 0x4D7 JUMP JUMPDEST SWAP2 POP DUP3 PUSH1 0x2 MUL DUP3 OR SWAP1 POP SWAP3 SWAP2 POP POP JUMP JUMPDEST PUSH3 0x520 DUP3 PUSH3 0x29B JUMP JUMPDEST PUSH8 0xFFFFFFFFFFFFFFFF DUP2 GT ISZERO PUSH3 0x53C JUMPI PUSH3 0x53B PUSH3 0x2A6 JUMP JUMPDEST JUMPDEST PUSH3 0x548 DUP3 SLOAD PUSH3 0x304 JUMP JUMPDEST PUSH3 0x555 DUP3 DUP3 DUP6 PUSH3 0x47A JUMP JUMPDEST PUSH1 0x0 PUSH1 0x20 SWAP1 POP PUSH1 0x1F DUP4 GT PUSH1 0x1 DUP2 EQ PUSH3 0x58D JUMPI PUSH1 0x0 DUP5 ISZERO PUSH3 0x578 JUMPI DUP3 DUP8 ADD MLOAD SWAP1 POP JUMPDEST PUSH3 0x584 DUP6 DUP3 PUSH3 0x4F7 JUMP JUMPDEST DUP7 SSTORE POP PUSH3 0x5F4 JUMP JUMPDEST PUSH1 0x1F NOT DUP5 AND PUSH3 0x59D DUP7 PUSH3 0x339 JUMP JUMPDEST PUSH1 0x0 JUMPDEST DUP3 DUP2 LT ISZERO PUSH3 0x5C7 JUMPI DUP5 DUP10 ADD MLOAD DUP3 SSTORE PUSH1 0x1 DUP3 ADD SWAP2 POP PUSH1 0x20 DUP6 ADD SWAP5 POP PUSH1 0x20 DUP2 ADD SWAP1 POP PUSH3 0x5A0 JUMP JUMPDEST DUP7 DUP4 LT ISZERO PUSH3 0x5E7 JUMPI DUP5 DUP10 ADD MLOAD PUSH3 0x5E3 PUSH1 0x1F DUP10 AND DUP3 PUSH3 0x4D7 JUMP JUMPDEST DUP4 SSTORE POP JUMPDEST PUSH1 0x1 PUSH1 0x2 DUP9 MUL ADD DUP9 SSTORE POP POP POP JUMPDEST POP POP POP POP POP POP JUMP JUMPDEST PUSH1 0x0 DUP3 DUP3 MSTORE PUSH1 0x20 DUP3 ADD SWAP1 POP SWAP3 SWAP2 POP POP JUMP JUMPDEST PUSH32 0x45524332303A206D696E7420746F20746865207A65726F206164647265737300 PUSH1 0x0 DUP3 ADD MSTORE POP JUMP JUMPDEST PUSH1 0x0 PUSH3 0x645 PUSH1 0x1F DUP4 PUSH3 0x5FC JUMP JUMPDEST SWAP2 POP PUSH3 0x652 DUP3 PUSH3 0x60D JUMP JUMPDEST PUSH1 0x20 DUP3 ADD SWAP1 POP SWAP2 SWAP1 POP JUMP JUMPDEST PUSH1 0x0 PUSH1 0x20 DUP3 ADD SWAP1 POP DUP2 DUP2 SUB PUSH1 0x0 DUP4 ADD MSTORE PUSH3 0x678 DUP2 PUSH3 0x636 JUMP JUMPDEST SWAP1 POP SWAP2 SWAP1 POP JUMP JUMPDEST PUSH32 0x4E487B7100000000000000000000000000000000000000000000000000000000 PUSH1 0x0 MSTORE PUSH1 0x11 PUSH1 0x4 MSTORE PUSH1 0x24 PUSH1 0x0 REVERT JUMPDEST PUSH1 0x0 PUSH3 0x6BB DUP3 PUSH3 0x3C1 JUMP JUMPDEST SWAP2 POP PUSH3 0x6C8 DUP4 PUSH3 0x3C1 JUMP JUMPDEST SWAP3 POP DUP3 DUP3 ADD SWAP1 POP DUP1 DUP3 GT ISZERO PUSH3 0x6E3 JUMPI PUSH3 0x6E2 PUSH3 0x67F JUMP JUMPDEST JUMPDEST SWAP3 SWAP2 POP POP JUMP JUMPDEST PUSH3 0x6F4 DUP2 PUSH3 0x3C1 JUMP JUMPDEST DUP3 MSTORE POP POP JUMP JUMPDEST PUSH1 0x0 PUSH1 0x20 DUP3 ADD SWAP1 POP PUSH3 0x711 PUSH1 0x0 DUP4 ADD DUP5 PUSH3 0x6E9 JUMP JUMPDEST SWAP3 SWAP2 POP POP JUMP JUMPDEST PUSH2 0x258E DUP1 PUSH3 0x727 PUSH1 0x0 CODECOPY PUSH1 0x0 RETURN INVALID PUSH1 0x80 PUSH1 0x40 MSTORE PUSH1 0x4 CALLDATASIZE LT PUSH2 0x14B JUMPI PUSH1 0x0 CALLDATALOAD PUSH1 0xE0 SHR DUP1 PUSH4 0x918F7AFE GT PUSH2 0xB6 JUMPI DUP1 PUSH4 0xE1EC3C68 GT PUSH2 0x6F JUMPI DUP1 PUSH4 0xE1EC3C68 EQ PUSH2 0x4DC JUMPI DUP1 PUSH4 0xE9126154 EQ PUSH2 0x520 JUMPI DUP1 PUSH4 0xED344F02 EQ PUSH2 0x53C JUMPI DUP1 PUSH4 0xEF71C26A EQ PUSH2 0x565 JUMPI DUP1 PUSH4 0xF3C3C580 EQ PUSH2 0x590 JUMPI DUP1 PUSH4 0xF83E48CB EQ PUSH2 0x59A JUMPI PUSH2 0x14B JUMP JUMPDEST DUP1 PUSH4 0x918F7AFE EQ PUSH2 0x394 JUMPI DUP1 PUSH4 0x95D89B41 EQ PUSH2 0x3D1 JUMPI DUP1 PUSH4 0xA457C2D7 EQ PUSH2 0x3FC JUMPI DUP1 PUSH4 0xA9059CBB EQ PUSH2 0x439 JUMPI DUP1 PUSH4 0xAA7DB8C8 EQ PUSH2 0x476 JUMPI DUP1 PUSH4 0xDD62ED3E EQ PUSH2 0x49F JUMPI PUSH2 0x14B JUMP JUMPDEST DUP1 PUSH4 0x2941C500 GT PUSH2 0x108 JUMPI DUP1 PUSH4 0x2941C500 EQ PUSH2 0x274 JUMPI DUP1 PUSH4 0x2E413662 EQ PUSH2 0x29D JUMPI DUP1 PUSH4 0x313CE567 EQ PUSH2 0x2C6 JUMPI DUP1 PUSH4 0x39509351 EQ PUSH2 0x2F1 JUMPI DUP1 PUSH4 0x70A08231 EQ PUSH2 0x32E JUMPI DUP1 PUSH4 0x756C1741 EQ PUSH2 0x36B JUMPI PUSH2 0x14B JUMP JUMPDEST DUP1 PUSH4 0x5FEC2ED EQ PUSH2 0x150 JUMPI DUP1 PUSH4 0x6FDDE03 EQ PUSH2 0x179 JUMPI DUP1 PUSH4 0x95EA7B3 EQ PUSH2 0x1A4 JUMPI DUP1 PUSH4 0x18160DDD EQ PUSH2 0x1E1 JUMPI DUP1 PUSH4 0x191622FF EQ PUSH2 0x20C JUMPI DUP1 PUSH4 0x23B872DD EQ PUSH2 0x237 JUMPI JUMPDEST PUSH1 0x0 DUP1 REVERT JUMPDEST CALLVALUE DUP1 ISZERO PUSH2 0x15C JUMPI PUSH1 0x0 DUP1 REVERT JUMPDEST POP PUSH2 0x177 PUSH1 0x4 DUP1 CALLDATASIZE SUB DUP2 ADD SWAP1 PUSH2 0x172 SWAP2 SWAP1 PUSH2 0x1895 JUMP JUMPDEST PUSH2 0x5C3 JUMP JUMPDEST STOP JUMPDEST CALLVALUE DUP1 ISZERO PUSH2 0x185 JUMPI PUSH1 0x0 DUP1 REVERT JUMPDEST POP PUSH2 0x18E PUSH2 0x627 JUMP JUMPDEST PUSH1 0x40 MLOAD PUSH2 0x19B SWAP2 SWAP1 PUSH2 0x1952 JUMP JUMPDEST PUSH1 0x40 MLOAD DUP1 SWAP2 SUB SWAP1 RETURN JUMPDEST CALLVALUE DUP1 ISZERO PUSH2 0x1B0 JUMPI PUSH1 0x0 DUP1 REVERT JUMPDEST POP PUSH2 0x1CB PUSH1 0x4 DUP1 CALLDATASIZE SUB DUP2 ADD SWAP1 PUSH2 0x1C6 SWAP2 SWAP1 PUSH2 0x19D2 JUMP JUMPDEST PUSH2 0x6B9 JUMP JUMPDEST PUSH1 0x40 MLOAD PUSH2 0x1D8 SWAP2 SWAP1 PUSH2 0x1A2D JUMP JUMPDEST PUSH1 0x40 MLOAD DUP1 SWAP2 SUB SWAP1 RETURN JUMPDEST CALLVALUE DUP1 ISZERO PUSH2 0x1ED JUMPI PUSH1 0x0 DUP1 REVERT JUMPDEST POP PUSH2 0x1F6 PUSH2 0x6DC JUMP JUMPDEST PUSH1 0x40 MLOAD PUSH2 0x203 SWAP2 SWAP1 PUSH2 0x1A57 JUMP JUMPDEST PUSH1 0x40 MLOAD DUP1 SWAP2 SUB SWAP1 RETURN JUMPDEST CALLVALUE DUP1 ISZERO PUSH2 0x218 JUMPI PUSH1 0x0 DUP1 REVERT JUMPDEST POP PUSH2 0x221 PUSH2 0x6E6 JUMP JUMPDEST PUSH1 0x40 MLOAD PUSH2 0x22E SWAP2 SWAP1 PUSH2 0x1A57 JUMP JUMPDEST PUSH1 0x40 MLOAD DUP1 SWAP2 SUB SWAP1 RETURN JUMPDEST CALLVALUE DUP1 ISZERO PUSH2 0x243 JUMPI PUSH1 0x0 DUP1 REVERT JUMPDEST POP PUSH2 0x25E PUSH1 0x4 DUP1 CALLDATASIZE SUB DUP2 ADD SWAP1 PUSH2 0x259 SWAP2 SWAP1 PUSH2 0x1A72 JUMP JUMPDEST PUSH2 0x6F6 JUMP JUMPDEST PUSH1 0x40 MLOAD PUSH2 0x26B SWAP2 SWAP1 PUSH2 0x1A2D JUMP JUMPDEST PUSH1 0x40 MLOAD DUP1 SWAP2 SUB SWAP1 RETURN JUMPDEST CALLVALUE DUP1 ISZERO PUSH2 0x280 JUMPI PUSH1 0x0 DUP1 REVERT JUMPDEST POP PUSH2 0x29B PUSH1 0x4 DUP1 CALLDATASIZE SUB DUP2 ADD SWAP1 PUSH2 0x296 SWAP2 SWAP1 PUSH2 0x1B03 JUMP JUMPDEST PUSH2 0x725 JUMP JUMPDEST STOP JUMPDEST CALLVALUE DUP1 ISZERO PUSH2 0x2A9 JUMPI PUSH1 0x0 DUP1 REVERT JUMPDEST POP PUSH2 0x2C4 PUSH1 0x4 DUP1 CALLDATASIZE SUB DUP2 ADD SWAP1 PUSH2 0x2BF SWAP2 SWAP1 PUSH2 0x1B6A JUMP JUMPDEST PUSH2 0x72B JUMP JUMPDEST STOP JUMPDEST CALLVALUE DUP1 ISZERO PUSH2 0x2D2 JUMPI PUSH1 0x0 DUP1 REVERT JUMPDEST POP PUSH2 0x2DB PUSH2 0x72F JUMP JUMPDEST PUSH1 0x40 MLOAD PUSH2 0x2E8 SWAP2 SWAP1 PUSH2 0x1BC6 JUMP JUMPDEST PUSH1 0x40 MLOAD DUP1 SWAP2 SUB SWAP1 RETURN JUMPDEST CALLVALUE DUP1 ISZERO PUSH2 0x2FD JUMPI PUSH1 0x0 DUP1 REVERT JUMPDEST POP PUSH2 0x318 PUSH1 0x4 DUP1 CALLDATASIZE SUB DUP2 ADD SWAP1 PUSH2 0x313 SWAP2 SWAP1 PUSH2 0x19D2 JUMP JUMPDEST PUSH2 0x738 JUMP JUMPDEST PUSH1 0x40 MLOAD PUSH2 0x325 SWAP2 SWAP1 PUSH2 0x1A2D JUMP JUMPDEST PUSH1 0x40 MLOAD DUP1 SWAP2 SUB SWAP1 RETURN JUMPDEST CALLVALUE DUP1 ISZERO PUSH2 0x33A JUMPI PUSH1 0x0 DUP1 REVERT JUMPDEST POP PUSH2 0x355 PUSH1 0x4 DUP1 CALLDATASIZE SUB DUP2 ADD SWAP1 PUSH2 0x350 SWAP2 SWAP1 PUSH2 0x1BE1 JUMP JUMPDEST PUSH2 0x76F JUMP JUMPDEST PUSH1 0x40 MLOAD PUSH2 0x362 SWAP2 SWAP1 PUSH2 0x1A57 JUMP JUMPDEST PUSH1 0x40 MLOAD DUP1 SWAP2 SUB SWAP1 RETURN JUMPDEST CALLVALUE DUP1 ISZERO PUSH2 0x377 JUMPI PUSH1 0x0 DUP1 REVERT JUMPDEST POP PUSH2 0x392 PUSH1 0x4 DUP1 CALLDATASIZE SUB DUP2 ADD SWAP1 PUSH2 0x38D SWAP2 SWAP1 PUSH2 0x1895 JUMP JUMPDEST PUSH2 0x7B7 JUMP JUMPDEST STOP JUMPDEST CALLVALUE DUP1 ISZERO PUSH2 0x3A0 JUMPI PUSH1 0x0 DUP1 REVERT JUMPDEST POP PUSH2 0x3BB PUSH1 0x4 DUP1 CALLDATASIZE SUB DUP2 ADD SWAP1 PUSH2 0x3B6 SWAP2 SWAP1 PUSH2 0x1BE1 JUMP JUMPDEST PUSH2 0x862 JUMP JUMPDEST PUSH1 0x40 MLOAD PUSH2 0x3C8 SWAP2 SWAP1 PUSH2 0x1A57 JUMP JUMPDEST PUSH1 0x40 MLOAD DUP1 SWAP2 SUB SWAP1 RETURN JUMPDEST CALLVALUE DUP1 ISZERO PUSH2 0x3DD JUMPI PUSH1 0x0 DUP1 REVERT JUMPDEST POP PUSH2 0x3E6 PUSH2 0x87A JUMP JUMPDEST PUSH1 0x40 MLOAD PUSH2 0x3F3 SWAP2 SWAP1 PUSH2 0x1952 JUMP JUMPDEST PUSH1 0x40 MLOAD DUP1 SWAP2 SUB SWAP1 RETURN JUMPDEST CALLVALUE DUP1 ISZERO PUSH2 0x408 JUMPI PUSH1 0x0 DUP1 REVERT JUMPDEST POP PUSH2 0x423 PUSH1 0x4 DUP1 CALLDATASIZE SUB DUP2 ADD SWAP1 PUSH2 0x41E SWAP2 SWAP1 PUSH2 0x19D2 JUMP JUMPDEST PUSH2 0x90C JUMP JUMPDEST PUSH1 0x40 MLOAD PUSH2 0x430 SWAP2 SWAP1 PUSH2 0x1A2D JUMP JUMPDEST PUSH1 0x40 MLOAD DUP1 SWAP2 SUB SWAP1 RETURN JUMPDEST CALLVALUE DUP1 ISZERO PUSH2 0x445 JUMPI PUSH1 0x0 DUP1 REVERT JUMPDEST POP PUSH2 0x460 PUSH1 0x4 DUP1 CALLDATASIZE SUB DUP2 ADD SWAP1 PUSH2 0x45B SWAP2 SWAP1 PUSH2 0x19D2 JUMP JUMPDEST PUSH2 0x983 JUMP JUMPDEST PUSH1 0x40 MLOAD PUSH2 0x46D SWAP2 SWAP1 PUSH2 0x1A2D JUMP JUMPDEST PUSH1 0x40 MLOAD DUP1 SWAP2 SUB SWAP1 RETURN JUMPDEST CALLVALUE DUP1 ISZERO PUSH2 0x482 JUMPI PUSH1 0x0 DUP1 REVERT JUMPDEST POP PUSH2 0x49D PUSH1 0x4 DUP1 CALLDATASIZE SUB DUP2 ADD SWAP1 PUSH2 0x498 SWAP2 SWAP1 PUSH2 0x1B6A JUMP JUMPDEST PUSH2 0x9A6 JUMP JUMPDEST STOP JUMPDEST CALLVALUE DUP1 ISZERO PUSH2 0x4AB JUMPI PUSH1 0x0 DUP1 REVERT JUMPDEST POP PUSH2 0x4C6 PUSH1 0x4 DUP1 CALLDATASIZE SUB DUP2 ADD SWAP1 PUSH2 0x4C1 SWAP2 SWAP1 PUSH2 0x1C0E JUMP JUMPDEST PUSH2 0x9AA JUMP JUMPDEST PUSH1 0x40 MLOAD PUSH2 0x4D3 SWAP2 SWAP1 PUSH2 0x1A57 JUMP JUMPDEST PUSH1 0x40 MLOAD DUP1 SWAP2 SUB SWAP1 RETURN JUMPDEST CALLVALUE DUP1 ISZERO PUSH2 0x4E8 JUMPI PUSH1 0x0 DUP1 REVERT JUMPDEST POP PUSH2 0x503 PUSH1 0x4 DUP1 CALLDATASIZE SUB DUP2 ADD SWAP1 PUSH2 0x4FE SWAP2 SWAP1 PUSH2 0x1895 JUMP JUMPDEST PUSH2 0xA31 JUMP JUMPDEST PUSH1 0x40 MLOAD PUSH2 0x517 SWAP9 SWAP8 SWAP7 SWAP6 SWAP5 SWAP4 SWAP3 SWAP2 SWAP1 PUSH2 0x1CBC JUMP JUMPDEST PUSH1 0x40 MLOAD DUP1 SWAP2 SUB SWAP1 RETURN JUMPDEST PUSH2 0x53A PUSH1 0x4 DUP1 CALLDATASIZE SUB DUP2 ADD SWAP1 PUSH2 0x535 SWAP2 SWAP1 PUSH2 0x1895 JUMP JUMPDEST PUSH2 0xAE6 JUMP JUMPDEST STOP JUMPDEST CALLVALUE DUP1 ISZERO PUSH2 0x548 JUMPI PUSH1 0x0 DUP1 REVERT JUMPDEST POP PUSH2 0x563 PUSH1 0x4 DUP1 CALLDATASIZE SUB DUP2 ADD SWAP1 PUSH2 0x55E SWAP2 SWAP1 PUSH2 0x1895 JUMP JUMPDEST PUSH2 0xE1C JUMP JUMPDEST STOP JUMPDEST CALLVALUE DUP1 ISZERO PUSH2 0x571 JUMPI PUSH1 0x0 DUP1 REVERT JUMPDEST POP PUSH2 0x57A PUSH2 0xF78 JUMP JUMPDEST PUSH1 0x40 MLOAD PUSH2 0x587 SWAP2 SWAP1 PUSH2 0x1A57 JUMP JUMPDEST PUSH1 0x40 MLOAD DUP1 SWAP2 SUB SWAP1 RETURN JUMPDEST PUSH2 0x598 PUSH2 0xF80 JUMP JUMPDEST STOP JUMPDEST CALLVALUE DUP1 ISZERO PUSH2 0x5A6 JUMPI PUSH1 0x0 DUP1 REVERT JUMPDEST POP PUSH2 0x5C1 PUSH1 0x4 DUP1 CALLDATASIZE SUB DUP2 ADD SWAP1 PUSH2 0x5BC SWAP2 SWAP1 PUSH2 0x1D3A JUMP JUMPDEST PUSH2 0xFEA JUMP JUMPDEST STOP JUMPDEST PUSH1 0x5 PUSH1 0x0 SWAP1 SLOAD SWAP1 PUSH2 0x100 EXP SWAP1 DIV PUSH20 0xFFFFFFFFFFFFFFFFFFFFFFFFFFFFFFFFFFFFFFFF AND PUSH20 0xFFFFFFFFFFFFFFFFFFFFFFFFFFFFFFFFFFFFFFFF AND CALLER PUSH20 0xFFFFFFFFFFFFFFFFFFFFFFFFFFFFFFFFFFFFFFFF AND EQ PUSH2 0x61D JUMPI PUSH1 0x0 DUP1 REVERT JUMPDEST DUP1 PUSH1 0x6 DUP2 SWAP1 SSTORE POP POP JUMP JUMPDEST PUSH1 0x60 PUSH1 0x3 DUP1 SLOAD PUSH2 0x636 SWAP1 PUSH2 0x1DA9 JUMP JUMPDEST DUP1 PUSH1 0x1F ADD PUSH1 0x20 DUP1 SWAP2 DIV MUL PUSH1 0x20 ADD PUSH1 0x40 MLOAD SWAP1 DUP2 ADD PUSH1 0x40 MSTORE DUP1 SWAP3 SWAP2 SWAP1 DUP2 DUP2 MSTORE PUSH1 0x20 ADD DUP3 DUP1 SLOAD PUSH2 0x662 SWAP1 PUSH2 0x1DA9 JUMP JUMPDEST DUP1 ISZERO PUSH2 0x6AF JUMPI DUP1 PUSH1 0x1F LT PUSH2 0x684 JUMPI PUSH2 0x100 DUP1 DUP4 SLOAD DIV MUL DUP4 MSTORE SWAP2 PUSH1 0x20 ADD SWAP2 PUSH2 0x6AF JUMP JUMPDEST DUP3 ADD SWAP2 SWAP1 PUSH1 0x0 MSTORE PUSH1 0x20 PUSH1 0x0 KECCAK256 SWAP1 JUMPDEST DUP2 SLOAD DUP2 MSTORE SWAP1 PUSH1 0x1 ADD SWAP1 PUSH1 0x20 ADD DUP1 DUP4 GT PUSH2 0x692 JUMPI DUP3 SWAP1 SUB PUSH1 0x1F AND DUP3 ADD SWAP2 JUMPDEST POP POP POP POP POP SWAP1 POP SWAP1 JUMP JUMPDEST PUSH1 0x0 DUP1 PUSH2 0x6C4 PUSH2 0x12F4 JUMP JUMPDEST SWAP1 POP PUSH2 0x6D1 DUP2 DUP6 DUP6 PUSH2 0x12FC JUMP JUMPDEST PUSH1 0x1 SWAP2 POP POP SWAP3 SWAP2 POP POP JUMP JUMPDEST PUSH1 0x0 PUSH1 0x2 SLOAD SWAP1 POP SWAP1 JUMP JUMPDEST PUSH1 0x0 PUSH2 0x6F1 CALLER PUSH2 0x76F JUMP JUMPDEST SWAP1 POP SWAP1 JUMP JUMPDEST PUSH1 0x0 DUP1 PUSH2 0x701 PUSH2 0x12F4 JUMP JUMPDEST SWAP1 POP PUSH2 0x70E DUP6 DUP3 DUP6 PUSH2 0x14C5 JUMP JUMPDEST PUSH2 0x719 DUP6 DUP6 DUP6 PUSH2 0x1551 JUMP JUMPDEST PUSH1 0x1 SWAP2 POP POP SWAP4 SWAP3 POP POP POP JUMP JUMPDEST POP POP POP POP JUMP JUMPDEST POP POP JUMP JUMPDEST PUSH1 0x0 PUSH1 0x12 SWAP1 POP SWAP1 JUMP JUMPDEST PUSH1 0x0 DUP1 PUSH2 0x743 PUSH2 0x12F4 JUMP JUMPDEST SWAP1 POP PUSH2 0x764 DUP2 DUP6 DUP6 PUSH2 0x755 DUP6 DUP10 PUSH2 0x9AA JUMP JUMPDEST PUSH2 0x75F SWAP2 SWAP1 PUSH2 0x1E09 JUMP JUMPDEST PUSH2 0x12FC JUMP JUMPDEST PUSH1 0x1 SWAP2 POP POP SWAP3 SWAP2 POP POP JUMP JUMPDEST PUSH1 0x0 DUP1 PUSH1 0x0 DUP4 PUSH20 0xFFFFFFFFFFFFFFFFFFFFFFFFFFFFFFFFFFFFFFFF AND PUSH20 0xFFFFFFFFFFFFFFFFFFFFFFFFFFFFFFFFFFFFFFFF AND DUP2 MSTORE PUSH1 0x20 ADD SWAP1 DUP2 MSTORE PUSH1 0x20 ADD PUSH1 0x0 KECCAK256 SLOAD SWAP1 POP SWAP2 SWAP1 POP JUMP JUMPDEST PUSH1 0x0 PUSH1 0x6 SLOAD DUP3 PUSH2 0x7C7 SWAP2 SWAP1 PUSH2 0x1E6C JUMP JUMPDEST SWAP1 POP DUP1 SELFBALANCE LT ISZERO PUSH2 0x80C JUMPI PUSH1 0x40 MLOAD PUSH32 0x8C379A000000000000000000000000000000000000000000000000000000000 DUP2 MSTORE PUSH1 0x4 ADD PUSH2 0x803 SWAP1 PUSH2 0x1F0F JUMP JUMPDEST PUSH1 0x40 MLOAD DUP1 SWAP2 SUB SWAP1 REVERT JUMPDEST PUSH2 0x817 CALLER ADDRESS DUP5 PUSH2 0x1551 JUMP JUMPDEST CALLER PUSH20 0xFFFFFFFFFFFFFFFFFFFFFFFFFFFFFFFFFFFFFFFF AND PUSH2 0x8FC DUP3 SWAP1 DUP2 ISZERO MUL SWAP1 PUSH1 0x40 MLOAD PUSH1 0x0 PUSH1 0x40 MLOAD DUP1 DUP4 SUB DUP2 DUP6 DUP9 DUP9 CALL SWAP4 POP POP POP POP ISZERO DUP1 ISZERO PUSH2 0x85D JUMPI RETURNDATASIZE PUSH1 0x0 DUP1 RETURNDATACOPY RETURNDATASIZE PUSH1 0x0 REVERT JUMPDEST POP POP POP JUMP JUMPDEST PUSH1 0xA PUSH1 0x20 MSTORE DUP1 PUSH1 0x0 MSTORE PUSH1 0x40 PUSH1 0x0 KECCAK256 PUSH1 0x0 SWAP2 POP SWAP1 POP SLOAD DUP2 JUMP JUMPDEST PUSH1 0x60 PUSH1 0x4 DUP1 SLOAD PUSH2 0x889 SWAP1 PUSH2 0x1DA9 JUMP JUMPDEST DUP1 PUSH1 0x1F ADD PUSH1 0x20 DUP1 SWAP2 DIV MUL PUSH1 0x20 ADD PUSH1 0x40 MLOAD SWAP1 DUP2 ADD PUSH1 0x40 MSTORE DUP1 SWAP3 SWAP2 SWAP1 DUP2 DUP2 MSTORE PUSH1 0x20 ADD DUP3 DUP1 SLOAD PUSH2 0x8B5 SWAP1 PUSH2 0x1DA9 JUMP JUMPDEST DUP1 ISZERO PUSH2 0x902 JUMPI DUP1 PUSH1 0x1F LT PUSH2 0x8D7 JUMPI PUSH2 0x100 DUP1 DUP4 SLOAD DIV MUL DUP4 MSTORE SWAP2 PUSH1 0x20 ADD SWAP2 PUSH2 0x902 JUMP JUMPDEST DUP3 ADD SWAP2 SWAP1 PUSH1 0x0 MSTORE PUSH1 0x20 PUSH1 0x0 KECCAK256 SWAP1 JUMPDEST DUP2 SLOAD DUP2 MSTORE SWAP1 PUSH1 0x1 ADD SWAP1 PUSH1 0x20 ADD DUP1 DUP4 GT PUSH2 0x8E5 JUMPI DUP3 SWAP1 SUB PUSH1 0x1F AND DUP3 ADD SWAP2 JUMPDEST POP POP POP POP POP SWAP1 POP SWAP1 JUMP JUMPDEST PUSH1 0x0 DUP1 PUSH2 0x917 PUSH2 0x12F4 JUMP JUMPDEST SWAP1 POP PUSH1 0x0 PUSH2 0x925 DUP3 DUP7 PUSH2 0x9AA JUMP JUMPDEST SWAP1 POP DUP4 DUP2 LT ISZERO PUSH2 0x96A JUMPI PUSH1 0x40 MLOAD PUSH32 0x8C379A000000000000000000000000000000000000000000000000000000000 DUP2 MSTORE PUSH1 0x4 ADD PUSH2 0x961 SWAP1 PUSH2 0x1FA1 JUMP JUMPDEST PUSH1 0x40 MLOAD DUP1 SWAP2 SUB SWAP1 REVERT JUMPDEST PUSH2 0x977 DUP3 DUP7 DUP7 DUP5 SUB PUSH2 0x12FC JUMP JUMPDEST PUSH1 0x1 SWAP3 POP POP POP SWAP3 SWAP2 POP POP JUMP JUMPDEST PUSH1 0x0 DUP1 PUSH2 0x98E PUSH2 0x12F4 JUMP JUMPDEST SWAP1 POP PUSH2 0x99B DUP2 DUP6 DUP6 PUSH2 0x1551 JUMP JUMPDEST PUSH1 0x1 SWAP2 POP POP SWAP3 SWAP2 POP POP JUMP JUMPDEST POP POP JUMP JUMPDEST PUSH1 0x0 PUSH1 0x1 PUSH1 0x0 DUP5 PUSH20 0xFFFFFFFFFFFFFFFFFFFFFFFFFFFFFFFFFFFFFFFF AND PUSH20 0xFFFFFFFFFFFFFFFFFFFFFFFFFFFFFFFFFFFFFFFF AND DUP2 MSTORE PUSH1 0x20 ADD SWAP1 DUP2 MSTORE PUSH1 0x20 ADD PUSH1 0x0 KECCAK256 PUSH1 0x0 DUP4 PUSH20 0xFFFFFFFFFFFFFFFFFFFFFFFFFFFFFFFFFFFFFFFF AND PUSH20 0xFFFFFFFFFFFFFFFFFFFFFFFFFFFFFFFFFFFFFFFF AND DUP2 MSTORE PUSH1 0x20 ADD SWAP1 DUP2 MSTORE PUSH1 0x20 ADD PUSH1 0x0 KECCAK256 SLOAD SWAP1 POP SWAP3 SWAP2 POP POP JUMP JUMPDEST PUSH1 0x9 PUSH1 0x20 MSTORE DUP1 PUSH1 0x0 MSTORE PUSH1 0x40 PUSH1 0x0 KECCAK256 PUSH1 0x0 SWAP2 POP SWAP1 POP DUP1 PUSH1 0x0 ADD SLOAD SWAP1 DUP1 PUSH1 0x1 ADD SLOAD SWAP1 DUP1 PUSH1 0x2 ADD SLOAD SWAP1 DUP1 PUSH1 0x3 ADD PUSH1 0x0 SWAP1 SLOAD SWAP1 PUSH2 0x100 EXP SWAP1 DIV PUSH20 0xFFFFFFFFFFFFFFFFFFFFFFFFFFFFFFFFFFFFFFFF AND SWAP1 DUP1 PUSH1 0x4 ADD PUSH1 0x0 SWAP1 SLOAD SWAP1 PUSH2 0x100 EXP SWAP1 DIV PUSH20 0xFFFFFFFFFFFFFFFFFFFFFFFFFFFFFFFFFFFFFFFF AND SWAP1 DUP1 PUSH1 0x4 ADD PUSH1 0x14 SWAP1 SLOAD SWAP1 PUSH2 0x100 EXP SWAP1 DIV PUSH1 0xFF AND SWAP1 DUP1 PUSH1 0x5 ADD PUSH1 0x0 SWAP1 SLOAD SWAP1 PUSH2 0x100 EXP SWAP1 DIV PUSH20 0xFFFFFFFFFFFFFFFFFFFFFFFFFFFFFFFFFFFFFFFF AND SWAP1 DUP1 PUSH1 0x6 ADD SLOAD SWAP1 POP DUP9 JUMP JUMPDEST PUSH1 0x0 PUSH1 0x9 PUSH1 0x0 DUP4 DUP2 MSTORE PUSH1 0x20 ADD SWAP1 DUP2 MSTORE PUSH1 0x20 ADD PUSH1 0x0 KECCAK256 SWAP1 POP PUSH1 0x0 PUSH3 0x15180 DUP3 PUSH1 0x1 ADD SLOAD PUSH2 0xB12 SWAP2 SWAP1 PUSH2 0x1E6C JUMP JUMPDEST PUSH1 0x5 PUSH2 0xB1E SWAP2 SWAP1 PUSH2 0x1FC1 JUMP JUMPDEST PUSH1 0x6 SLOAD PUSH2 0xB2B SWAP2 SWAP1 PUSH2 0x1E09 JUMP JUMPDEST SWAP1 POP PUSH1 0x0 DUP2 CALLVALUE PUSH2 0xB3B SWAP2 SWAP1 PUSH2 0x1FC1 JUMP JUMPDEST SWAP1 POP CALLVALUE DUP4 PUSH1 0x2 ADD SLOAD LT ISZERO PUSH2 0xB84 JUMPI PUSH1 0x40 MLOAD PUSH32 0x8C379A000000000000000000000000000000000000000000000000000000000 DUP2 MSTORE PUSH1 0x4 ADD PUSH2 0xB7B SWAP1 PUSH2 0x2075 JUMP JUMPDEST PUSH1 0x40 MLOAD DUP1 SWAP2 SUB SWAP1 REVERT JUMPDEST PUSH1 0x0 CALLVALUE DUP5 PUSH1 0x2 ADD SLOAD PUSH2 0xB96 SWAP2 SWAP1 PUSH2 0x2095 JUMP JUMPDEST SWAP1 POP DUP1 DUP5 PUSH1 0x2 ADD DUP2 SWAP1 SSTORE POP DUP4 PUSH1 0x9 PUSH1 0x0 DUP8 DUP2 MSTORE PUSH1 0x20 ADD SWAP1 DUP2 MSTORE PUSH1 0x20 ADD PUSH1 0x0 KECCAK256 PUSH1 0x0 DUP3 ADD SLOAD DUP2 PUSH1 0x0 ADD SSTORE PUSH1 0x1 DUP3 ADD SLOAD DUP2 PUSH1 0x1 ADD SSTORE PUSH1 0x2 DUP3 ADD SLOAD DUP2 PUSH1 0x2 ADD SSTORE PUSH1 0x3 DUP3 ADD PUSH1 0x0 SWAP1 SLOAD SWAP1 PUSH2 0x100 EXP SWAP1 DIV PUSH20 0xFFFFFFFFFFFFFFFFFFFFFFFFFFFFFFFFFFFFFFFF AND DUP2 PUSH1 0x3 ADD PUSH1 0x0 PUSH2 0x100 EXP DUP2 SLOAD DUP2 PUSH20 0xFFFFFFFFFFFFFFFFFFFFFFFFFFFFFFFFFFFFFFFF MUL NOT AND SWAP1 DUP4 PUSH20 0xFFFFFFFFFFFFFFFFFFFFFFFFFFFFFFFFFFFFFFFF AND MUL OR SWAP1 SSTORE POP PUSH1 0x4 DUP3 ADD PUSH1 0x0 SWAP1 SLOAD SWAP1 PUSH2 0x100 EXP SWAP1 DIV PUSH20 0xFFFFFFFFFFFFFFFFFFFFFFFFFFFFFFFFFFFFFFFF AND DUP2 PUSH1 0x4 ADD PUSH1 0x0 PUSH2 0x100 EXP DUP2 SLOAD DUP2 PUSH20 0xFFFFFFFFFFFFFFFFFFFFFFFFFFFFFFFFFFFFFFFF MUL NOT AND SWAP1 DUP4 PUSH20 0xFFFFFFFFFFFFFFFFFFFFFFFFFFFFFFFFFFFFFFFF AND MUL OR SWAP1 SSTORE POP PUSH1 0x4 DUP3 ADD PUSH1 0x14 SWAP1 SLOAD SWAP1 PUSH2 0x100 EXP SWAP1 DIV PUSH1 0xFF AND DUP2 PUSH1 0x4 ADD PUSH1 0x14 PUSH2 0x100 EXP DUP2 SLOAD DUP2 PUSH1 0xFF MUL NOT AND SWAP1 DUP4 ISZERO ISZERO MUL OR SWAP1 SSTORE POP PUSH1 0x5 DUP3 ADD PUSH1 0x0 SWAP1 SLOAD SWAP1 PUSH2 0x100 EXP SWAP1 DIV PUSH20 0xFFFFFFFFFFFFFFFFFFFFFFFFFFFFFFFFFFFFFFFF AND DUP2 PUSH1 0x5 ADD PUSH1 0x0 PUSH2 0x100 EXP DUP2 SLOAD DUP2 PUSH20 0xFFFFFFFFFFFFFFFFFFFFFFFFFFFFFFFFFFFFFFFF MUL NOT AND SWAP1 DUP4 PUSH20 0xFFFFFFFFFFFFFFFFFFFFFFFFFFFFFFFFFFFFFFFF AND MUL OR SWAP1 SSTORE POP PUSH1 0x6 DUP3 ADD SLOAD DUP2 PUSH1 0x6 ADD SSTORE SWAP1 POP POP PUSH2 0xD4D ADDRESS CALLER DUP5 PUSH2 0x1551 JUMP JUMPDEST PUSH1 0x0 DUP2 SUB PUSH2 0xE15 JUMPI PUSH1 0x9 PUSH1 0x0 DUP7 DUP2 MSTORE PUSH1 0x20 ADD SWAP1 DUP2 MSTORE PUSH1 0x20 ADD PUSH1 0x0 KECCAK256 PUSH1 0x0 DUP1 DUP3 ADD PUSH1 0x0 SWAP1 SSTORE PUSH1 0x1 DUP3 ADD PUSH1 0x0 SWAP1 SSTORE PUSH1 0x2 DUP3 ADD PUSH1 0x0 SWAP1 SSTORE PUSH1 0x3 DUP3 ADD PUSH1 0x0 PUSH2 0x100 EXP DUP2 SLOAD SWAP1 PUSH20 0xFFFFFFFFFFFFFFFFFFFFFFFFFFFFFFFFFFFFFFFF MUL NOT AND SWAP1 SSTORE PUSH1 0x4 DUP3 ADD PUSH1 0x0 PUSH2 0x100 EXP DUP2 SLOAD SWAP1 PUSH20 0xFFFFFFFFFFFFFFFFFFFFFFFFFFFFFFFFFFFFFFFF MUL NOT AND SWAP1 SSTORE PUSH1 0x4 DUP3 ADD PUSH1 0x14 PUSH2 0x100 EXP DUP2 SLOAD SWAP1 PUSH1 0xFF MUL NOT AND SWAP1 SSTORE PUSH1 0x5 DUP3 ADD PUSH1 0x0 PUSH2 0x100 EXP DUP2 SLOAD SWAP1 PUSH20 0xFFFFFFFFFFFFFFFFFFFFFFFFFFFFFFFFFFFFFFFF MUL NOT AND SWAP1 SSTORE PUSH1 0x6 DUP3 ADD PUSH1 0x0 SWAP1 SSTORE POP POP JUMPDEST POP POP POP POP POP JUMP JUMPDEST PUSH1 0x0 PUSH1 0x9 PUSH1 0x0 DUP4 DUP2 MSTORE PUSH1 0x20 ADD SWAP1 DUP2 MSTORE PUSH1 0x20 ADD PUSH1 0x0 KECCAK256 SWAP1 POP PUSH1 0x0 PUSH20 0xFFFFFFFFFFFFFFFFFFFFFFFFFFFFFFFFFFFFFFFF AND DUP2 PUSH1 0x4 ADD PUSH1 0x0 SWAP1 SLOAD SWAP1 PUSH2 0x100 EXP SWAP1 DIV PUSH20 0xFFFFFFFFFFFFFFFFFFFFFFFFFFFFFFFFFFFFFFFF AND PUSH20 0xFFFFFFFFFFFFFFFFFFFFFFFFFFFFFFFFFFFFFFFF AND SUB PUSH2 0xEC6 JUMPI PUSH1 0x40 MLOAD PUSH32 0x8C379A000000000000000000000000000000000000000000000000000000000 DUP2 MSTORE PUSH1 0x4 ADD PUSH2 0xEBD SWAP1 PUSH2 0x2115 JUMP JUMPDEST PUSH1 0x40 MLOAD DUP1 SWAP2 SUB SWAP1 REVERT JUMPDEST TIMESTAMP DUP2 PUSH1 0x1 ADD SLOAD DUP3 PUSH1 0x0 ADD SLOAD PUSH2 0xEDB SWAP2 SWAP1 PUSH2 0x1E09 JUMP JUMPDEST GT ISZERO PUSH2 0xF74 JUMPI DUP1 PUSH1 0x2 ADD SLOAD PUSH2 0xF13 DUP3 PUSH1 0x4 ADD PUSH1 0x0 SWAP1 SLOAD SWAP1 PUSH2 0x100 EXP SWAP1 DIV PUSH20 0xFFFFFFFFFFFFFFFFFFFFFFFFFFFFFFFFFFFFFFFF AND PUSH2 0x76F JUMP JUMPDEST LT PUSH2 0xF72 JUMPI PUSH2 0xF6D DUP2 PUSH1 0x4 ADD PUSH1 0x0 SWAP1 SLOAD SWAP1 PUSH2 0x100 EXP SWAP1 DIV PUSH20 0xFFFFFFFFFFFFFFFFFFFFFFFFFFFFFFFFFFFFFFFF AND PUSH1 0x5 PUSH1 0x0 SWAP1 SLOAD SWAP1 PUSH2 0x100 EXP SWAP1 DIV PUSH20 0xFFFFFFFFFFFFFFFFFFFFFFFFFFFFFFFFFFFFFFFF AND DUP4 PUSH1 0x2 ADD SLOAD PUSH2 0x1551 JUMP JUMPDEST PUSH2 0xF73 JUMP JUMPDEST JUMPDEST JUMPDEST POP POP JUMP JUMPDEST PUSH1 0x0 SELFBALANCE SWAP1 POP SWAP1 JUMP JUMPDEST PUSH1 0x0 PUSH1 0x6 SLOAD CALLVALUE PUSH2 0xF90 SWAP2 SWAP1 PUSH2 0x1FC1 JUMP JUMPDEST SWAP1 POP DUP1 PUSH2 0xF9B PUSH2 0x6DC JUMP JUMPDEST LT ISZERO PUSH2 0xFDC JUMPI PUSH1 0x40 MLOAD PUSH32 0x8C379A000000000000000000000000000000000000000000000000000000000 DUP2 MSTORE PUSH1 0x4 ADD PUSH2 0xFD3 SWAP1 PUSH2 0x2181 JUMP JUMPDEST PUSH1 0x40 MLOAD DUP1 SWAP2 SUB SWAP1 REVERT JUMPDEST PUSH2 0xFE7 ADDRESS CALLER DUP4 PUSH2 0x1551 JUMP JUMPDEST POP JUMP JUMPDEST DUP2 PUSH2 0xFF4 CALLER PUSH2 0x76F JUMP JUMPDEST LT ISZERO PUSH2 0xFFF JUMPI PUSH1 0x0 DUP1 REVERT JUMPDEST PUSH1 0x7 SLOAD DUP2 GT ISZERO PUSH2 0x100E JUMPI PUSH1 0x0 DUP1 REVERT JUMPDEST PUSH1 0x0 PUSH3 0x15180 DUP3 PUSH2 0x101F SWAP2 SWAP1 PUSH2 0x1E6C JUMP JUMPDEST PUSH1 0x5 PUSH2 0x102B SWAP2 SWAP1 PUSH2 0x1FC1 JUMP JUMPDEST PUSH1 0x6 SLOAD PUSH2 0x1038 SWAP2 SWAP1 PUSH2 0x1E09 JUMP JUMPDEST SWAP1 POP PUSH1 0x0 DUP2 DUP5 PUSH2 0x1048 SWAP2 SWAP1 PUSH2 0x1E6C JUMP JUMPDEST SWAP1 POP PUSH2 0x1052 PUSH2 0x17D1 JUMP JUMPDEST DUP2 DUP2 PUSH1 0x40 ADD DUP2 DUP2 MSTORE POP POP CALLER DUP2 PUSH1 0x80 ADD SWAP1 PUSH20 0xFFFFFFFFFFFFFFFFFFFFFFFFFFFFFFFFFFFFFFFF AND SWAP1 DUP2 PUSH20 0xFFFFFFFFFFFFFFFFFFFFFFFFFFFFFFFFFFFFFFFF AND DUP2 MSTORE POP POP DUP4 DUP2 PUSH1 0x20 ADD DUP2 DUP2 MSTORE POP POP ADDRESS DUP2 PUSH1 0x60 ADD SWAP1 PUSH20 0xFFFFFFFFFFFFFFFFFFFFFFFFFFFFFFFFFFFFFFFF AND SWAP1 DUP2 PUSH20 0xFFFFFFFFFFFFFFFFFFFFFFFFFFFFFFFFFFFFFFFF AND DUP2 MSTORE POP POP PUSH1 0x0 DUP2 PUSH1 0xA0 ADD SWAP1 ISZERO ISZERO SWAP1 DUP2 ISZERO ISZERO DUP2 MSTORE POP POP TIMESTAMP DUP2 PUSH1 0x0 ADD DUP2 DUP2 MSTORE POP POP DUP1 PUSH1 0x9 PUSH1 0x0 PUSH1 0x8 SLOAD DUP2 MSTORE PUSH1 0x20 ADD SWAP1 DUP2 MSTORE PUSH1 0x20 ADD PUSH1 0x0 KECCAK256 PUSH1 0x0 DUP3 ADD MLOAD DUP2 PUSH1 0x0 ADD SSTORE PUSH1 0x20 DUP3 ADD MLOAD DUP2 PUSH1 0x1 ADD SSTORE PUSH1 0x40 DUP3 ADD MLOAD DUP2 PUSH1 0x2 ADD SSTORE PUSH1 0x60 DUP3 ADD MLOAD DUP2 PUSH1 0x3 ADD PUSH1 0x0 PUSH2 0x100 EXP DUP2 SLOAD DUP2 PUSH20 0xFFFFFFFFFFFFFFFFFFFFFFFFFFFFFFFFFFFFFFFF MUL NOT AND SWAP1 DUP4 PUSH20 0xFFFFFFFFFFFFFFFFFFFFFFFFFFFFFFFFFFFFFFFF AND MUL OR SWAP1 SSTORE POP PUSH1 0x80 DUP3 ADD MLOAD DUP2 PUSH1 0x4 ADD PUSH1 0x0 PUSH2 0x100 EXP DUP2 SLOAD DUP2 PUSH20 0xFFFFFFFFFFFFFFFFFFFFFFFFFFFFFFFFFFFFFFFF MUL NOT AND SWAP1 DUP4 PUSH20 0xFFFFFFFFFFFFFFFFFFFFFFFFFFFFFFFFFFFFFFFF AND MUL OR SWAP1 SSTORE POP PUSH1 0xA0 DUP3 ADD MLOAD DUP2 PUSH1 0x4 ADD PUSH1 0x14 PUSH2 0x100 EXP DUP2 SLOAD DUP2 PUSH1 0xFF MUL NOT AND SWAP1 DUP4 ISZERO ISZERO MUL OR SWAP1 SSTORE POP PUSH1 0xC0 DUP3 ADD MLOAD DUP2 PUSH1 0x5 ADD PUSH1 0x0 PUSH2 0x100 EXP DUP2 SLOAD DUP2 PUSH20 0xFFFFFFFFFFFFFFFFFFFFFFFFFFFFFFFFFFFFFFFF MUL NOT AND SWAP1 DUP4 PUSH20 0xFFFFFFFFFFFFFFFFFFFFFFFFFFFFFFFFFFFFFFFF AND MUL OR SWAP1 SSTORE POP PUSH1 0xE0 DUP3 ADD MLOAD DUP2 PUSH1 0x6 ADD SSTORE SWAP1 POP POP PUSH1 0x8 PUSH1 0x0 DUP2 SLOAD DUP1 SWAP3 SWAP2 SWAP1 PUSH2 0x123A SWAP1 PUSH2 0x21A1 JUMP JUMPDEST SWAP2 SWAP1 POP SSTORE POP CALLER PUSH20 0xFFFFFFFFFFFFFFFFFFFFFFFFFFFFFFFFFFFFFFFF AND PUSH32 0xF2C608B40926709A605E36D808476C12C3DA0075B7EB8773F053465678BE736 DUP4 DUP7 PUSH1 0x40 MLOAD PUSH2 0x1287 SWAP3 SWAP2 SWAP1 PUSH2 0x21E9 JUMP JUMPDEST PUSH1 0x40 MLOAD DUP1 SWAP2 SUB SWAP1 LOG2 PUSH2 0x129A CALLER ADDRESS DUP8 PUSH2 0x1551 JUMP JUMPDEST CALLER PUSH20 0xFFFFFFFFFFFFFFFFFFFFFFFFFFFFFFFFFFFFFFFF AND PUSH2 0x8FC PUSH1 0x2 DUP5 PUSH2 0x12C1 SWAP2 SWAP1 PUSH2 0x1E6C JUMP JUMPDEST SWAP1 DUP2 ISZERO MUL SWAP1 PUSH1 0x40 MLOAD PUSH1 0x0 PUSH1 0x40 MLOAD DUP1 DUP4 SUB DUP2 DUP6 DUP9 DUP9 CALL SWAP4 POP POP POP POP ISZERO DUP1 ISZERO PUSH2 0x12EC JUMPI RETURNDATASIZE PUSH1 0x0 DUP1 RETURNDATACOPY RETURNDATASIZE PUSH1 0x0 REVERT JUMPDEST POP POP POP POP POP POP JUMP JUMPDEST PUSH1 0x0 CALLER SWAP1 POP SWAP1 JUMP JUMPDEST PUSH1 0x0 PUSH20 0xFFFFFFFFFFFFFFFFFFFFFFFFFFFFFFFFFFFFFFFF AND DUP4 PUSH20 0xFFFFFFFFFFFFFFFFFFFFFFFFFFFFFFFFFFFFFFFF AND SUB PUSH2 0x136B JUMPI PUSH1 0x40 MLOAD PUSH32 0x8C379A000000000000000000000000000000000000000000000000000000000 DUP2 MSTORE PUSH1 0x4 ADD PUSH2 0x1362 SWAP1 PUSH2 0x2284 JUMP JUMPDEST PUSH1 0x40 MLOAD DUP1 SWAP2 SUB SWAP1 REVERT JUMPDEST PUSH1 0x0 PUSH20 0xFFFFFFFFFFFFFFFFFFFFFFFFFFFFFFFFFFFFFFFF AND DUP3 PUSH20 0xFFFFFFFFFFFFFFFFFFFFFFFFFFFFFFFFFFFFFFFF AND SUB PUSH2 0x13DA JUMPI PUSH1 0x40 MLOAD PUSH32 0x8C379A000000000000000000000000000000000000000000000000000000000 DUP2 MSTORE PUSH1 0x4 ADD PUSH2 0x13D1 SWAP1 PUSH2 0x2316 JUMP JUMPDEST PUSH1 0x40 MLOAD DUP1 SWAP2 SUB SWAP1 REVERT JUMPDEST DUP1 PUSH1 0x1 PUSH1 0x0 DUP6 PUSH20 0xFFFFFFFFFFFFFFFFFFFFFFFFFFFFFFFFFFFFFFFF AND PUSH20 0xFFFFFFFFFFFFFFFFFFFFFFFFFFFFFFFFFFFFFFFF AND DUP2 MSTORE PUSH1 0x20 ADD SWAP1 DUP2 MSTORE PUSH1 0x20 ADD PUSH1 0x0 KECCAK256 PUSH1 0x0 DUP5 PUSH20 0xFFFFFFFFFFFFFFFFFFFFFFFFFFFFFFFFFFFFFFFF AND PUSH20 0xFFFFFFFFFFFFFFFFFFFFFFFFFFFFFFFFFFFFFFFF AND DUP2 MSTORE PUSH1 0x20 ADD SWAP1 DUP2 MSTORE PUSH1 0x20 ADD PUSH1 0x0 KECCAK256 DUP2 SWAP1 SSTORE POP DUP2 PUSH20 0xFFFFFFFFFFFFFFFFFFFFFFFFFFFFFFFFFFFFFFFF AND DUP4 PUSH20 0xFFFFFFFFFFFFFFFFFFFFFFFFFFFFFFFFFFFFFFFF AND PUSH32 0x8C5BE1E5EBEC7D5BD14F71427D1E84F3DD0314C0F7B2291E5B200AC8C7C3B925 DUP4 PUSH1 0x40 MLOAD PUSH2 0x14B8 SWAP2 SWAP1 PUSH2 0x1A57 JUMP JUMPDEST PUSH1 0x40 MLOAD DUP1 SWAP2 SUB SWAP1 LOG3 POP POP POP JUMP JUMPDEST PUSH1 0x0 PUSH2 0x14D1 DUP5 DUP5 PUSH2 0x9AA JUMP JUMPDEST SWAP1 POP PUSH32 0xFFFFFFFFFFFFFFFFFFFFFFFFFFFFFFFFFFFFFFFFFFFFFFFFFFFFFFFFFFFFFFFF DUP2 EQ PUSH2 0x154B JUMPI DUP2 DUP2 LT ISZERO PUSH2 0x153D JUMPI PUSH1 0x40 MLOAD PUSH32 0x8C379A000000000000000000000000000000000000000000000000000000000 DUP2 MSTORE PUSH1 0x4 ADD PUSH2 0x1534 SWAP1 PUSH2 0x2382 JUMP JUMPDEST PUSH1 0x40 MLOAD DUP1 SWAP2 SUB SWAP1 REVERT JUMPDEST PUSH2 0x154A DUP5 DUP5 DUP5 DUP5 SUB PUSH2 0x12FC JUMP JUMPDEST JUMPDEST POP POP POP POP JUMP JUMPDEST PUSH1 0x0 PUSH20 0xFFFFFFFFFFFFFFFFFFFFFFFFFFFFFFFFFFFFFFFF AND DUP4 PUSH20 0xFFFFFFFFFFFFFFFFFFFFFFFFFFFFFFFFFFFFFFFF AND SUB PUSH2 0x15C0 JUMPI PUSH1 0x40 MLOAD PUSH32 0x8C379A000000000000000000000000000000000000000000000000000000000 DUP2 MSTORE PUSH1 0x4 ADD PUSH2 0x15B7 SWAP1 PUSH2 0x2414 JUMP JUMPDEST PUSH1 0x40 MLOAD DUP1 SWAP2 SUB SWAP1 REVERT JUMPDEST PUSH1 0x0 PUSH20 0xFFFFFFFFFFFFFFFFFFFFFFFFFFFFFFFFFFFFFFFF AND DUP3 PUSH20 0xFFFFFFFFFFFFFFFFFFFFFFFFFFFFFFFFFFFFFFFF AND SUB PUSH2 0x162F JUMPI PUSH1 0x40 MLOAD PUSH32 0x8C379A000000000000000000000000000000000000000000000000000000000 DUP2 MSTORE PUSH1 0x4 ADD PUSH2 0x1626 SWAP1 PUSH2 0x24A6 JUMP JUMPDEST PUSH1 0x40 MLOAD DUP1 SWAP2 SUB SWAP1 REVERT JUMPDEST PUSH2 0x163A DUP4 DUP4 DUP4 PUSH2 0x17C7 JUMP JUMPDEST PUSH1 0x0 DUP1 PUSH1 0x0 DUP6 PUSH20 0xFFFFFFFFFFFFFFFFFFFFFFFFFFFFFFFFFFFFFFFF AND PUSH20 0xFFFFFFFFFFFFFFFFFFFFFFFFFFFFFFFFFFFFFFFF AND DUP2 MSTORE PUSH1 0x20 ADD SWAP1 DUP2 MSTORE PUSH1 0x20 ADD PUSH1 0x0 KECCAK256 SLOAD SWAP1 POP DUP2 DUP2 LT ISZERO PUSH2 0x16C0 JUMPI PUSH1 0x40 MLOAD PUSH32 0x8C379A000000000000000000000000000000000000000000000000000000000 DUP2 MSTORE PUSH1 0x4 ADD PUSH2 0x16B7 SWAP1 PUSH2 0x2538 JUMP JUMPDEST PUSH1 0x40 MLOAD DUP1 SWAP2 SUB SWAP1 REVERT JUMPDEST DUP2 DUP2 SUB PUSH1 0x0 DUP1 DUP7 PUSH20 0xFFFFFFFFFFFFFFFFFFFFFFFFFFFFFFFFFFFFFFFF AND PUSH20 0xFFFFFFFFFFFFFFFFFFFFFFFFFFFFFFFFFFFFFFFF AND DUP2 MSTORE PUSH1 0x20 ADD SWAP1 DUP2 MSTORE PUSH1 0x20 ADD PUSH1 0x0 KECCAK256 DUP2 SWAP1 SSTORE POP DUP2 PUSH1 0x0 DUP1 DUP6 PUSH20 0xFFFFFFFFFFFFFFFFFFFFFFFFFFFFFFFFFFFFFFFF AND PUSH20 0xFFFFFFFFFFFFFFFFFFFFFFFFFFFFFFFFFFFFFFFF AND DUP2 MSTORE PUSH1 0x20 ADD SWAP1 DUP2 MSTORE PUSH1 0x20 ADD PUSH1 0x0 KECCAK256 PUSH1 0x0 DUP3 DUP3 SLOAD ADD SWAP3 POP POP DUP2 SWAP1 SSTORE POP DUP3 PUSH20 0xFFFFFFFFFFFFFFFFFFFFFFFFFFFFFFFFFFFFFFFF AND DUP5 PUSH20 0xFFFFFFFFFFFFFFFFFFFFFFFFFFFFFFFFFFFFFFFF AND PUSH32 0xDDF252AD1BE2C89B69C2B068FC378DAA952BA7F163C4A11628F55A4DF523B3EF DUP5 PUSH1 0x40 MLOAD PUSH2 0x17AE SWAP2 SWAP1 PUSH2 0x1A57 JUMP JUMPDEST PUSH1 0x40 MLOAD DUP1 SWAP2 SUB SWAP1 LOG3 PUSH2 0x17C1 DUP5 DUP5 DUP5 PUSH2 0x17CC JUMP JUMPDEST POP POP POP POP JUMP JUMPDEST POP POP POP JUMP JUMPDEST POP POP POP JUMP JUMPDEST PUSH1 0x40 MLOAD DUP1 PUSH2 0x100 ADD PUSH1 0x40 MSTORE DUP1 PUSH1 0x0 DUP2 MSTORE PUSH1 0x20 ADD PUSH1 0x0 DUP2 MSTORE PUSH1 0x20 ADD PUSH1 0x0 DUP2 MSTORE PUSH1 0x20 ADD PUSH1 0x0 PUSH20 0xFFFFFFFFFFFFFFFFFFFFFFFFFFFFFFFFFFFFFFFF AND DUP2 MSTORE PUSH1 0x20 ADD PUSH1 0x0 PUSH20 0xFFFFFFFFFFFFFFFFFFFFFFFFFFFFFFFFFFFFFFFF AND DUP2 MSTORE PUSH1 0x20 ADD PUSH1 0x0 ISZERO ISZERO DUP2 MSTORE PUSH1 0x20 ADD PUSH1 0x0 PUSH20 0xFFFFFFFFFFFFFFFFFFFFFFFFFFFFFFFFFFFFFFFF AND DUP2 MSTORE PUSH1 0x20 ADD PUSH1 0x0 DUP2 MSTORE POP SWAP1 JUMP JUMPDEST PUSH1 0x0 DUP1 REVERT JUMPDEST PUSH1 0x0 DUP2 SWAP1 POP SWAP2 SWAP1 POP JUMP JUMPDEST PUSH2 0x1872 DUP2 PUSH2 0x185F JUMP JUMPDEST DUP2 EQ PUSH2 0x187D JUMPI PUSH1 0x0 DUP1 REVERT JUMPDEST POP JUMP JUMPDEST PUSH1 0x0 DUP2 CALLDATALOAD SWAP1 POP PUSH2 0x188F DUP2 PUSH2 0x1869 JUMP JUMPDEST SWAP3 SWAP2 POP POP JUMP JUMPDEST PUSH1 0x0 PUSH1 0x20 DUP3 DUP5 SUB SLT ISZERO PUSH2 0x18AB JUMPI PUSH2 0x18AA PUSH2 0x185A JUMP JUMPDEST JUMPDEST PUSH1 0x0 PUSH2 0x18B9 DUP5 DUP3 DUP6 ADD PUSH2 0x1880 JUMP JUMPDEST SWAP2 POP POP SWAP3 SWAP2 POP POP JUMP JUMPDEST PUSH1 0x0 DUP2 MLOAD SWAP1 POP SWAP2 SWAP1 POP JUMP JUMPDEST PUSH1 0x0 DUP3 DUP3 MSTORE PUSH1 0x20 DUP3 ADD SWAP1 POP SWAP3 SWAP2 POP POP JUMP JUMPDEST PUSH1 0x0 JUMPDEST DUP4 DUP2 LT ISZERO PUSH2 0x18FC JUMPI DUP1 DUP3 ADD MLOAD DUP2 DUP5 ADD MSTORE PUSH1 0x20 DUP2 ADD SWAP1 POP PUSH2 0x18E1 JUMP JUMPDEST PUSH1 0x0 DUP5 DUP5 ADD MSTORE POP POP POP POP JUMP JUMPDEST PUSH1 0x0 PUSH1 0x1F NOT PUSH1 0x1F DUP4 ADD AND SWAP1 POP SWAP2 SWAP1 POP JUMP JUMPDEST PUSH1 0x0 PUSH2 0x1924 DUP3 PUSH2 0x18C2 JUMP JUMPDEST PUSH2 0x192E DUP2 DUP6 PUSH2 0x18CD JUMP JUMPDEST SWAP4 POP PUSH2 0x193E DUP2 DUP6 PUSH1 0x20 DUP7 ADD PUSH2 0x18DE JUMP JUMPDEST PUSH2 0x1947 DUP2 PUSH2 0x1908 JUMP JUMPDEST DUP5 ADD SWAP2 POP POP SWAP3 SWAP2 POP POP JUMP JUMPDEST PUSH1 0x0 PUSH1 0x20 DUP3 ADD SWAP1 POP DUP2 DUP2 SUB PUSH1 0x0 DUP4 ADD MSTORE PUSH2 0x196C DUP2 DUP5 PUSH2 0x1919 JUMP JUMPDEST SWAP1 POP SWAP3 SWAP2 POP POP JUMP JUMPDEST PUSH1 0x0 PUSH20 0xFFFFFFFFFFFFFFFFFFFFFFFFFFFFFFFFFFFFFFFF DUP3 AND SWAP1 POP SWAP2 SWAP1 POP JUMP JUMPDEST PUSH1 0x0 PUSH2 0x199F DUP3 PUSH2 0x1974 JUMP JUMPDEST SWAP1 POP SWAP2 SWAP1 POP JUMP JUMPDEST PUSH2 0x19AF DUP2 PUSH2 0x1994 JUMP JUMPDEST DUP2 EQ PUSH2 0x19BA JUMPI PUSH1 0x0 DUP1 REVERT JUMPDEST POP JUMP JUMPDEST PUSH1 0x0 DUP2 CALLDATALOAD SWAP1 POP PUSH2 0x19CC DUP2 PUSH2 0x19A6 JUMP JUMPDEST SWAP3 SWAP2 POP POP JUMP JUMPDEST PUSH1 0x0 DUP1 PUSH1 0x40 DUP4 DUP6 SUB SLT ISZERO PUSH2 0x19E9 JUMPI PUSH2 0x19E8 PUSH2 0x185A JUMP JUMPDEST JUMPDEST PUSH1 0x0 PUSH2 0x19F7 DUP6 DUP3 DUP7 ADD PUSH2 0x19BD JUMP JUMPDEST SWAP3 POP POP PUSH1 0x20 PUSH2 0x1A08 DUP6 DUP3 DUP7 ADD PUSH2 0x1880 JUMP JUMPDEST SWAP2 POP POP SWAP3 POP SWAP3 SWAP1 POP JUMP JUMPDEST PUSH1 0x0 DUP2 ISZERO ISZERO SWAP1 POP SWAP2 SWAP1 POP JUMP JUMPDEST PUSH2 0x1A27 DUP2 PUSH2 0x1A12 JUMP JUMPDEST DUP3 MSTORE POP POP JUMP JUMPDEST PUSH1 0x0 PUSH1 0x20 DUP3 ADD SWAP1 POP PUSH2 0x1A42 PUSH1 0x0 DUP4 ADD DUP5 PUSH2 0x1A1E JUMP JUMPDEST SWAP3 SWAP2 POP POP JUMP JUMPDEST PUSH2 0x1A51 DUP2 PUSH2 0x185F JUMP JUMPDEST DUP3 MSTORE POP POP JUMP JUMPDEST PUSH1 0x0 PUSH1 0x20 DUP3 ADD SWAP1 POP PUSH2 0x1A6C PUSH1 0x0 DUP4 ADD DUP5 PUSH2 0x1A48 JUMP JUMPDEST SWAP3 SWAP2 POP POP JUMP JUMPDEST PUSH1 0x0 DUP1 PUSH1 0x0 PUSH1 0x60 DUP5 DUP7 SUB SLT ISZERO PUSH2 0x1A8B JUMPI PUSH2 0x1A8A PUSH2 0x185A JUMP JUMPDEST JUMPDEST PUSH1 0x0 PUSH2 0x1A99 DUP7 DUP3 DUP8 ADD PUSH2 0x19BD JUMP JUMPDEST SWAP4 POP POP PUSH1 0x20 PUSH2 0x1AAA DUP7 DUP3 DUP8 ADD PUSH2 0x19BD JUMP JUMPDEST SWAP3 POP POP PUSH1 0x40 PUSH2 0x1ABB DUP7 DUP3 DUP8 ADD PUSH2 0x1880 JUMP JUMPDEST SWAP2 POP POP SWAP3 POP SWAP3 POP SWAP3 JUMP JUMPDEST PUSH1 0x0 PUSH2 0x1AD0 DUP3 PUSH2 0x1994 JUMP JUMPDEST SWAP1 POP SWAP2 SWAP1 POP JUMP JUMPDEST PUSH2 0x1AE0 DUP2 PUSH2 0x1AC5 JUMP JUMPDEST DUP2 EQ PUSH2 0x1AEB JUMPI PUSH1 0x0 DUP1 REVERT JUMPDEST POP JUMP JUMPDEST PUSH1 0x0 DUP2 CALLDATALOAD SWAP1 POP PUSH2 0x1AFD DUP2 PUSH2 0x1AD7 JUMP JUMPDEST SWAP3 SWAP2 POP POP JUMP JUMPDEST PUSH1 0x0 DUP1 PUSH1 0x0 DUP1 PUSH1 0x80 DUP6 DUP8 SUB SLT ISZERO PUSH2 0x1B1D JUMPI PUSH2 0x1B1C PUSH2 0x185A JUMP JUMPDEST JUMPDEST PUSH1 0x0 PUSH2 0x1B2B DUP8 DUP3 DUP9 ADD PUSH2 0x1AEE JUMP JUMPDEST SWAP5 POP POP PUSH1 0x20 PUSH2 0x1B3C DUP8 DUP3 DUP9 ADD PUSH2 0x1880 JUMP JUMPDEST SWAP4 POP POP PUSH1 0x40 PUSH2 0x1B4D DUP8 DUP3 DUP9 ADD PUSH2 0x1880 JUMP JUMPDEST SWAP3 POP POP PUSH1 0x60 PUSH2 0x1B5E DUP8 DUP3 DUP9 ADD PUSH2 0x1880 JUMP JUMPDEST SWAP2 POP POP SWAP3 SWAP6 SWAP2 SWAP5 POP SWAP3 POP JUMP JUMPDEST PUSH1 0x0 DUP1 PUSH1 0x40 DUP4 DUP6 SUB SLT ISZERO PUSH2 0x1B81 JUMPI PUSH2 0x1B80 PUSH2 0x185A JUMP JUMPDEST JUMPDEST PUSH1 0x0 PUSH2 0x1B8F DUP6 DUP3 DUP7 ADD PUSH2 0x1AEE JUMP JUMPDEST SWAP3 POP POP PUSH1 0x20 PUSH2 0x1BA0 DUP6 DUP3 DUP7 ADD PUSH2 0x1880 JUMP JUMPDEST SWAP2 POP POP SWAP3 POP SWAP3 SWAP1 POP JUMP JUMPDEST PUSH1 0x0 PUSH1 0xFF DUP3 AND SWAP1 POP SWAP2 SWAP1 POP JUMP JUMPDEST PUSH2 0x1BC0 DUP2 PUSH2 0x1BAA JUMP JUMPDEST DUP3 MSTORE POP POP JUMP JUMPDEST PUSH1 0x0 PUSH1 0x20 DUP3 ADD SWAP1 POP PUSH2 0x1BDB PUSH1 0x0 DUP4 ADD DUP5 PUSH2 0x1BB7 JUMP JUMPDEST SWAP3 SWAP2 POP POP JUMP JUMPDEST PUSH1 0x0 PUSH1 0x20 DUP3 DUP5 SUB SLT ISZERO PUSH2 0x1BF7 JUMPI PUSH2 0x1BF6 PUSH2 0x185A JUMP JUMPDEST JUMPDEST PUSH1 0x0 PUSH2 0x1C05 DUP5 DUP3 DUP6 ADD PUSH2 0x19BD JUMP JUMPDEST SWAP2 POP POP SWAP3 SWAP2 POP POP JUMP JUMPDEST PUSH1 0x0 DUP1 PUSH1 0x40 DUP4 DUP6 SUB SLT ISZERO PUSH2 0x1C25 JUMPI PUSH2 0x1C24 PUSH2 0x185A JUMP JUMPDEST JUMPDEST PUSH1 0x0 PUSH2 0x1C33 DUP6 DUP3 DUP7 ADD PUSH2 0x19BD JUMP JUMPDEST SWAP3 POP POP PUSH1 0x20 PUSH2 0x1C44 DUP6 DUP3 DUP7 ADD PUSH2 0x19BD JUMP JUMPDEST SWAP2 POP POP SWAP3 POP SWAP3 SWAP1 POP JUMP JUMPDEST PUSH2 0x1C57 DUP2 PUSH2 0x1994 JUMP JUMPDEST DUP3 MSTORE POP POP JUMP JUMPDEST PUSH1 0x0 DUP2 SWAP1 POP SWAP2 SWAP1 POP JUMP JUMPDEST PUSH1 0x0 PUSH2 0x1C82 PUSH2 0x1C7D PUSH2 0x1C78 DUP5 PUSH2 0x1974 JUMP JUMPDEST PUSH2 0x1C5D JUMP JUMPDEST PUSH2 0x1974 JUMP JUMPDEST SWAP1 POP SWAP2 SWAP1 POP JUMP JUMPDEST PUSH1 0x0 PUSH2 0x1C94 DUP3 PUSH2 0x1C67 JUMP JUMPDEST SWAP1 POP SWAP2 SWAP1 POP JUMP JUMPDEST PUSH1 0x0 PUSH2 0x1CA6 DUP3 PUSH2 0x1C89 JUMP JUMPDEST SWAP1 POP SWAP2 SWAP1 POP JUMP JUMPDEST PUSH2 0x1CB6 DUP2 PUSH2 0x1C9B JUMP JUMPDEST DUP3 MSTORE POP POP JUMP JUMPDEST PUSH1 0x0 PUSH2 0x100 DUP3 ADD SWAP1 POP PUSH2 0x1CD2 PUSH1 0x0 DUP4 ADD DUP12 PUSH2 0x1A48 JUMP JUMPDEST PUSH2 0x1CDF PUSH1 0x20 DUP4 ADD DUP11 PUSH2 0x1A48 JUMP JUMPDEST PUSH2 0x1CEC PUSH1 0x40 DUP4 ADD DUP10 PUSH2 0x1A48 JUMP JUMPDEST PUSH2 0x1CF9 PUSH1 0x60 DUP4 ADD DUP9 PUSH2 0x1C4E JUMP JUMPDEST PUSH2 0x1D06 PUSH1 0x80 DUP4 ADD DUP8 PUSH2 0x1C4E JUMP JUMPDEST PUSH2 0x1D13 PUSH1 0xA0 DUP4 ADD DUP7 PUSH2 0x1A1E JUMP JUMPDEST PUSH2 0x1D20 PUSH1 0xC0 DUP4 ADD DUP6 PUSH2 0x1CAD JUMP JUMPDEST PUSH2 0x1D2D PUSH1 0xE0 DUP4 ADD DUP5 PUSH2 0x1A48 JUMP JUMPDEST SWAP10 SWAP9 POP POP POP POP POP POP POP POP POP JUMP JUMPDEST PUSH1 0x0 DUP1 PUSH1 0x40 DUP4 DUP6 SUB SLT ISZERO PUSH2 0x1D51 JUMPI PUSH2 0x1D50 PUSH2 0x185A JUMP JUMPDEST JUMPDEST PUSH1 0x0 PUSH2 0x1D5F DUP6 DUP3 DUP7 ADD PUSH2 0x1880 JUMP JUMPDEST SWAP3 POP POP PUSH1 0x20 PUSH2 0x1D70 DUP6 DUP3 DUP7 ADD PUSH2 0x1880 JUMP JUMPDEST SWAP2 POP POP SWAP3 POP SWAP3 SWAP1 POP JUMP JUMPDEST PUSH32 0x4E487B7100000000000000000000000000000000000000000000000000000000 PUSH1 0x0 MSTORE PUSH1 0x22 PUSH1 0x4 MSTORE PUSH1 0x24 PUSH1 0x0 REVERT JUMPDEST PUSH1 0x0 PUSH1 0x2 DUP3 DIV SWAP1 POP PUSH1 0x1 DUP3 AND DUP1 PUSH2 0x1DC1 JUMPI PUSH1 0x7F DUP3 AND SWAP2 POP JUMPDEST PUSH1 0x20 DUP3 LT DUP2 SUB PUSH2 0x1DD4 JUMPI PUSH2 0x1DD3 PUSH2 0x1D7A JUMP JUMPDEST JUMPDEST POP SWAP2 SWAP1 POP JUMP JUMPDEST PUSH32 0x4E487B7100000000000000000000000000000000000000000000000000000000 PUSH1 0x0 MSTORE PUSH1 0x11 PUSH1 0x4 MSTORE PUSH1 0x24 PUSH1 0x0 REVERT JUMPDEST PUSH1 0x0 PUSH2 0x1E14 DUP3 PUSH2 0x185F JUMP JUMPDEST SWAP2 POP PUSH2 0x1E1F DUP4 PUSH2 0x185F JUMP JUMPDEST SWAP3 POP DUP3 DUP3 ADD SWAP1 POP DUP1 DUP3 GT ISZERO PUSH2 0x1E37 JUMPI PUSH2 0x1E36 PUSH2 0x1DDA JUMP JUMPDEST JUMPDEST SWAP3 SWAP2 POP POP JUMP JUMPDEST PUSH32 0x4E487B7100000000000000000000000000000000000000000000000000000000 PUSH1 0x0 MSTORE PUSH1 0x12 PUSH1 0x4 MSTORE PUSH1 0x24 PUSH1 0x0 REVERT JUMPDEST PUSH1 0x0 PUSH2 0x1E77 DUP3 PUSH2 0x185F JUMP JUMPDEST SWAP2 POP PUSH2 0x1E82 DUP4 PUSH2 0x185F JUMP JUMPDEST SWAP3 POP DUP3 PUSH2 0x1E92 JUMPI PUSH2 0x1E91 PUSH2 0x1E3D JUMP JUMPDEST JUMPDEST DUP3 DUP3 DIV SWAP1 POP SWAP3 SWAP2 POP POP JUMP JUMPDEST PUSH32 0x496E73756666696369656E74204554482062616C616E636520696E2074686520 PUSH1 0x0 DUP3 ADD MSTORE PUSH32 0x636F6E7472616374000000000000000000000000000000000000000000000000 PUSH1 0x20 DUP3 ADD MSTORE POP JUMP JUMPDEST PUSH1 0x0 PUSH2 0x1EF9 PUSH1 0x28 DUP4 PUSH2 0x18CD JUMP JUMPDEST SWAP2 POP PUSH2 0x1F04 DUP3 PUSH2 0x1E9D JUMP JUMPDEST PUSH1 0x40 DUP3 ADD SWAP1 POP SWAP2 SWAP1 POP JUMP JUMPDEST PUSH1 0x0 PUSH1 0x20 DUP3 ADD SWAP1 POP DUP2 DUP2 SUB PUSH1 0x0 DUP4 ADD MSTORE PUSH2 0x1F28 DUP2 PUSH2 0x1EEC JUMP JUMPDEST SWAP1 POP SWAP2 SWAP1 POP JUMP JUMPDEST PUSH32 0x45524332303A2064656372656173656420616C6C6F77616E63652062656C6F77 PUSH1 0x0 DUP3 ADD MSTORE PUSH32 0x207A65726F000000000000000000000000000000000000000000000000000000 PUSH1 0x20 DUP3 ADD MSTORE POP JUMP JUMPDEST PUSH1 0x0 PUSH2 0x1F8B PUSH1 0x25 DUP4 PUSH2 0x18CD JUMP JUMPDEST SWAP2 POP PUSH2 0x1F96 DUP3 PUSH2 0x1F2F JUMP JUMPDEST PUSH1 0x40 DUP3 ADD SWAP1 POP SWAP2 SWAP1 POP JUMP JUMPDEST PUSH1 0x0 PUSH1 0x20 DUP3 ADD SWAP1 POP DUP2 DUP2 SUB PUSH1 0x0 DUP4 ADD MSTORE PUSH2 0x1FBA DUP2 PUSH2 0x1F7E JUMP JUMPDEST SWAP1 POP SWAP2 SWAP1 POP JUMP JUMPDEST PUSH1 0x0 PUSH2 0x1FCC DUP3 PUSH2 0x185F JUMP JUMPDEST SWAP2 POP PUSH2 0x1FD7 DUP4 PUSH2 0x185F JUMP JUMPDEST SWAP3 POP DUP3 DUP3 MUL PUSH2 0x1FE5 DUP2 PUSH2 0x185F JUMP JUMPDEST SWAP2 POP DUP3 DUP3 DIV DUP5 EQ DUP4 ISZERO OR PUSH2 0x1FFC JUMPI PUSH2 0x1FFB PUSH2 0x1DDA JUMP JUMPDEST JUMPDEST POP SWAP3 SWAP2 POP POP JUMP JUMPDEST PUSH32 0x596F752072657475726E696E67206D6F7265207468656E20746865206C6F616E PUSH1 0x0 DUP3 ADD MSTORE PUSH32 0x2061636365707473000000000000000000000000000000000000000000000000 PUSH1 0x20 DUP3 ADD MSTORE POP JUMP JUMPDEST PUSH1 0x0 PUSH2 0x205F PUSH1 0x28 DUP4 PUSH2 0x18CD JUMP JUMPDEST SWAP2 POP PUSH2 0x206A DUP3 PUSH2 0x2003 JUMP JUMPDEST PUSH1 0x40 DUP3 ADD SWAP1 POP SWAP2 SWAP1 POP JUMP JUMPDEST PUSH1 0x0 PUSH1 0x20 DUP3 ADD SWAP1 POP DUP2 DUP2 SUB PUSH1 0x0 DUP4 ADD MSTORE PUSH2 0x208E DUP2 PUSH2 0x2052 JUMP JUMPDEST SWAP1 POP SWAP2 SWAP1 POP JUMP JUMPDEST PUSH1 0x0 PUSH2 0x20A0 DUP3 PUSH2 0x185F JUMP JUMPDEST SWAP2 POP PUSH2 0x20AB DUP4 PUSH2 0x185F JUMP JUMPDEST SWAP3 POP DUP3 DUP3 SUB SWAP1 POP DUP2 DUP2 GT ISZERO PUSH2 0x20C3 JUMPI PUSH2 0x20C2 PUSH2 0x1DDA JUMP JUMPDEST JUMPDEST SWAP3 SWAP2 POP POP JUMP JUMPDEST PUSH32 0x4C6F616E20646F6573206E6F7420657869737400000000000000000000000000 PUSH1 0x0 DUP3 ADD MSTORE POP JUMP JUMPDEST PUSH1 0x0 PUSH2 0x20FF PUSH1 0x13 DUP4 PUSH2 0x18CD JUMP JUMPDEST SWAP2 POP PUSH2 0x210A DUP3 PUSH2 0x20C9 JUMP JUMPDEST PUSH1 0x20 DUP3 ADD SWAP1 POP SWAP2 SWAP1 POP JUMP JUMPDEST PUSH1 0x0 PUSH1 0x20 DUP3 ADD SWAP1 POP DUP2 DUP2 SUB PUSH1 0x0 DUP4 ADD MSTORE PUSH2 0x212E DUP2 PUSH2 0x20F2 JUMP JUMPDEST SWAP1 POP SWAP2 SWAP1 POP JUMP JUMPDEST PUSH32 0x6E6F7420656E6F7567682044455820666F722074686174206275790000000000 PUSH1 0x0 DUP3 ADD MSTORE POP JUMP JUMPDEST PUSH1 0x0 PUSH2 0x216B PUSH1 0x1B DUP4 PUSH2 0x18CD JUMP JUMPDEST SWAP2 POP PUSH2 0x2176 DUP3 PUSH2 0x2135 JUMP JUMPDEST PUSH1 0x20 DUP3 ADD SWAP1 POP SWAP2 SWAP1 POP JUMP JUMPDEST PUSH1 0x0 PUSH1 0x20 DUP3 ADD SWAP1 POP DUP2 DUP2 SUB PUSH1 0x0 DUP4 ADD MSTORE PUSH2 0x219A DUP2 PUSH2 0x215E JUMP JUMPDEST SWAP1 POP SWAP2 SWAP1 POP JUMP JUMPDEST PUSH1 0x0 PUSH2 0x21AC DUP3 PUSH2 0x185F JUMP JUMPDEST SWAP2 POP PUSH32 0xFFFFFFFFFFFFFFFFFFFFFFFFFFFFFFFFFFFFFFFFFFFFFFFFFFFFFFFFFFFFFFFF DUP3 SUB PUSH2 0x21DE JUMPI PUSH2 0x21DD PUSH2 0x1DDA JUMP JUMPDEST JUMPDEST PUSH1 0x1 DUP3 ADD SWAP1 POP SWAP2 SWAP1 POP JUMP JUMPDEST PUSH1 0x0 PUSH1 0x40 DUP3 ADD SWAP1 POP PUSH2 0x21FE PUSH1 0x0 DUP4 ADD DUP6 PUSH2 0x1A48 JUMP JUMPDEST PUSH2 0x220B PUSH1 0x20 DUP4 ADD DUP5 PUSH2 0x1A48 JUMP JUMPDEST SWAP4 SWAP3 POP POP POP JUMP JUMPDEST PUSH32 0x45524332303A20617070726F76652066726F6D20746865207A65726F20616464 PUSH1 0x0 DUP3 ADD MSTORE PUSH32 0x7265737300000000000000000000000000000000000000000000000000000000 PUSH1 0x20 DUP3 ADD MSTORE POP JUMP JUMPDEST PUSH1 0x0 PUSH2 0x226E PUSH1 0x24 DUP4 PUSH2 0x18CD JUMP JUMPDEST SWAP2 POP PUSH2 0x2279 DUP3 PUSH2 0x2212 JUMP JUMPDEST PUSH1 0x40 DUP3 ADD SWAP1 POP SWAP2 SWAP1 POP JUMP JUMPDEST PUSH1 0x0 PUSH1 0x20 DUP3 ADD SWAP1 POP DUP2 DUP2 SUB PUSH1 0x0 DUP4 ADD MSTORE PUSH2 0x229D DUP2 PUSH2 0x2261 JUMP JUMPDEST SWAP1 POP SWAP2 SWAP1 POP JUMP JUMPDEST PUSH32 0x45524332303A20617070726F766520746F20746865207A65726F206164647265 PUSH1 0x0 DUP3 ADD MSTORE PUSH32 0x7373000000000000000000000000000000000000000000000000000000000000 PUSH1 0x20 DUP3 ADD MSTORE POP JUMP JUMPDEST PUSH1 0x0 PUSH2 0x2300 PUSH1 0x22 DUP4 PUSH2 0x18CD JUMP JUMPDEST SWAP2 POP PUSH2 0x230B DUP3 PUSH2 0x22A4 JUMP JUMPDEST PUSH1 0x40 DUP3 ADD SWAP1 POP SWAP2 SWAP1 POP JUMP JUMPDEST PUSH1 0x0 PUSH1 0x20 DUP3 ADD SWAP1 POP DUP2 DUP2 SUB PUSH1 0x0 DUP4 ADD MSTORE PUSH2 0x232F DUP2 PUSH2 0x22F3 JUMP JUMPDEST SWAP1 POP SWAP2 SWAP1 POP JUMP JUMPDEST PUSH32 0x45524332303A20696E73756666696369656E7420616C6C6F77616E6365000000 PUSH1 0x0 DUP3 ADD MSTORE POP JUMP JUMPDEST PUSH1 0x0 PUSH2 0x236C PUSH1 0x1D DUP4 PUSH2 0x18CD JUMP JUMPDEST SWAP2 POP PUSH2 0x2377 DUP3 PUSH2 0x2336 JUMP JUMPDEST PUSH1 0x20 DUP3 ADD SWAP1 POP SWAP2 SWAP1 POP JUMP JUMPDEST PUSH1 0x0 PUSH1 0x20 DUP3 ADD SWAP1 POP DUP2 DUP2 SUB PUSH1 0x0 DUP4 ADD MSTORE PUSH2 0x239B DUP2 PUSH2 0x235F JUMP JUMPDEST SWAP1 POP SWAP2 SWAP1 POP JUMP JUMPDEST PUSH32 0x45524332303A207472616E736665722066726F6D20746865207A65726F206164 PUSH1 0x0 DUP3 ADD MSTORE PUSH32 0x6472657373000000000000000000000000000000000000000000000000000000 PUSH1 0x20 DUP3 ADD MSTORE POP JUMP JUMPDEST PUSH1 0x0 PUSH2 0x23FE PUSH1 0x25 DUP4 PUSH2 0x18CD JUMP JUMPDEST SWAP2 POP PUSH2 0x2409 DUP3 PUSH2 0x23A2 JUMP JUMPDEST PUSH1 0x40 DUP3 ADD SWAP1 POP SWAP2 SWAP1 POP JUMP JUMPDEST PUSH1 0x0 PUSH1 0x20 DUP3 ADD SWAP1 POP DUP2 DUP2 SUB PUSH1 0x0 DUP4 ADD MSTORE PUSH2 0x242D DUP2 PUSH2 0x23F1 JUMP JUMPDEST SWAP1 POP SWAP2 SWAP1 POP JUMP JUMPDEST PUSH32 0x45524332303A207472616E7366657220746F20746865207A65726F2061646472 PUSH1 0x0 DUP3 ADD MSTORE PUSH32 0x6573730000000000000000000000000000000000000000000000000000000000 PUSH1 0x20 DUP3 ADD MSTORE POP JUMP JUMPDEST PUSH1 0x0 PUSH2 0x2490 PUSH1 0x23 DUP4 PUSH2 0x18CD JUMP JUMPDEST SWAP2 POP PUSH2 0x249B DUP3 PUSH2 0x2434 JUMP JUMPDEST PUSH1 0x40 DUP3 ADD SWAP1 POP SWAP2 SWAP1 POP JUMP JUMPDEST PUSH1 0x0 PUSH1 0x20 DUP3 ADD SWAP1 POP DUP2 DUP2 SUB PUSH1 0x0 DUP4 ADD MSTORE PUSH2 0x24BF DUP2 PUSH2 0x2483 JUMP JUMPDEST SWAP1 POP SWAP2 SWAP1 POP JUMP JUMPDEST PUSH32 0x45524332303A207472616E7366657220616D6F756E7420657863656564732062 PUSH1 0x0 DUP3 ADD MSTORE PUSH32 0x616C616E63650000000000000000000000000000000000000000000000000000 PUSH1 0x20 DUP3 ADD MSTORE POP JUMP JUMPDEST PUSH1 0x0 PUSH2 0x2522 PUSH1 0x26 DUP4 PUSH2 0x18CD JUMP JUMPDEST SWAP2 POP PUSH2 0x252D DUP3 PUSH2 0x24C6 JUMP JUMPDEST PUSH1 0x40 DUP3 ADD SWAP1 POP SWAP2 SWAP1 POP JUMP JUMPDEST PUSH1 0x0 PUSH1 0x20 DUP3 ADD SWAP1 POP DUP2 DUP2 SUB PUSH1 0x0 DUP4 ADD MSTORE PUSH2 0x2551 DUP2 PUSH2 0x2515 JUMP JUMPDEST SWAP1 POP SWAP2 SWAP1 POP JUMP INVALID LOG2 PUSH5 0x6970667358 0x22 SLT KECCAK256 0xA6 SHR 0xDB LOG0 0xDC 0xC6 CALL 0xC6 0x21 0xF6 0xC4 0x1F 0xC5 LT SWAP3 SWAP16 DUP4 CALLDATASIZE JUMP 0xC2 MOD EXTCODEHASH DUP10 0xC3 0x2C SWAP8 LOG1 LOG3 JUMPDEST SELFDESTRUCT PUSH21 0x5764736F6C63430008120033000000000000000000 "
				},
				"gasEstimates": {
					"creation": {
						"codeDepositCost": "1922800",
						"executionCost": "infinite",
						"totalCost": "infinite"
					},
					"external": {
						"allowance(address,address)": "infinite",
						"approve(address,uint256)": "infinite",
						"balanceOf(address)": "2952",
						"buyDex()": "infinite",
						"cancelLoanRequestByNft(address,uint256)": "782",
						"checkLoan(uint256)": "infinite",
						"decimals()": "410",
						"decreaseAllowance(address,uint256)": "infinite",
						"getDex()": "2681",
						"getEthTotalBalance()": "427",
						"increaseAllowance(address,uint256)": "infinite",
						"loan(uint256,uint256)": "infinite",
						"loanByNft(address,uint256)": "716",
						"loans(uint256)": "infinite",
						"makeLoanRequestByNft(address,uint256,uint256,uint256)": "infinite",
						"name()": "infinite",
						"numTokensPerWallet(address)": "2837",
						"returnLoan(uint256)": "infinite",
						"sellDex(uint256)": "infinite",
						"setRateEthToDex(uint256)": "24714",
						"symbol()": "infinite",
						"totalSupply()": "2527",
						"transfer(address,uint256)": "infinite",
						"transferFrom(address,address,uint256)": "infinite"
					}
				},
				"methodIdentifiers": {
					"allowance(address,address)": "dd62ed3e",
					"approve(address,uint256)": "095ea7b3",
					"balanceOf(address)": "70a08231",
					"buyDex()": "f3c3c580",
					"cancelLoanRequestByNft(address,uint256)": "aa7db8c8",
					"checkLoan(uint256)": "ed344f02",
					"decimals()": "313ce567",
					"decreaseAllowance(address,uint256)": "a457c2d7",
					"getDex()": "191622ff",
					"getEthTotalBalance()": "ef71c26a",
					"increaseAllowance(address,uint256)": "39509351",
					"loan(uint256,uint256)": "f83e48cb",
					"loanByNft(address,uint256)": "2e413662",
					"loans(uint256)": "e1ec3c68",
					"makeLoanRequestByNft(address,uint256,uint256,uint256)": "2941c500",
					"name()": "06fdde03",
					"numTokensPerWallet(address)": "918f7afe",
					"returnLoan(uint256)": "e9126154",
					"sellDex(uint256)": "756c1741",
					"setRateEthToDex(uint256)": "05fec2ed",
					"symbol()": "95d89b41",
					"totalSupply()": "18160ddd",
					"transfer(address,uint256)": "a9059cbb",
					"transferFrom(address,address,uint256)": "23b872dd"
				}
			},
			"storageLayout": {
				"storage": [
					{
						"astId": 15,
						"contract": "decentralized_finance.sol:DecentralizedFinance",
						"label": "_balances",
						"offset": 0,
						"slot": "0",
						"type": "t_mapping(t_address,t_uint256)"
					},
					{
						"astId": 21,
						"contract": "decentralized_finance.sol:DecentralizedFinance",
						"label": "_allowances",
						"offset": 0,
						"slot": "1",
						"type": "t_mapping(t_address,t_mapping(t_address,t_uint256))"
					},
					{
						"astId": 23,
						"contract": "decentralized_finance.sol:DecentralizedFinance",
						"label": "_totalSupply",
						"offset": 0,
						"slot": "2",
						"type": "t_uint256"
					},
					{
						"astId": 25,
						"contract": "decentralized_finance.sol:DecentralizedFinance",
						"label": "_name",
						"offset": 0,
						"slot": "3",
						"type": "t_string_storage"
					},
					{
						"astId": 27,
						"contract": "decentralized_finance.sol:DecentralizedFinance",
						"label": "_symbol",
						"offset": 0,
						"slot": "4",
						"type": "t_string_storage"
					},
					{
						"astId": 847,
						"contract": "decentralized_finance.sol:DecentralizedFinance",
						"label": "owner",
						"offset": 0,
						"slot": "5",
						"type": "t_address"
					},
					{
						"astId": 849,
						"contract": "decentralized_finance.sol:DecentralizedFinance",
						"label": "rateWEItoDEX",
						"offset": 0,
						"slot": "6",
						"type": "t_uint256"
					},
					{
						"astId": 851,
						"contract": "decentralized_finance.sol:DecentralizedFinance",
						"label": "maxLoanDate",
						"offset": 0,
						"slot": "7",
						"type": "t_uint256"
					},
					{
						"astId": 853,
						"contract": "decentralized_finance.sol:DecentralizedFinance",
						"label": "counter",
						"offset": 0,
						"slot": "8",
						"type": "t_uint256"
					},
					{
						"astId": 876,
						"contract": "decentralized_finance.sol:DecentralizedFinance",
						"label": "loans",
						"offset": 0,
						"slot": "9",
						"type": "t_mapping(t_uint256,t_struct(Loan)871_storage)"
					},
					{
						"astId": 880,
						"contract": "decentralized_finance.sol:DecentralizedFinance",
						"label": "numTokensPerWallet",
						"offset": 0,
						"slot": "10",
						"type": "t_mapping(t_address,t_uint256)"
					}
				],
				"types": {
					"t_address": {
						"encoding": "inplace",
						"label": "address",
						"numberOfBytes": "20"
					},
					"t_bool": {
						"encoding": "inplace",
						"label": "bool",
						"numberOfBytes": "1"
					},
					"t_contract(IERC721)805": {
						"encoding": "inplace",
						"label": "contract IERC721",
						"numberOfBytes": "20"
					},
					"t_mapping(t_address,t_mapping(t_address,t_uint256))": {
						"encoding": "mapping",
						"key": "t_address",
						"label": "mapping(address => mapping(address => uint256))",
						"numberOfBytes": "32",
						"value": "t_mapping(t_address,t_uint256)"
					},
					"t_mapping(t_address,t_uint256)": {
						"encoding": "mapping",
						"key": "t_address",
						"label": "mapping(address => uint256)",
						"numberOfBytes": "32",
						"value": "t_uint256"
					},
					"t_mapping(t_uint256,t_struct(Loan)871_storage)": {
						"encoding": "mapping",
						"key": "t_uint256",
						"label": "mapping(uint256 => struct DecentralizedFinance.Loan)",
						"numberOfBytes": "32",
						"value": "t_struct(Loan)871_storage"
					},
					"t_string_storage": {
						"encoding": "bytes",
						"label": "string",
						"numberOfBytes": "32"
					},
					"t_struct(Loan)871_storage": {
						"encoding": "inplace",
						"label": "struct DecentralizedFinance.Loan",
						"members": [
							{
								"astId": 855,
								"contract": "decentralized_finance.sol:DecentralizedFinance",
								"label": "dateCreated",
								"offset": 0,
								"slot": "0",
								"type": "t_uint256"
							},
							{
								"astId": 857,
								"contract": "decentralized_finance.sol:DecentralizedFinance",
								"label": "deadline",
								"offset": 0,
								"slot": "1",
								"type": "t_uint256"
							},
							{
								"astId": 859,
								"contract": "decentralized_finance.sol:DecentralizedFinance",
								"label": "amountEth",
								"offset": 0,
								"slot": "2",
								"type": "t_uint256"
							},
							{
								"astId": 861,
								"contract": "decentralized_finance.sol:DecentralizedFinance",
								"label": "lender",
								"offset": 0,
								"slot": "3",
								"type": "t_address"
							},
							{
								"astId": 863,
								"contract": "decentralized_finance.sol:DecentralizedFinance",
								"label": "borrower",
								"offset": 0,
								"slot": "4",
								"type": "t_address"
							},
							{
								"astId": 865,
								"contract": "decentralized_finance.sol:DecentralizedFinance",
								"label": "isBaseNft",
								"offset": 20,
								"slot": "4",
								"type": "t_bool"
							},
							{
								"astId": 868,
								"contract": "decentralized_finance.sol:DecentralizedFinance",
								"label": "nftContract",
								"offset": 0,
								"slot": "5",
								"type": "t_contract(IERC721)805"
							},
							{
								"astId": 870,
								"contract": "decentralized_finance.sol:DecentralizedFinance",
								"label": "nftId",
								"offset": 0,
								"slot": "6",
								"type": "t_uint256"
							}
						],
						"numberOfBytes": "224"
					},
					"t_uint256": {
						"encoding": "inplace",
						"label": "uint256",
						"numberOfBytes": "32"
					}
				}
			},
			"userdoc": {
				"kind": "user",
				"methods": {},
				"version": 1
			}
		}
	}
}